{
  "contractName": "Limiter",
  "abi": [
    {
      "inputs": [
        {
          "internalType": "uint256",
          "name": "maxBuy",
          "type": "uint256"
        },
        {
          "internalType": "uint256",
          "name": "maxSell",
          "type": "uint256"
        },
        {
          "internalType": "uint256",
          "name": "limitBuy",
          "type": "uint256"
        }
      ],
      "stateMutability": "nonpayable",
      "type": "constructor"
    },
    {
      "anonymous": false,
      "inputs": [
        {
          "indexed": true,
          "internalType": "address",
          "name": "previousOwner",
          "type": "address"
        },
        {
          "indexed": true,
          "internalType": "address",
          "name": "newOwner",
          "type": "address"
        }
      ],
      "name": "OwnershipTransferred",
      "type": "event"
    },
    {
      "inputs": [],
      "name": "owner",
      "outputs": [
        {
          "internalType": "address",
          "name": "",
          "type": "address"
        }
      ],
      "stateMutability": "view",
      "type": "function"
    },
    {
      "inputs": [],
      "name": "renounceOwnership",
      "outputs": [],
      "stateMutability": "nonpayable",
      "type": "function"
    },
    {
      "inputs": [
        {
          "internalType": "address",
          "name": "newOwner",
          "type": "address"
        }
      ],
      "name": "transferOwnership",
      "outputs": [],
      "stateMutability": "nonpayable",
      "type": "function"
    },
    {
      "inputs": [],
      "name": "getMaxBuy",
      "outputs": [
        {
          "internalType": "uint256",
          "name": "",
          "type": "uint256"
        }
      ],
      "stateMutability": "view",
      "type": "function"
    },
    {
      "inputs": [],
      "name": "getMaxSell",
      "outputs": [
        {
          "internalType": "uint256",
          "name": "",
          "type": "uint256"
        }
      ],
      "stateMutability": "view",
      "type": "function"
    },
    {
      "inputs": [],
      "name": "getLimitBuy",
      "outputs": [
        {
          "internalType": "uint256",
          "name": "",
          "type": "uint256"
        }
      ],
      "stateMutability": "view",
      "type": "function"
    },
    {
      "inputs": [
        {
          "internalType": "address",
          "name": "_sender",
          "type": "address"
        },
        {
          "internalType": "uint256",
          "name": "_amount",
          "type": "uint256"
        }
      ],
      "name": "isValidBuy",
      "outputs": [
        {
          "internalType": "bool",
          "name": "",
          "type": "bool"
        }
      ],
      "stateMutability": "view",
      "type": "function"
    },
    {
      "inputs": [
        {
          "internalType": "uint256",
          "name": "_amount",
          "type": "uint256"
        }
      ],
      "name": "isValidSell",
      "outputs": [
        {
          "internalType": "bool",
          "name": "",
          "type": "bool"
        }
      ],
      "stateMutability": "view",
      "type": "function"
    },
    {
      "inputs": [
        {
          "internalType": "uint256",
          "name": "maxBuy",
          "type": "uint256"
        }
      ],
      "name": "setMaxBuyLimit",
      "outputs": [],
      "stateMutability": "nonpayable",
      "type": "function"
    },
    {
      "inputs": [
        {
          "internalType": "uint256",
          "name": "maxSell",
          "type": "uint256"
        }
      ],
      "name": "setMaxSellLimit",
      "outputs": [],
      "stateMutability": "nonpayable",
      "type": "function"
    },
    {
      "inputs": [
        {
          "internalType": "uint256",
          "name": "limitBuy",
          "type": "uint256"
        }
      ],
      "name": "setLimitBuy",
      "outputs": [],
      "stateMutability": "nonpayable",
      "type": "function"
    },
    {
      "inputs": [
        {
          "internalType": "address",
          "name": "_sender",
          "type": "address"
        },
        {
          "internalType": "uint256",
          "name": "_amount",
          "type": "uint256"
        }
      ],
      "name": "onBuySuccess",
      "outputs": [],
      "stateMutability": "nonpayable",
      "type": "function"
    },
    {
      "inputs": [
        {
          "internalType": "address",
          "name": "_sender",
          "type": "address"
        },
        {
          "internalType": "uint256",
          "name": "_amount",
          "type": "uint256"
        }
      ],
      "name": "onSellSuccess",
      "outputs": [],
      "stateMutability": "nonpayable",
      "type": "function"
    },
    {
      "inputs": [
        {
          "internalType": "address",
          "name": "_sender",
          "type": "address"
        }
      ],
      "name": "getAddressTotalBuy",
      "outputs": [
        {
          "internalType": "int256",
          "name": "",
          "type": "int256"
        }
      ],
      "stateMutability": "view",
      "type": "function"
    }
  ],
  "bytecode": "0x60806040523480156200001157600080fd5b5060405162000edb38038062000edb833981810160405281019062000037919062000181565b620000576200004b6200007560201b60201c565b6200007d60201b60201c565b826001819055508160028190555080600381905550505050620001dd565b600033905090565b60008060009054906101000a900473ffffffffffffffffffffffffffffffffffffffff169050816000806101000a81548173ffffffffffffffffffffffffffffffffffffffff021916908373ffffffffffffffffffffffffffffffffffffffff1602179055508173ffffffffffffffffffffffffffffffffffffffff168173ffffffffffffffffffffffffffffffffffffffff167f8be0079c531659141344cd1fd0a4f28419497f9722a3daafe3b4186f6b6457e060405160405180910390a35050565b600080fd5b6000819050919050565b6200015b8162000146565b81146200016757600080fd5b50565b6000815190506200017b8162000150565b92915050565b6000806000606084860312156200019d576200019c62000141565b5b6000620001ad868287016200016a565b9350506020620001c0868287016200016a565b9250506040620001d3868287016200016a565b9150509250925092565b610cee80620001ed6000396000f3fe608060405234801561001057600080fd5b50600436106100ea5760003560e01c806381824eb81161008c57806396790d4a1161006657806396790d4a14610235578063c8f4a06b14610253578063e61a4c4a1461026f578063f2fde38b1461028d576100ea565b806381824eb8146101b757806389e25a65146101e75780638da5cb5b14610217576100ea565b806353dfc508116100c857806353dfc508146101455780635be71d5f14610161578063715018a614610191578063757765f81461019b576100ea565b806336884b6e146100ef578063435f53101461010b578063466f631114610127575b600080fd5b6101096004803603810190610104919061093a565b6102a9565b005b6101256004803603810190610120919061093a565b61032f565b005b61012f6103b5565b60405161013c9190610976565b60405180910390f35b61015f600480360381019061015a91906109ef565b6103bf565b005b61017b60048036038101906101769190610a2f565b610419565b6040516101889190610a75565b60405180910390f35b610199610462565b005b6101b560048036038101906101b0919061093a565b6104ea565b005b6101d160048036038101906101cc91906109ef565b610570565b6040516101de9190610aab565b60405180910390f35b61020160048036038101906101fc919061093a565b6105f4565b60405161020e9190610aab565b60405180910390f35b61021f610613565b60405161022c9190610ad5565b60405180910390f35b61023d61063c565b60405161024a9190610976565b60405180910390f35b61026d600480360381019061026891906109ef565b610646565b005b610277610731565b6040516102849190610976565b60405180910390f35b6102a760048036038101906102a29190610a2f565b61073b565b005b6102b1610833565b73ffffffffffffffffffffffffffffffffffffffff166102cf610613565b73ffffffffffffffffffffffffffffffffffffffff1614610325576040517f08c379a000000000000000000000000000000000000000000000000000000000815260040161031c90610b4d565b60405180910390fd5b8060028190555050565b610337610833565b73ffffffffffffffffffffffffffffffffffffffff16610355610613565b73ffffffffffffffffffffffffffffffffffffffff16146103ab576040517f08c379a00000000000000000000000000000000000000000000000000000000081526004016103a290610b4d565b60405180910390fd5b8060038190555050565b6000600254905090565b80600460008473ffffffffffffffffffffffffffffffffffffffff1673ffffffffffffffffffffffffffffffffffffffff168152602001908152602001600020600082825461040e9190610b9c565b925050819055505050565b6000600460008373ffffffffffffffffffffffffffffffffffffffff1673ffffffffffffffffffffffffffffffffffffffff168152602001908152602001600020549050919050565b61046a610833565b73ffffffffffffffffffffffffffffffffffffffff16610488610613565b73ffffffffffffffffffffffffffffffffffffffff16146104de576040517f08c379a00000000000000000000000000000000000000000000000000000000081526004016104d590610b4d565b60405180910390fd5b6104e8600061083b565b565b6104f2610833565b73ffffffffffffffffffffffffffffffffffffffff16610510610613565b73ffffffffffffffffffffffffffffffffffffffff1614610566576040517f08c379a000000000000000000000000000000000000000000000000000000000815260040161055d90610b4d565b60405180910390fd5b8060018190555050565b600060015482111561058557600090506105ee565b6000600460008573ffffffffffffffffffffffffffffffffffffffff1673ffffffffffffffffffffffffffffffffffffffff16815260200190815260200160002054905060035483826105d89190610b9c565b11156105e85760009150506105ee565b60019150505b92915050565b6000600254821115610609576000905061060e565b600190505b919050565b60008060009054906101000a900473ffffffffffffffffffffffffffffffffffffffff16905090565b6000600154905090565b6000600460008473ffffffffffffffffffffffffffffffffffffffff1673ffffffffffffffffffffffffffffffffffffffff168152602001908152602001600020549050818110156106dc576000600460008573ffffffffffffffffffffffffffffffffffffffff1673ffffffffffffffffffffffffffffffffffffffff1681526020019081526020016000208190555061072c565b81816106e89190610bf2565b600460008573ffffffffffffffffffffffffffffffffffffffff1673ffffffffffffffffffffffffffffffffffffffff168152602001908152602001600020819055505b505050565b6000600354905090565b610743610833565b73ffffffffffffffffffffffffffffffffffffffff16610761610613565b73ffffffffffffffffffffffffffffffffffffffff16146107b7576040517f08c379a00000000000000000000000000000000000000000000000000000000081526004016107ae90610b4d565b60405180910390fd5b600073ffffffffffffffffffffffffffffffffffffffff168173ffffffffffffffffffffffffffffffffffffffff161415610827576040517f08c379a000000000000000000000000000000000000000000000000000000000815260040161081e90610c98565b60405180910390fd5b6108308161083b565b50565b600033905090565b60008060009054906101000a900473ffffffffffffffffffffffffffffffffffffffff169050816000806101000a81548173ffffffffffffffffffffffffffffffffffffffff021916908373ffffffffffffffffffffffffffffffffffffffff1602179055508173ffffffffffffffffffffffffffffffffffffffff168173ffffffffffffffffffffffffffffffffffffffff167f8be0079c531659141344cd1fd0a4f28419497f9722a3daafe3b4186f6b6457e060405160405180910390a35050565b600080fd5b6000819050919050565b61091781610904565b811461092257600080fd5b50565b6000813590506109348161090e565b92915050565b6000602082840312156109505761094f6108ff565b5b600061095e84828501610925565b91505092915050565b61097081610904565b82525050565b600060208201905061098b6000830184610967565b92915050565b600073ffffffffffffffffffffffffffffffffffffffff82169050919050565b60006109bc82610991565b9050919050565b6109cc816109b1565b81146109d757600080fd5b50565b6000813590506109e9816109c3565b92915050565b60008060408385031215610a0657610a056108ff565b5b6000610a14858286016109da565b9250506020610a2585828601610925565b9150509250929050565b600060208284031215610a4557610a446108ff565b5b6000610a53848285016109da565b91505092915050565b6000819050919050565b610a6f81610a5c565b82525050565b6000602082019050610a8a6000830184610a66565b92915050565b60008115159050919050565b610aa581610a90565b82525050565b6000602082019050610ac06000830184610a9c565b92915050565b610acf816109b1565b82525050565b6000602082019050610aea6000830184610ac6565b92915050565b600082825260208201905092915050565b7f4f776e61626c653a2063616c6c6572206973206e6f7420746865206f776e6572600082015250565b6000610b37602083610af0565b9150610b4282610b01565b602082019050919050565b60006020820190508181036000830152610b6681610b2a565b9050919050565b7f4e487b7100000000000000000000000000000000000000000000000000000000600052601160045260246000fd5b6000610ba782610904565b9150610bb283610904565b9250827fffffffffffffffffffffffffffffffffffffffffffffffffffffffffffffffff03821115610be757610be6610b6d565b5b828201905092915050565b6000610bfd82610904565b9150610c0883610904565b925082821015610c1b57610c1a610b6d565b5b828203905092915050565b7f4f776e61626c653a206e6577206f776e657220697320746865207a65726f206160008201527f6464726573730000000000000000000000000000000000000000000000000000602082015250565b6000610c82602683610af0565b9150610c8d82610c26565b604082019050919050565b60006020820190508181036000830152610cb181610c75565b905091905056fea26469706673582212201bd28f6ab64e407dabe22dabf531c341b93f2f20dda79b0d7d18551de58eee1a64736f6c634300080b0033",
  "immutableReferences": {},
  "source": "// SPDX-License-Identifier: MIT\r\npragma solidity ^0.8.2;\r\n\r\nimport \"@openzeppelin/contracts/access/Ownable.sol\";\r\n\r\ncontract Limiter is Ownable {\r\n\r\n    uint256 private _maxBuy;\r\n    uint256 private _maxSell;\r\n    uint256 private _limitBuy;\r\n    mapping(address => uint256) private _totalBuy;\r\n\r\n    constructor(uint256 maxBuy, uint256 maxSell, uint256 limitBuy) {\r\n        _maxBuy = maxBuy;\r\n        _maxSell = maxSell;\r\n        _limitBuy = limitBuy;\r\n    }\r\n\r\n    function getMaxBuy() public view returns(uint256) {\r\n        return _maxBuy;\r\n    }\r\n\r\n    function getMaxSell() public view returns(uint256) {\r\n        return _maxSell;\r\n    }\r\n\r\n    function getLimitBuy() public view returns(uint256) {\r\n        return _limitBuy;\r\n    }\r\n\r\n    function isValidBuy(address _sender, uint256 _amount) public view returns(bool) {\r\n        if (_amount > _maxBuy) {\r\n            return false;\r\n        }\r\n        uint256 totalBuyOfAddress = _totalBuy[_sender];\r\n        if (totalBuyOfAddress + _amount > _limitBuy) {\r\n            return false;\r\n        }\r\n        return true;\r\n    }\r\n\r\n    function isValidSell(uint256 _amount) public view returns(bool) {\r\n        if (_amount > _maxSell) {\r\n            return false;\r\n        }\r\n        return true;\r\n    }\r\n\r\n\r\n    function setMaxBuyLimit(uint256 maxBuy) public onlyOwner {\r\n        _maxBuy = maxBuy;\r\n    }\r\n\r\n    function setMaxSellLimit(uint256 maxSell) public onlyOwner {\r\n        _maxSell = maxSell;\r\n    }\r\n\r\n    function setLimitBuy(uint256 limitBuy) public onlyOwner {\r\n        _limitBuy = limitBuy;\r\n    }\r\n\r\n    function onBuySuccess(address _sender, uint256 _amount) public {\r\n        _totalBuy[_sender] += _amount;\r\n    }\r\n\r\n    function onSellSuccess(address _sender, uint256 _amount) public {\r\n        uint256 value = _totalBuy[_sender];\r\n        if (value < _amount) {\r\n            _totalBuy[_sender] = 0;\r\n        } else {\r\n            _totalBuy[_sender] = (value - _amount);\r\n        }\r\n    }\r\n\r\n    function getAddressTotalBuy(address _sender) public view returns(int256) {\r\n        return int256(_totalBuy[_sender]);\r\n    }\r\n}",
  "sourcePath": "C:\\Users\\Gunner\\Desktop\\ChangeTheBlock\\JUEGO-NFT\\PROXY\\src\\smart-contracts\\contracts\\Limiter.sol",
  "compiler": {
    "name": "solc",
    "version": "0.8.11+commit.d7f03943.Emscripten.clang"
  },
  "schemaVersion": "3.4.4",
  "updatedAt": "2021-12-24T11:17:39.400Z",
  "devdoc": {
    "kind": "dev",
    "methods": {
      "owner()": {
        "details": "Returns the address of the current owner."
      },
      "renounceOwnership()": {
        "details": "Leaves the contract without owner. It will not be possible to call `onlyOwner` functions anymore. Can only be called by the current owner. NOTE: Renouncing ownership will leave the contract without an owner, thereby removing any functionality that is only available to the owner."
      },
      "transferOwnership(address)": {
        "details": "Transfers ownership of the contract to a new account (`newOwner`). Can only be called by the current owner."
      }
    },
    "version": 1
  },
  "userdoc": {
    "kind": "user",
    "methods": {},
    "version": 1
  }
}