{
  "contractName": "Forwarder",
  "abi": [
    {
      "anonymous": false,
      "inputs": [
        {
          "indexed": false,
          "internalType": "address",
          "name": "tokenAddress",
          "type": "address"
        },
        {
          "indexed": false,
          "internalType": "address",
          "name": "requester",
          "type": "address"
        },
        {
          "indexed": false,
          "internalType": "address",
          "name": "owner",
          "type": "address"
        },
        {
          "indexed": false,
          "internalType": "uint256",
          "name": "amount",
          "type": "uint256"
        }
      ],
      "name": "Accept",
      "type": "event"
    },
    {
      "anonymous": false,
      "inputs": [
        {
          "indexed": true,
          "internalType": "address",
          "name": "previousOwner",
          "type": "address"
        },
        {
          "indexed": true,
          "internalType": "address",
          "name": "newOwner",
          "type": "address"
        }
      ],
      "name": "OwnershipTransferred",
      "type": "event"
    },
    {
      "anonymous": false,
      "inputs": [
        {
          "indexed": false,
          "internalType": "address",
          "name": "tokenAddress",
          "type": "address"
        },
        {
          "indexed": false,
          "internalType": "address",
          "name": "requester",
          "type": "address"
        },
        {
          "indexed": false,
          "internalType": "uint256",
          "name": "amount",
          "type": "uint256"
        }
      ],
      "name": "Refund",
      "type": "event"
    },
    {
      "anonymous": false,
      "inputs": [
        {
          "indexed": false,
          "internalType": "address",
          "name": "tokenAddress",
          "type": "address"
        },
        {
          "indexed": false,
          "internalType": "address",
          "name": "requester",
          "type": "address"
        },
        {
          "indexed": false,
          "internalType": "uint256",
          "name": "amount",
          "type": "uint256"
        }
      ],
      "name": "Request",
      "type": "event"
    },
    {
      "inputs": [],
      "name": "feeRate",
      "outputs": [
        {
          "internalType": "uint256",
          "name": "",
          "type": "uint256"
        }
      ],
      "stateMutability": "view",
      "type": "function"
    },
    {
      "inputs": [],
      "name": "fundAddress",
      "outputs": [
        {
          "internalType": "address",
          "name": "",
          "type": "address"
        }
      ],
      "stateMutability": "view",
      "type": "function"
    },
    {
      "inputs": [],
      "name": "owner",
      "outputs": [
        {
          "internalType": "address",
          "name": "",
          "type": "address"
        }
      ],
      "stateMutability": "view",
      "type": "function"
    },
    {
      "inputs": [
        {
          "internalType": "address",
          "name": "",
          "type": "address"
        },
        {
          "internalType": "address",
          "name": "",
          "type": "address"
        }
      ],
      "name": "pendingBounty",
      "outputs": [
        {
          "internalType": "uint256",
          "name": "",
          "type": "uint256"
        }
      ],
      "stateMutability": "view",
      "type": "function"
    },
    {
      "inputs": [],
      "name": "renounceOwnership",
      "outputs": [],
      "stateMutability": "nonpayable",
      "type": "function"
    },
    {
      "inputs": [
        {
          "internalType": "address",
          "name": "",
          "type": "address"
        }
      ],
      "name": "tokenOwner",
      "outputs": [
        {
          "internalType": "address",
          "name": "",
          "type": "address"
        }
      ],
      "stateMutability": "view",
      "type": "function"
    },
    {
      "inputs": [
        {
          "internalType": "address",
          "name": "newOwner",
          "type": "address"
        }
      ],
      "name": "transferOwnership",
      "outputs": [],
      "stateMutability": "nonpayable",
      "type": "function"
    },
    {
      "inputs": [
        {
          "internalType": "address",
          "name": "_fundAddress",
          "type": "address"
        },
        {
          "internalType": "uint256",
          "name": "_feeRate",
          "type": "uint256"
        }
      ],
      "name": "updateFee",
      "outputs": [],
      "stateMutability": "nonpayable",
      "type": "function"
    },
    {
      "inputs": [
        {
          "internalType": "address",
          "name": "tokenAddress",
          "type": "address"
        },
        {
          "internalType": "address",
          "name": "newOwner",
          "type": "address"
        }
      ],
      "name": "updateTokenOwner",
      "outputs": [],
      "stateMutability": "nonpayable",
      "type": "function"
    },
    {
      "inputs": [
        {
          "internalType": "address",
          "name": "tokenAddress",
          "type": "address"
        },
        {
          "internalType": "uint256",
          "name": "amount",
          "type": "uint256"
        }
      ],
      "name": "request",
      "outputs": [],
      "stateMutability": "nonpayable",
      "type": "function"
    },
    {
      "inputs": [
        {
          "internalType": "address",
          "name": "tokenAddress",
          "type": "address"
        },
        {
          "internalType": "uint256",
          "name": "amount",
          "type": "uint256"
        }
      ],
      "name": "refund",
      "outputs": [],
      "stateMutability": "nonpayable",
      "type": "function"
    },
    {
      "inputs": [
        {
          "internalType": "address",
          "name": "tokenAddress",
          "type": "address"
        },
        {
          "internalType": "address",
          "name": "requester",
          "type": "address"
        },
        {
          "internalType": "uint256",
          "name": "amount",
          "type": "uint256"
        }
      ],
      "name": "accept",
      "outputs": [],
      "stateMutability": "nonpayable",
      "type": "function"
    }
  ],
  "bytecode": "0x60806040526101f46001556000600260006101000a81548173ffffffffffffffffffffffffffffffffffffffff021916908373ffffffffffffffffffffffffffffffffffffffff16021790555034801561005857600080fd5b5061007561006a61007a60201b60201c565b61008260201b60201c565b610146565b600033905090565b60008060009054906101000a900473ffffffffffffffffffffffffffffffffffffffff169050816000806101000a81548173ffffffffffffffffffffffffffffffffffffffff021916908373ffffffffffffffffffffffffffffffffffffffff1602179055508173ffffffffffffffffffffffffffffffffffffffff168173ffffffffffffffffffffffffffffffffffffffff167f8be0079c531659141344cd1fd0a4f28419497f9722a3daafe3b4186f6b6457e060405160405180910390a35050565b61190f806101556000396000f3fe608060405234801561001057600080fd5b50600436106100b45760003560e01c80638da5cb5b116100715780638da5cb5b1461017757806394be719714610195578063978bbdb9146101b1578063c8c01a55146101cf578063e82bef29146101eb578063f2fde38b14610209576100b4565b80630be41a4b146100b95780633ab69b62146100e9578063410085df146101195780636f8f0dbd14610135578063715018a614610151578063861151651461015b575b600080fd5b6100d360048036038101906100ce9190611064565b610225565b6040516100e091906110bd565b60405180910390f35b61010360048036038101906100fe91906110d8565b61024a565b6040516101109190611114565b60405180910390f35b610133600480360381019061012e919061115b565b61027d565b005b61014f600480360381019061014a9190611064565b6104e7565b005b6101596105e5565b005b6101756004803603810190610170919061119b565b61066d565b005b61017f610ab0565b60405161018c9190611114565b60405180910390f35b6101af60048036038101906101aa919061115b565b610ad9565b005b6101b9610ba1565b6040516101c691906110bd565b60405180910390f35b6101e960048036038101906101e4919061115b565b610ba7565b005b6101f3610e18565b6040516102009190611114565b60405180910390f35b610223600480360381019061021e91906110d8565b610e3e565b005b6003602052816000526040600020602052806000526040600020600091509150505481565b60046020528060005260406000206000915054906101000a900473ffffffffffffffffffffffffffffffffffffffff1681565b80600360008473ffffffffffffffffffffffffffffffffffffffff1673ffffffffffffffffffffffffffffffffffffffff16815260200190815260200160002060006102c7610f35565b73ffffffffffffffffffffffffffffffffffffffff1673ffffffffffffffffffffffffffffffffffffffff168152602001908152602001600020541015610343576040517f08c379a000000000000000000000000000000000000000000000000000000000815260040161033a9061124b565b60405180910390fd5b80600360008473ffffffffffffffffffffffffffffffffffffffff1673ffffffffffffffffffffffffffffffffffffffff168152602001908152602001600020600061038d610f35565b73ffffffffffffffffffffffffffffffffffffffff1673ffffffffffffffffffffffffffffffffffffffff16815260200190815260200160002060008282546103d6919061129a565b925050819055508173ffffffffffffffffffffffffffffffffffffffff1663a9059cbb610401610f35565b836040518363ffffffff1660e01b815260040161041f9291906112ce565b6020604051808303816000875af115801561043e573d6000803e3d6000fd5b505050506040513d601f19601f82011682018060405250810190610462919061132f565b6104a1576040517f08c379a0000000000000000000000000000000000000000000000000000000008152600401610498906113a8565b60405180910390fd5b7ff40cc8c1a1d17359049ba500cfc894596a692cffc9d03943cd92ec2e159cf6ae826104cb610f35565b836040516104db939291906113c8565b60405180910390a15050565b6104ef610f35565b73ffffffffffffffffffffffffffffffffffffffff1661050d610ab0565b73ffffffffffffffffffffffffffffffffffffffff1614610563576040517f08c379a000000000000000000000000000000000000000000000000000000000815260040161055a9061144b565b60405180910390fd5b80600460008473ffffffffffffffffffffffffffffffffffffffff1673ffffffffffffffffffffffffffffffffffffffff16815260200190815260200160002060006101000a81548173ffffffffffffffffffffffffffffffffffffffff021916908373ffffffffffffffffffffffffffffffffffffffff1602179055505050565b6105ed610f35565b73ffffffffffffffffffffffffffffffffffffffff1661060b610ab0565b73ffffffffffffffffffffffffffffffffffffffff1614610661576040517f08c379a00000000000000000000000000000000000000000000000000000000081526004016106589061144b565b60405180910390fd5b61066b6000610f3d565b565b600460008473ffffffffffffffffffffffffffffffffffffffff1673ffffffffffffffffffffffffffffffffffffffff16815260200190815260200160002060009054906101000a900473ffffffffffffffffffffffffffffffffffffffff1673ffffffffffffffffffffffffffffffffffffffff166106eb610f35565b73ffffffffffffffffffffffffffffffffffffffff1614610741576040517f08c379a0000000000000000000000000000000000000000000000000000000008152600401610738906114b7565b60405180910390fd5b80600360008573ffffffffffffffffffffffffffffffffffffffff1673ffffffffffffffffffffffffffffffffffffffff16815260200190815260200160002060008473ffffffffffffffffffffffffffffffffffffffff1673ffffffffffffffffffffffffffffffffffffffff168152602001908152602001600020541015610800576040517f08c379a00000000000000000000000000000000000000000000000000000000081526004016107f79061124b565b60405180910390fd5b80600360008573ffffffffffffffffffffffffffffffffffffffff1673ffffffffffffffffffffffffffffffffffffffff16815260200190815260200160002060008473ffffffffffffffffffffffffffffffffffffffff1673ffffffffffffffffffffffffffffffffffffffff168152602001908152602001600020600082825461088c919061129a565b9250508190555060008390506000612710600154846108ab91906114d7565b6108b59190611560565b90508173ffffffffffffffffffffffffffffffffffffffff1663a9059cbb6108db610f35565b83866108e7919061129a565b6040518363ffffffff1660e01b81526004016109049291906112ce565b6020604051808303816000875af1158015610923573d6000803e3d6000fd5b505050506040513d601f19601f82011682018060405250810190610947919061132f565b610986576040517f08c379a000000000000000000000000000000000000000000000000000000000815260040161097d906115dd565b60405180910390fd5b8173ffffffffffffffffffffffffffffffffffffffff1663a9059cbb600260009054906101000a900473ffffffffffffffffffffffffffffffffffffffff16836040518363ffffffff1660e01b81526004016109e39291906112ce565b6020604051808303816000875af1158015610a02573d6000803e3d6000fd5b505050506040513d601f19601f82011682018060405250810190610a26919061132f565b610a65576040517f08c379a0000000000000000000000000000000000000000000000000000000008152600401610a5c90611649565b60405180910390fd5b7fda9779fcb0d51eda0852e8172357653d7410f9e98114dff346e212ad9991a5508585610a90610f35565b86604051610aa19493929190611669565b60405180910390a15050505050565b60008060009054906101000a900473ffffffffffffffffffffffffffffffffffffffff16905090565b610ae1610f35565b73ffffffffffffffffffffffffffffffffffffffff16610aff610ab0565b73ffffffffffffffffffffffffffffffffffffffff1614610b55576040517f08c379a0000000000000000000000000000000000000000000000000000000008152600401610b4c9061144b565b60405180910390fd5b81600260006101000a81548173ffffffffffffffffffffffffffffffffffffffff021916908373ffffffffffffffffffffffffffffffffffffffff160217905550806001819055505050565b60015481565b6000829050818173ffffffffffffffffffffffffffffffffffffffff1663dd62ed3e610bd1610f35565b306040518363ffffffff1660e01b8152600401610bef9291906116ae565b602060405180830381865afa158015610c0c573d6000803e3d6000fd5b505050506040513d601f19601f82011682018060405250810190610c3091906116ec565b1015610c71576040517f08c379a0000000000000000000000000000000000000000000000000000000008152600401610c6890611765565b60405180910390fd5b8073ffffffffffffffffffffffffffffffffffffffff166323b872dd610c95610f35565b30856040518463ffffffff1660e01b8152600401610cb5939291906113c8565b6020604051808303816000875af1158015610cd4573d6000803e3d6000fd5b505050506040513d601f19601f82011682018060405250810190610cf8919061132f565b610d37576040517f08c379a0000000000000000000000000000000000000000000000000000000008152600401610d2e906117d1565b60405180910390fd5b81600360008573ffffffffffffffffffffffffffffffffffffffff1673ffffffffffffffffffffffffffffffffffffffff1681526020019081526020016000206000610d81610f35565b73ffffffffffffffffffffffffffffffffffffffff1673ffffffffffffffffffffffffffffffffffffffff1681526020019081526020016000206000828254610dca91906117f1565b925050819055507f199889bb68377137835ceba2106404907a1747d53227634bb4a6b613800e3cb383610dfb610f35565b84604051610e0b939291906113c8565b60405180910390a1505050565b600260009054906101000a900473ffffffffffffffffffffffffffffffffffffffff1681565b610e46610f35565b73ffffffffffffffffffffffffffffffffffffffff16610e64610ab0565b73ffffffffffffffffffffffffffffffffffffffff1614610eba576040517f08c379a0000000000000000000000000000000000000000000000000000000008152600401610eb19061144b565b60405180910390fd5b600073ffffffffffffffffffffffffffffffffffffffff168173ffffffffffffffffffffffffffffffffffffffff1603610f29576040517f08c379a0000000000000000000000000000000000000000000000000000000008152600401610f20906118b9565b60405180910390fd5b610f3281610f3d565b50565b600033905090565b60008060009054906101000a900473ffffffffffffffffffffffffffffffffffffffff169050816000806101000a81548173ffffffffffffffffffffffffffffffffffffffff021916908373ffffffffffffffffffffffffffffffffffffffff1602179055508173ffffffffffffffffffffffffffffffffffffffff168173ffffffffffffffffffffffffffffffffffffffff167f8be0079c531659141344cd1fd0a4f28419497f9722a3daafe3b4186f6b6457e060405160405180910390a35050565b600080fd5b600073ffffffffffffffffffffffffffffffffffffffff82169050919050565b600061103182611006565b9050919050565b61104181611026565b811461104c57600080fd5b50565b60008135905061105e81611038565b92915050565b6000806040838503121561107b5761107a611001565b5b60006110898582860161104f565b925050602061109a8582860161104f565b9150509250929050565b6000819050919050565b6110b7816110a4565b82525050565b60006020820190506110d260008301846110ae565b92915050565b6000602082840312156110ee576110ed611001565b5b60006110fc8482850161104f565b91505092915050565b61110e81611026565b82525050565b60006020820190506111296000830184611105565b92915050565b611138816110a4565b811461114357600080fd5b50565b6000813590506111558161112f565b92915050565b6000806040838503121561117257611171611001565b5b60006111808582860161104f565b925050602061119185828601611146565b9150509250929050565b6000806000606084860312156111b4576111b3611001565b5b60006111c28682870161104f565b93505060206111d38682870161104f565b92505060406111e486828701611146565b9150509250925092565b600082825260208201905092915050565b7f414d4f554e545f4c494d49545f45584345454445440000000000000000000000600082015250565b60006112356015836111ee565b9150611240826111ff565b602082019050919050565b6000602082019050818103600083015261126481611228565b9050919050565b7f4e487b7100000000000000000000000000000000000000000000000000000000600052601160045260246000fd5b60006112a5826110a4565b91506112b0836110a4565b9250828210156112c3576112c261126b565b5b828203905092915050565b60006040820190506112e36000830185611105565b6112f060208301846110ae565b9392505050565b60008115159050919050565b61130c816112f7565b811461131757600080fd5b50565b60008151905061132981611303565b92915050565b60006020828403121561134557611344611001565b5b60006113538482850161131a565b91505092915050565b7f524546554e445f5452414e534645525f4641494c454400000000000000000000600082015250565b60006113926016836111ee565b915061139d8261135c565b602082019050919050565b600060208201905081810360008301526113c181611385565b9050919050565b60006060820190506113dd6000830186611105565b6113ea6020830185611105565b6113f760408301846110ae565b949350505050565b7f4f776e61626c653a2063616c6c6572206973206e6f7420746865206f776e6572600082015250565b60006114356020836111ee565b9150611440826113ff565b602082019050919050565b6000602082019050818103600083015261146481611428565b9050919050565b7f5045524d495353494f4e5f44454e494544000000000000000000000000000000600082015250565b60006114a16011836111ee565b91506114ac8261146b565b602082019050919050565b600060208201905081810360008301526114d081611494565b9050919050565b60006114e2826110a4565b91506114ed836110a4565b9250817fffffffffffffffffffffffffffffffffffffffffffffffffffffffffffffffff04831182151516156115265761152561126b565b5b828202905092915050565b7f4e487b7100000000000000000000000000000000000000000000000000000000600052601260045260246000fd5b600061156b826110a4565b9150611576836110a4565b92508261158657611585611531565b5b828204905092915050565b7f424f554e54595f5452414e534645525f4641494c454400000000000000000000600082015250565b60006115c76016836111ee565b91506115d282611591565b602082019050919050565b600060208201905081810360008301526115f6816115ba565b9050919050565b7f4645455f5452414e534645525f4641494c454400000000000000000000000000600082015250565b60006116336013836111ee565b915061163e826115fd565b602082019050919050565b6000602082019050818103600083015261166281611626565b9050919050565b600060808201905061167e6000830187611105565b61168b6020830186611105565b6116986040830185611105565b6116a560608301846110ae565b95945050505050565b60006040820190506116c36000830185611105565b6116d06020830184611105565b9392505050565b6000815190506116e68161112f565b92915050565b60006020828403121561170257611701611001565b5b6000611710848285016116d7565b91505092915050565b7f4e4f545f454e4f5547485f414c4c4f57414e4345000000000000000000000000600082015250565b600061174f6014836111ee565b915061175a82611719565b602082019050919050565b6000602082019050818103600083015261177e81611742565b9050919050565b7f544f4b454e5f5452414e534645525f4641494c45440000000000000000000000600082015250565b60006117bb6015836111ee565b91506117c682611785565b602082019050919050565b600060208201905081810360008301526117ea816117ae565b9050919050565b60006117fc826110a4565b9150611807836110a4565b9250827fffffffffffffffffffffffffffffffffffffffffffffffffffffffffffffffff0382111561183c5761183b61126b565b5b828201905092915050565b7f4f776e61626c653a206e6577206f776e657220697320746865207a65726f206160008201527f6464726573730000000000000000000000000000000000000000000000000000602082015250565b60006118a36026836111ee565b91506118ae82611847565b604082019050919050565b600060208201905081810360008301526118d281611896565b905091905056fea2646970667358221220dd912f140a446f659cf2444f9d184238a3747b9476641abb68dd9da0479441ef64736f6c634300080d0033",
  "immutableReferences": {},
  "source": "// SPDX-License-Identifier: MIT\r\n\r\npragma solidity ^0.8.9;\r\n\r\nimport \"@openzeppelin/contracts/access/Ownable.sol\";\r\nimport \"./MintClubToken.sol\";\r\n\r\n/**\r\n* @title Token Forwarder\r\n*\r\n* Receive tokens from requesters and keep it until the owner accept the request\r\n* Admin can change the owner address for tokens\r\n*/\r\ncontract Forwarder is Ownable {\r\n    uint256 public feeRate = 500; // 500 / 10,000 = 5% of bounty is taken when accepted\r\n    address public fundAddress = address(0);\r\n\r\n    // Token => Requester => bountyAmount\r\n    mapping (address => mapping (address => uint256)) public pendingBounty;\r\n\r\n    // Token => Owner\r\n    mapping (address => address) public tokenOwner;\r\n\r\n    event Request(address tokenAddress, address requester, uint256 amount);\r\n    event Refund(address tokenAddress, address requester, uint256 amount);\r\n    event Accept(address tokenAddress, address requester, address owner, uint256 amount);\r\n\r\n    function updateFee(address _fundAddress, uint256 _feeRate) external onlyOwner {\r\n        fundAddress = _fundAddress;\r\n        feeRate = _feeRate;\r\n    }\r\n\r\n    function updateTokenOwner(address tokenAddress, address newOwner) external onlyOwner {\r\n        tokenOwner[tokenAddress] = newOwner;\r\n    }\r\n\r\n    function request(address tokenAddress, uint256 amount) external {\r\n        MintClubToken token = MintClubToken(tokenAddress);\r\n        require(token.allowance(_msgSender(), address(this)) >= amount, 'NOT_ENOUGH_ALLOWANCE');\r\n\r\n        require(token.transferFrom(_msgSender(), address(this), amount), 'TOKEN_TRANSFER_FAILED');\r\n        pendingBounty[tokenAddress][_msgSender()] += amount;\r\n\r\n        emit Request(tokenAddress, _msgSender(), amount);\r\n    }\r\n\r\n    function refund(address tokenAddress, uint256 amount) external {\r\n        require(pendingBounty[tokenAddress][_msgSender()] >= amount, 'AMOUNT_LIMIT_EXCEEDED');\r\n\r\n        pendingBounty[tokenAddress][_msgSender()] -= amount;\r\n        require(MintClubToken(tokenAddress).transfer(_msgSender(), amount), 'REFUND_TRANSFER_FAILED');\r\n\r\n        emit Refund(tokenAddress, _msgSender(), amount);\r\n    }\r\n\r\n    function accept(address tokenAddress, address requester, uint256 amount) external {\r\n        require(_msgSender() == tokenOwner[tokenAddress], 'PERMISSION_DENIED');\r\n        require(pendingBounty[tokenAddress][requester] >= amount, 'AMOUNT_LIMIT_EXCEEDED');\r\n\r\n        pendingBounty[tokenAddress][requester] -= amount;\r\n\r\n        MintClubToken token = MintClubToken(tokenAddress);\r\n        uint256 fee = amount * feeRate / 10000;\r\n\r\n        require(token.transfer(_msgSender(), amount - fee), 'BOUNTY_TRANSFER_FAILED');\r\n        require(token.transfer(fundAddress, fee), 'FEE_TRANSFER_FAILED');\r\n\r\n        emit Accept(tokenAddress, requester, _msgSender(), amount);\r\n    }\r\n}",
  "sourcePath": "C:/Users/Gunner/Desktop/ChangeTheBlock/tmr-api/src/smart-contracts/contracts/Forwarder.sol",
  "compiler": {
    "name": "solc",
    "version": "0.8.13+commit.abaa5c0e.Emscripten.clang"
  },
  "schemaVersion": "3.3.4",
  "updatedAt": "2022-03-23T18:20:14.584Z",
  "devdoc": {
    "kind": "dev",
    "methods": {
      "owner()": {
        "details": "Returns the address of the current owner."
      },
      "renounceOwnership()": {
        "details": "Leaves the contract without owner. It will not be possible to call `onlyOwner` functions anymore. Can only be called by the current owner. NOTE: Renouncing ownership will leave the contract without an owner, thereby removing any functionality that is only available to the owner."
      },
      "transferOwnership(address)": {
        "details": "Transfers ownership of the contract to a new account (`newOwner`). Can only be called by the current owner."
      }
    },
    "title": "Token Forwarder Receive tokens from requesters and keep it until the owner accept the request Admin can change the owner address for tokens",
    "version": 1
  },
  "userdoc": {
    "kind": "user",
    "methods": {},
    "version": 1
  }
}