{
  "contractName": "MintClubBond",
  "abi": [
    {
      "inputs": [
        {
          "internalType": "address",
          "name": "baseToken",
          "type": "address"
        },
        {
          "internalType": "address",
          "name": "implementation",
          "type": "address"
        }
      ],
      "stateMutability": "nonpayable",
      "type": "constructor"
    },
    {
      "anonymous": false,
      "inputs": [
        {
          "indexed": false,
          "internalType": "address",
          "name": "tokenAddress",
          "type": "address"
        },
        {
          "indexed": false,
          "internalType": "address",
          "name": "buyer",
          "type": "address"
        },
        {
          "indexed": false,
          "internalType": "uint256",
          "name": "amountMinted",
          "type": "uint256"
        },
        {
          "indexed": false,
          "internalType": "uint256",
          "name": "reserveAmount",
          "type": "uint256"
        },
        {
          "indexed": false,
          "internalType": "address",
          "name": "beneficiary",
          "type": "address"
        },
        {
          "indexed": false,
          "internalType": "uint256",
          "name": "taxAmount",
          "type": "uint256"
        }
      ],
      "name": "Buy",
      "type": "event"
    },
    {
      "anonymous": false,
      "inputs": [
        {
          "indexed": false,
          "internalType": "address",
          "name": "tokenImplementation",
          "type": "address"
        }
      ],
      "name": "ImplementationUpdated",
      "type": "event"
    },
    {
      "anonymous": false,
      "inputs": [
        {
          "indexed": true,
          "internalType": "address",
          "name": "previousOwner",
          "type": "address"
        },
        {
          "indexed": true,
          "internalType": "address",
          "name": "newOwner",
          "type": "address"
        }
      ],
      "name": "OwnershipTransferred",
      "type": "event"
    },
    {
      "anonymous": false,
      "inputs": [
        {
          "indexed": false,
          "internalType": "address",
          "name": "tokenAddress",
          "type": "address"
        },
        {
          "indexed": false,
          "internalType": "address",
          "name": "seller",
          "type": "address"
        },
        {
          "indexed": false,
          "internalType": "uint256",
          "name": "amountBurned",
          "type": "uint256"
        },
        {
          "indexed": false,
          "internalType": "uint256",
          "name": "refundAmount",
          "type": "uint256"
        },
        {
          "indexed": false,
          "internalType": "address",
          "name": "beneficiary",
          "type": "address"
        },
        {
          "indexed": false,
          "internalType": "uint256",
          "name": "taxAmount",
          "type": "uint256"
        }
      ],
      "name": "Sell",
      "type": "event"
    },
    {
      "anonymous": false,
      "inputs": [
        {
          "indexed": false,
          "internalType": "address",
          "name": "tokenAddress",
          "type": "address"
        },
        {
          "indexed": false,
          "internalType": "string",
          "name": "name",
          "type": "string"
        },
        {
          "indexed": false,
          "internalType": "string",
          "name": "symbol",
          "type": "string"
        },
        {
          "indexed": false,
          "internalType": "uint256",
          "name": "maxTokenSupply",
          "type": "uint256"
        }
      ],
      "name": "TokenCreated",
      "type": "event"
    },
    {
      "inputs": [
        {
          "internalType": "string",
          "name": "name",
          "type": "string"
        },
        {
          "internalType": "string",
          "name": "symbol",
          "type": "string"
        },
        {
          "internalType": "uint256",
          "name": "maxTokenSupply",
          "type": "uint256"
        }
      ],
      "name": "createToken",
      "outputs": [
        {
          "internalType": "address",
          "name": "",
          "type": "address"
        }
      ],
      "stateMutability": "nonpayable",
      "type": "function"
    },
    {
      "inputs": [],
      "name": "defaultBeneficiary",
      "outputs": [
        {
          "internalType": "address",
          "name": "",
          "type": "address"
        }
      ],
      "stateMutability": "view",
      "type": "function"
    },
    {
      "inputs": [
        {
          "internalType": "address",
          "name": "tokenAddress",
          "type": "address"
        }
      ],
      "name": "exists",
      "outputs": [
        {
          "internalType": "bool",
          "name": "",
          "type": "bool"
        }
      ],
      "stateMutability": "view",
      "type": "function"
    },
    {
      "inputs": [
        {
          "internalType": "address",
          "name": "",
          "type": "address"
        }
      ],
      "name": "maxSupply",
      "outputs": [
        {
          "internalType": "uint256",
          "name": "",
          "type": "uint256"
        }
      ],
      "stateMutability": "view",
      "type": "function"
    },
    {
      "inputs": [],
      "name": "owner",
      "outputs": [
        {
          "internalType": "address",
          "name": "",
          "type": "address"
        }
      ],
      "stateMutability": "view",
      "type": "function"
    },
    {
      "inputs": [],
      "name": "renounceOwnership",
      "outputs": [],
      "stateMutability": "nonpayable",
      "type": "function"
    },
    {
      "inputs": [
        {
          "internalType": "address",
          "name": "",
          "type": "address"
        }
      ],
      "name": "reserveBalance",
      "outputs": [
        {
          "internalType": "uint256",
          "name": "",
          "type": "uint256"
        }
      ],
      "stateMutability": "view",
      "type": "function"
    },
    {
      "inputs": [],
      "name": "tokenCount",
      "outputs": [
        {
          "internalType": "uint256",
          "name": "",
          "type": "uint256"
        }
      ],
      "stateMutability": "view",
      "type": "function"
    },
    {
      "inputs": [],
      "name": "tokenImplementation",
      "outputs": [
        {
          "internalType": "address",
          "name": "",
          "type": "address"
        }
      ],
      "stateMutability": "view",
      "type": "function"
    },
    {
      "inputs": [
        {
          "internalType": "uint256",
          "name": "",
          "type": "uint256"
        }
      ],
      "name": "tokens",
      "outputs": [
        {
          "internalType": "address",
          "name": "",
          "type": "address"
        }
      ],
      "stateMutability": "view",
      "type": "function"
    },
    {
      "inputs": [
        {
          "internalType": "address",
          "name": "newOwner",
          "type": "address"
        }
      ],
      "name": "transferOwnership",
      "outputs": [],
      "stateMutability": "nonpayable",
      "type": "function"
    },
    {
      "inputs": [
        {
          "internalType": "address",
          "name": "implementation",
          "type": "address"
        }
      ],
      "name": "updateTokenImplementation",
      "outputs": [],
      "stateMutability": "nonpayable",
      "type": "function"
    },
    {
      "inputs": [],
      "name": "reserveTokenAddress",
      "outputs": [
        {
          "internalType": "address",
          "name": "",
          "type": "address"
        }
      ],
      "stateMutability": "view",
      "type": "function"
    },
    {
      "inputs": [
        {
          "internalType": "address",
          "name": "beneficiary",
          "type": "address"
        }
      ],
      "name": "setDefaultBeneficiary",
      "outputs": [],
      "stateMutability": "nonpayable",
      "type": "function"
    },
    {
      "inputs": [
        {
          "internalType": "address",
          "name": "tokenAddress",
          "type": "address"
        }
      ],
      "name": "currentPrice",
      "outputs": [
        {
          "internalType": "uint256",
          "name": "",
          "type": "uint256"
        }
      ],
      "stateMutability": "view",
      "type": "function"
    },
    {
      "inputs": [
        {
          "internalType": "string",
          "name": "name",
          "type": "string"
        },
        {
          "internalType": "string",
          "name": "symbol",
          "type": "string"
        },
        {
          "internalType": "uint256",
          "name": "maxTokenSupply",
          "type": "uint256"
        },
        {
          "internalType": "uint256",
          "name": "reserveAmount",
          "type": "uint256"
        },
        {
          "internalType": "address",
          "name": "beneficiary",
          "type": "address"
        }
      ],
      "name": "createAndBuy",
      "outputs": [],
      "stateMutability": "nonpayable",
      "type": "function"
    },
    {
      "inputs": [
        {
          "internalType": "address",
          "name": "tokenAddress",
          "type": "address"
        },
        {
          "internalType": "uint256",
          "name": "reserveAmount",
          "type": "uint256"
        }
      ],
      "name": "getMintReward",
      "outputs": [
        {
          "internalType": "uint256",
          "name": "",
          "type": "uint256"
        },
        {
          "internalType": "uint256",
          "name": "",
          "type": "uint256"
        }
      ],
      "stateMutability": "view",
      "type": "function"
    },
    {
      "inputs": [
        {
          "internalType": "address",
          "name": "tokenAddress",
          "type": "address"
        },
        {
          "internalType": "uint256",
          "name": "tokenAmount",
          "type": "uint256"
        }
      ],
      "name": "getBurnRefund",
      "outputs": [
        {
          "internalType": "uint256",
          "name": "",
          "type": "uint256"
        },
        {
          "internalType": "uint256",
          "name": "",
          "type": "uint256"
        }
      ],
      "stateMutability": "view",
      "type": "function"
    },
    {
      "inputs": [
        {
          "internalType": "address",
          "name": "tokenAddress",
          "type": "address"
        },
        {
          "internalType": "uint256",
          "name": "reserveAmount",
          "type": "uint256"
        },
        {
          "internalType": "uint256",
          "name": "minReward",
          "type": "uint256"
        },
        {
          "internalType": "address",
          "name": "beneficiary",
          "type": "address"
        }
      ],
      "name": "buy",
      "outputs": [],
      "stateMutability": "nonpayable",
      "type": "function"
    },
    {
      "inputs": [
        {
          "internalType": "address",
          "name": "tokenAddress",
          "type": "address"
        },
        {
          "internalType": "uint256",
          "name": "tokenAmount",
          "type": "uint256"
        },
        {
          "internalType": "uint256",
          "name": "minRefund",
          "type": "uint256"
        },
        {
          "internalType": "address",
          "name": "beneficiary",
          "type": "address"
        }
      ],
      "name": "sell",
      "outputs": [],
      "stateMutability": "nonpayable",
      "type": "function"
    }
  ],
  "bytecode": "0x60806040523480156200001157600080fd5b5060405162002e4338038062002e43833981810160405281019062000037919062000407565b80620000586200004c6200010860201b60201c565b6200011060201b60201c565b6200006981620001d460201b60201c565b5081600560006101000a81548173ffffffffffffffffffffffffffffffffffffffff021916908373ffffffffffffffffffffffffffffffffffffffff1602179055507382ca6d313bffe56e9096b16633dfd414148d66b1600660006101000a81548173ffffffffffffffffffffffffffffffffffffffff021916908373ffffffffffffffffffffffffffffffffffffffff160217905550505062000571565b600033905090565b60008060009054906101000a900473ffffffffffffffffffffffffffffffffffffffff169050816000806101000a81548173ffffffffffffffffffffffffffffffffffffffff021916908373ffffffffffffffffffffffffffffffffffffffff1602179055508173ffffffffffffffffffffffffffffffffffffffff168173ffffffffffffffffffffffffffffffffffffffff167f8be0079c531659141344cd1fd0a4f28419497f9722a3daafe3b4186f6b6457e060405160405180910390a35050565b620001e46200010860201b60201c565b73ffffffffffffffffffffffffffffffffffffffff166200020a6200037460201b60201c565b73ffffffffffffffffffffffffffffffffffffffff161462000263576040517f08c379a00000000000000000000000000000000000000000000000000000000081526004016200025a90620004af565b60405180910390fd5b600073ffffffffffffffffffffffffffffffffffffffff168173ffffffffffffffffffffffffffffffffffffffff1603620002d5576040517f08c379a0000000000000000000000000000000000000000000000000000000008152600401620002cc9062000521565b60405180910390fd5b80600160006101000a81548173ffffffffffffffffffffffffffffffffffffffff021916908373ffffffffffffffffffffffffffffffffffffffff1602179055507f310ba5f1d2ed074b51e2eccd052a47ae9ab7c6b800d1fca3db3999d6a592ca03600160009054906101000a900473ffffffffffffffffffffffffffffffffffffffff1660405162000369919062000554565b60405180910390a150565b60008060009054906101000a900473ffffffffffffffffffffffffffffffffffffffff16905090565b600080fd5b600073ffffffffffffffffffffffffffffffffffffffff82169050919050565b6000620003cf82620003a2565b9050919050565b620003e181620003c2565b8114620003ed57600080fd5b50565b6000815190506200040181620003d6565b92915050565b600080604083850312156200042157620004206200039d565b5b60006200043185828601620003f0565b92505060206200044485828601620003f0565b9150509250929050565b600082825260208201905092915050565b7f4f776e61626c653a2063616c6c6572206973206e6f7420746865206f776e6572600082015250565b6000620004976020836200044e565b9150620004a4826200045f565b602082019050919050565b60006020820190508181036000830152620004ca8162000488565b9050919050565b7f494d504c454d454e544154494f4e5f43414e4e4f545f42455f4e554c4c000000600082015250565b600062000509601d836200044e565b91506200051682620004d1565b602082019050919050565b600060208201905081810360008301526200053c81620004fa565b9050919050565b6200054e81620003c2565b82525050565b60006020820190506200056b600083018462000543565b92915050565b6128c280620005816000396000f3fe608060405234801561001057600080fd5b506004361061012c5760003560e01c80639f181b5e116100ad578063e9833c2f11610071578063e9833c2f14610330578063eb0cf64d14610360578063ee1ea4ff14610391578063f2fde38b146103af578063f6a3d24e146103cb5761012c565b80639f181b5e1461028e578063c60b8d58146102ac578063d20dd349146102c8578063daa43499146102e4578063dc8de379146103005761012c565b806354ab58af116100f457806354ab58af146101e85780635b06053014610206578063715018a6146102365780638da5cb5b146102405780639cc7becf1461025e5761012c565b80632dc8f867146101315780632f3a3d5d1461014d57806337430a511461016b5780633f60b6331461019c5780634f64b2be146101b8575b600080fd5b61014b60048036038101906101469190611a64565b6103fb565b005b610155610799565b6040516101629190611ada565b60405180910390f35b61018560048036038101906101809190611af5565b6107bf565b604051610193929190611b44565b60405180910390f35b6101b660048036038101906101b19190611a64565b61096b565b005b6101d260048036038101906101cd9190611b6d565b610d1f565b6040516101df9190611ada565b60405180910390f35b6101f0610d5e565b6040516101fd9190611ada565b60405180910390f35b610220600480360381019061021b9190611ce0565b610d84565b60405161022d9190611ada565b60405180910390f35b61023e610fa6565b005b61024861102e565b6040516102559190611ada565b60405180910390f35b61027860048036038101906102739190611d6b565b611057565b6040516102859190611d98565b60405180910390f35b61029661106f565b6040516102a39190611d98565b60405180910390f35b6102c660048036038101906102c19190611db3565b61107c565b005b6102e260048036038101906102dd9190611d6b565b6110a0565b005b6102fe60048036038101906102f99190611d6b565b611228565b005b61031a60048036038101906103159190611d6b565b611357565b6040516103279190611d98565b60405180910390f35b61034a60048036038101906103459190611d6b565b61136f565b6040516103579190611d98565b60405180910390f35b61037a60048036038101906103759190611af5565b61146b565b604051610388929190611b44565b60405180910390f35b610399611695565b6040516103a69190611ada565b60405180910390f35b6103c960048036038101906103c49190611d6b565b6116bf565b005b6103e560048036038101906103e09190611d6b565b6117b6565b6040516103f29190611e81565b60405180910390f35b60008061040886866107bf565b915091508382101561044f576040517f08c379a000000000000000000000000000000000000000000000000000000000815260040161044690611ef9565b60405180910390fd5b8573ffffffffffffffffffffffffffffffffffffffff166379cc6790610473611801565b876040518363ffffffff1660e01b8152600401610491929190611f19565b600060405180830381600087803b1580156104ab57600080fd5b505af11580156104bf573d6000803e3d6000fd5b5050505080826104cf9190611f71565b600460008873ffffffffffffffffffffffffffffffffffffffff1673ffffffffffffffffffffffffffffffffffffffff168152602001908152602001600020600082825461051d9190611fc7565b92505081905550600560009054906101000a900473ffffffffffffffffffffffffffffffffffffffff1673ffffffffffffffffffffffffffffffffffffffff1663a9059cbb61056a611801565b846040518363ffffffff1660e01b8152600401610588929190611f19565b6020604051808303816000875af11580156105a7573d6000803e3d6000fd5b505050506040513d601f19601f820116820180604052508101906105cb9190612027565b61060a576040517f08c379a0000000000000000000000000000000000000000000000000000000008152600401610601906120a0565b60405180910390fd5b6000839050600073ffffffffffffffffffffffffffffffffffffffff168473ffffffffffffffffffffffffffffffffffffffff16148061067c575061064d611801565b73ffffffffffffffffffffffffffffffffffffffff168473ffffffffffffffffffffffffffffffffffffffff16145b156106a757600660009054906101000a900473ffffffffffffffffffffffffffffffffffffffff1690505b600560009054906101000a900473ffffffffffffffffffffffffffffffffffffffff1673ffffffffffffffffffffffffffffffffffffffff1663a9059cbb82846040518363ffffffff1660e01b8152600401610704929190611f19565b6020604051808303816000875af1158015610723573d6000803e3d6000fd5b505050506040513d601f19601f820116820180604052508101906107479190612027565b507faf3add10310b906b5d302a1b317dec15cedffe6254bd570e2f71f0dba500040887610772611801565b88868587604051610788969594939291906120c0565b60405180910390a150505050505050565b600160009054906101000a900473ffffffffffffffffffffffffffffffffffffffff1681565b600080836000600360008373ffffffffffffffffffffffffffffffffffffffff1673ffffffffffffffffffffffffffffffffffffffff1681526020019081526020016000205411610845576040517f08c379a000000000000000000000000000000000000000000000000000000000815260040161083c9061216d565b60405180910390fd5b6000848673ffffffffffffffffffffffffffffffffffffffff166318160ddd6040518163ffffffff1660e01b8152600401602060405180830381865afa158015610893573d6000803e3d6000fd5b505050506040513d601f19601f820116820180604052508101906108b791906121a2565b6108c19190611fc7565b90506000671bc16d674ec800006002836108db919061230f565b6108e59190612389565b600460008973ffffffffffffffffffffffffffffffffffffffff1673ffffffffffffffffffffffffffffffffffffffff1681526020019081526020016000205461092f9190611fc7565b905060006103e8600d8361094391906123ba565b61094d9190612389565b9050808261095b9190611fc7565b8195509550505050509250929050565b600080610978868661146b565b91509150838210156109bf576040517f08c379a00000000000000000000000000000000000000000000000000000000081526004016109b690611ef9565b60405180910390fd5b600560009054906101000a900473ffffffffffffffffffffffffffffffffffffffff1673ffffffffffffffffffffffffffffffffffffffff166323b872dd610a05611801565b308489610a129190611fc7565b6040518463ffffffff1660e01b8152600401610a3093929190612414565b6020604051808303816000875af1158015610a4f573d6000803e3d6000fd5b505050506040513d601f19601f82011682018060405250810190610a739190612027565b610ab2576040517f08c379a0000000000000000000000000000000000000000000000000000000008152600401610aa9906120a0565b60405180910390fd5b8085610abe9190611fc7565b600460008873ffffffffffffffffffffffffffffffffffffffff1673ffffffffffffffffffffffffffffffffffffffff1681526020019081526020016000206000828254610b0c9190611f71565b925050819055508573ffffffffffffffffffffffffffffffffffffffff166340c10f19610b37611801565b846040518363ffffffff1660e01b8152600401610b55929190611f19565b600060405180830381600087803b158015610b6f57600080fd5b505af1158015610b83573d6000803e3d6000fd5b505050506000839050600073ffffffffffffffffffffffffffffffffffffffff168473ffffffffffffffffffffffffffffffffffffffff161480610bf95750610bca611801565b73ffffffffffffffffffffffffffffffffffffffff168473ffffffffffffffffffffffffffffffffffffffff16145b15610c2457600660009054906101000a900473ffffffffffffffffffffffffffffffffffffffff1690505b600560009054906101000a900473ffffffffffffffffffffffffffffffffffffffff1673ffffffffffffffffffffffffffffffffffffffff166323b872dd610c6a611801565b83856040518463ffffffff1660e01b8152600401610c8a93929190612414565b6020604051808303816000875af1158015610ca9573d6000803e3d6000fd5b505050506040513d601f19601f82011682018060405250810190610ccd9190612027565b507f7a758c3f267ecc5b9a5f17490ce833537dd367b341461622558f19f2ee043ea587610cf8611801565b85898587604051610d0e969594939291906120c0565b60405180910390a150505050505050565b60028181548110610d2f57600080fd5b906000526020600020016000915054906101000a900473ffffffffffffffffffffffffffffffffffffffff1681565b600660009054906101000a900473ffffffffffffffffffffffffffffffffffffffff1681565b6000808211610dc8576040517f08c379a0000000000000000000000000000000000000000000000000000000008152600401610dbf90612497565b60405180910390fd5b69d3c21bcecceda1000000821115610e15576040517f08c379a0000000000000000000000000000000000000000000000000000000008152600401610e0c90612503565b60405180910390fd5b6000610e42600160009054906101000a900473ffffffffffffffffffffffffffffffffffffffff16611809565b905060008190508073ffffffffffffffffffffffffffffffffffffffff16637029144c87876040518363ffffffff1660e01b8152600401610e8492919061259a565b600060405180830381600087803b158015610e9e57600080fd5b505af1158015610eb2573d6000803e3d6000fd5b505050506002829080600181540180825580915050600190039060005260206000200160009091909190916101000a81548173ffffffffffffffffffffffffffffffffffffffff021916908373ffffffffffffffffffffffffffffffffffffffff16021790555083600360008473ffffffffffffffffffffffffffffffffffffffff1673ffffffffffffffffffffffffffffffffffffffff168152602001908152602001600020819055507f75d1eb2d61d7e210835bc16e78ac4d0e4f905c108a81852a6b68c4d46b4f40f382878787604051610f9294939291906125d1565b60405180910390a181925050509392505050565b610fae611801565b73ffffffffffffffffffffffffffffffffffffffff16610fcc61102e565b73ffffffffffffffffffffffffffffffffffffffff1614611022576040517f08c379a000000000000000000000000000000000000000000000000000000000815260040161101990612670565b60405180910390fd5b61102c6000611873565b565b60008060009054906101000a900473ffffffffffffffffffffffffffffffffffffffff16905090565b60036020528060005260406000206000915090505481565b6000600280549050905090565b6000611089868686610d84565b9050611098818460008561096b565b505050505050565b6110a8611801565b73ffffffffffffffffffffffffffffffffffffffff166110c661102e565b73ffffffffffffffffffffffffffffffffffffffff161461111c576040517f08c379a000000000000000000000000000000000000000000000000000000000815260040161111390612670565b60405180910390fd5b600073ffffffffffffffffffffffffffffffffffffffff168173ffffffffffffffffffffffffffffffffffffffff160361118b576040517f08c379a0000000000000000000000000000000000000000000000000000000008152600401611182906126dc565b60405180910390fd5b80600160006101000a81548173ffffffffffffffffffffffffffffffffffffffff021916908373ffffffffffffffffffffffffffffffffffffffff1602179055507f310ba5f1d2ed074b51e2eccd052a47ae9ab7c6b800d1fca3db3999d6a592ca03600160009054906101000a900473ffffffffffffffffffffffffffffffffffffffff1660405161121d9190611ada565b60405180910390a150565b611230611801565b73ffffffffffffffffffffffffffffffffffffffff1661124e61102e565b73ffffffffffffffffffffffffffffffffffffffff16146112a4576040517f08c379a000000000000000000000000000000000000000000000000000000000815260040161129b90612670565b60405180910390fd5b600073ffffffffffffffffffffffffffffffffffffffff168173ffffffffffffffffffffffffffffffffffffffff1603611313576040517f08c379a000000000000000000000000000000000000000000000000000000000815260040161130a9061276e565b60405180910390fd5b80600660006101000a81548173ffffffffffffffffffffffffffffffffffffffff021916908373ffffffffffffffffffffffffffffffffffffffff16021790555050565b60046020528060005260406000206000915090505481565b6000816000600360008373ffffffffffffffffffffffffffffffffffffffff1673ffffffffffffffffffffffffffffffffffffffff16815260200190815260200160002054116113f4576040517f08c379a00000000000000000000000000000000000000000000000000000000081526004016113eb9061216d565b60405180910390fd5b8273ffffffffffffffffffffffffffffffffffffffff166318160ddd6040518163ffffffff1660e01b8152600401602060405180830381865afa15801561143f573d6000803e3d6000fd5b505050506040513d601f19601f8201168201806040525081019061146391906121a2565b915050919050565b600080836000600360008373ffffffffffffffffffffffffffffffffffffffff1673ffffffffffffffffffffffffffffffffffffffff16815260200190815260200160002054116114f1576040517f08c379a00000000000000000000000000000000000000000000000000000000081526004016114e89061216d565b60405180910390fd5b60006103e860038661150391906123ba565b61150d9190612389565b90506000611582600460008973ffffffffffffffffffffffffffffffffffffffff1673ffffffffffffffffffffffffffffffffffffffff1681526020019081526020016000205483886115609190611fc7565b61156a9190611f71565b671bc16d674ec8000061157d91906123ba565b611937565b905060008773ffffffffffffffffffffffffffffffffffffffff166318160ddd6040518163ffffffff1660e01b8152600401602060405180830381865afa1580156115d1573d6000803e3d6000fd5b505050506040513d601f19601f820116820180604052508101906115f591906121a2565b826116009190611fc7565b9050600360008973ffffffffffffffffffffffffffffffffffffffff1673ffffffffffffffffffffffffffffffffffffffff16815260200190815260200160002054821115611684576040517f08c379a000000000000000000000000000000000000000000000000000000000815260040161167b906127da565b60405180910390fd5b808395509550505050509250929050565b6000600560009054906101000a900473ffffffffffffffffffffffffffffffffffffffff16905090565b6116c7611801565b73ffffffffffffffffffffffffffffffffffffffff166116e561102e565b73ffffffffffffffffffffffffffffffffffffffff161461173b576040517f08c379a000000000000000000000000000000000000000000000000000000000815260040161173290612670565b60405180910390fd5b600073ffffffffffffffffffffffffffffffffffffffff168173ffffffffffffffffffffffffffffffffffffffff16036117aa576040517f08c379a00000000000000000000000000000000000000000000000000000000081526004016117a19061286c565b60405180910390fd5b6117b381611873565b50565b600080600360008473ffffffffffffffffffffffffffffffffffffffff1673ffffffffffffffffffffffffffffffffffffffff16815260200190815260200160002054119050919050565b600033905090565b6000808260601b90506040517f3d602d80600a3d3981f3363d3d373d3d3d363d7300000000000000000000000081528160148201527f5af43d82803e903d91602b57fd5bf3000000000000000000000000000000000060288201526037816000f092505050919050565b60008060009054906101000a900473ffffffffffffffffffffffffffffffffffffffff169050816000806101000a81548173ffffffffffffffffffffffffffffffffffffffff021916908373ffffffffffffffffffffffffffffffffffffffff1602179055508173ffffffffffffffffffffffffffffffffffffffff168173ffffffffffffffffffffffffffffffffffffffff167f8be0079c531659141344cd1fd0a4f28419497f9722a3daafe3b4186f6b6457e060405160405180910390a35050565b60008060016002846119499190612389565b6119539190611f71565b90506000600282856119659190612389565b836119709190611f71565b61197a9190612389565b90505b808211156119b257809150600282856119969190612389565b836119a19190611f71565b6119ab9190612389565b905061197d565b8192505050919050565b6000604051905090565b600080fd5b600080fd5b600073ffffffffffffffffffffffffffffffffffffffff82169050919050565b60006119fb826119d0565b9050919050565b611a0b816119f0565b8114611a1657600080fd5b50565b600081359050611a2881611a02565b92915050565b6000819050919050565b611a4181611a2e565b8114611a4c57600080fd5b50565b600081359050611a5e81611a38565b92915050565b60008060008060808587031215611a7e57611a7d6119c6565b5b6000611a8c87828801611a19565b9450506020611a9d87828801611a4f565b9350506040611aae87828801611a4f565b9250506060611abf87828801611a19565b91505092959194509250565b611ad4816119f0565b82525050565b6000602082019050611aef6000830184611acb565b92915050565b60008060408385031215611b0c57611b0b6119c6565b5b6000611b1a85828601611a19565b9250506020611b2b85828601611a4f565b9150509250929050565b611b3e81611a2e565b82525050565b6000604082019050611b596000830185611b35565b611b666020830184611b35565b9392505050565b600060208284031215611b8357611b826119c6565b5b6000611b9184828501611a4f565b91505092915050565b600080fd5b600080fd5b6000601f19601f8301169050919050565b7f4e487b7100000000000000000000000000000000000000000000000000000000600052604160045260246000fd5b611bed82611ba4565b810181811067ffffffffffffffff82111715611c0c57611c0b611bb5565b5b80604052505050565b6000611c1f6119bc565b9050611c2b8282611be4565b919050565b600067ffffffffffffffff821115611c4b57611c4a611bb5565b5b611c5482611ba4565b9050602081019050919050565b82818337600083830152505050565b6000611c83611c7e84611c30565b611c15565b905082815260208101848484011115611c9f57611c9e611b9f565b5b611caa848285611c61565b509392505050565b600082601f830112611cc757611cc6611b9a565b5b8135611cd7848260208601611c70565b91505092915050565b600080600060608486031215611cf957611cf86119c6565b5b600084013567ffffffffffffffff811115611d1757611d166119cb565b5b611d2386828701611cb2565b935050602084013567ffffffffffffffff811115611d4457611d436119cb565b5b611d5086828701611cb2565b9250506040611d6186828701611a4f565b9150509250925092565b600060208284031215611d8157611d806119c6565b5b6000611d8f84828501611a19565b91505092915050565b6000602082019050611dad6000830184611b35565b92915050565b600080600080600060a08688031215611dcf57611dce6119c6565b5b600086013567ffffffffffffffff811115611ded57611dec6119cb565b5b611df988828901611cb2565b955050602086013567ffffffffffffffff811115611e1a57611e196119cb565b5b611e2688828901611cb2565b9450506040611e3788828901611a4f565b9350506060611e4888828901611a4f565b9250506080611e5988828901611a19565b9150509295509295909350565b60008115159050919050565b611e7b81611e66565b82525050565b6000602082019050611e966000830184611e72565b92915050565b600082825260208201905092915050565b7f534c4950504147455f4c494d49545f4558434545444544000000000000000000600082015250565b6000611ee3601783611e9c565b9150611eee82611ead565b602082019050919050565b60006020820190508181036000830152611f1281611ed6565b9050919050565b6000604082019050611f2e6000830185611acb565b611f3b6020830184611b35565b9392505050565b7f4e487b7100000000000000000000000000000000000000000000000000000000600052601160045260246000fd5b6000611f7c82611a2e565b9150611f8783611a2e565b9250827fffffffffffffffffffffffffffffffffffffffffffffffffffffffffffffffff03821115611fbc57611fbb611f42565b5b828201905092915050565b6000611fd282611a2e565b9150611fdd83611a2e565b925082821015611ff057611fef611f42565b5b828203905092915050565b61200481611e66565b811461200f57600080fd5b50565b60008151905061202181611ffb565b92915050565b60006020828403121561203d5761203c6119c6565b5b600061204b84828501612012565b91505092915050565b7f524553455256455f544f4b454e5f5452414e534645525f4641494c4544000000600082015250565b600061208a601d83611e9c565b915061209582612054565b602082019050919050565b600060208201905081810360008301526120b98161207d565b9050919050565b600060c0820190506120d56000830189611acb565b6120e26020830188611acb565b6120ef6040830187611b35565b6120fc6060830186611b35565b6121096080830185611acb565b61211660a0830184611b35565b979650505050505050565b7f544f4b454e5f4e4f545f464f554e440000000000000000000000000000000000600082015250565b6000612157600f83611e9c565b915061216282612121565b602082019050919050565b600060208201905081810360008301526121868161214a565b9050919050565b60008151905061219c81611a38565b92915050565b6000602082840312156121b8576121b76119c6565b5b60006121c68482850161218d565b91505092915050565b60008160011c9050919050565b6000808291508390505b60018511156122265780860481111561220257612201611f42565b5b60018516156122115780820291505b808102905061221f856121cf565b94506121e6565b94509492505050565b60008261223f57600190506122fb565b8161224d57600090506122fb565b8160018114612263576002811461226d5761229c565b60019150506122fb565b60ff84111561227f5761227e611f42565b5b8360020a91508482111561229657612295611f42565b5b506122fb565b5060208310610133831016604e8410600b84101617156122d15782820a9050838111156122cc576122cb611f42565b5b6122fb565b6122de84848460016121dc565b925090508184048111156122f5576122f4611f42565b5b81810290505b9392505050565b600060ff82169050919050565b600061231a82611a2e565b915061232583612302565b92506123527fffffffffffffffffffffffffffffffffffffffffffffffffffffffffffffffff848461222f565b905092915050565b7f4e487b7100000000000000000000000000000000000000000000000000000000600052601260045260246000fd5b600061239482611a2e565b915061239f83611a2e565b9250826123af576123ae61235a565b5b828204905092915050565b60006123c582611a2e565b91506123d083611a2e565b9250817fffffffffffffffffffffffffffffffffffffffffffffffffffffffffffffffff048311821515161561240957612408611f42565b5b828202905092915050565b60006060820190506124296000830186611acb565b6124366020830185611acb565b6124436040830184611b35565b949350505050565b7f4d41585f535550504c595f4d5553545f42455f504f5349544956450000000000600082015250565b6000612481601b83611e9c565b915061248c8261244b565b602082019050919050565b600060208201905081810360008301526124b081612474565b9050919050565b7f4d41585f535550504c595f4c494d49545f455843454544454400000000000000600082015250565b60006124ed601983611e9c565b91506124f8826124b7565b602082019050919050565b6000602082019050818103600083015261251c816124e0565b9050919050565b600081519050919050565b60005b8381101561254c578082015181840152602081019050612531565b8381111561255b576000848401525b50505050565b600061256c82612523565b6125768185611e9c565b935061258681856020860161252e565b61258f81611ba4565b840191505092915050565b600060408201905081810360008301526125b48185612561565b905081810360208301526125c88184612561565b90509392505050565b60006080820190506125e66000830187611acb565b81810360208301526125f88186612561565b9050818103604083015261260c8185612561565b905061261b6060830184611b35565b95945050505050565b7f4f776e61626c653a2063616c6c6572206973206e6f7420746865206f776e6572600082015250565b600061265a602083611e9c565b915061266582612624565b602082019050919050565b600060208201905081810360008301526126898161264d565b9050919050565b7f494d504c454d454e544154494f4e5f43414e4e4f545f42455f4e554c4c000000600082015250565b60006126c6601d83611e9c565b91506126d182612690565b602082019050919050565b600060208201905081810360008301526126f5816126b9565b9050919050565b7f44454641554c545f42454e45464943494152595f43414e4e4f545f42455f4e5560008201527f4c4c000000000000000000000000000000000000000000000000000000000000602082015250565b6000612758602283611e9c565b9150612763826126fc565b604082019050919050565b600060208201905081810360008301526127878161274b565b9050919050565b7f45584345454445445f4d41585f535550504c5900000000000000000000000000600082015250565b60006127c4601383611e9c565b91506127cf8261278e565b602082019050919050565b600060208201905081810360008301526127f3816127b7565b9050919050565b7f4f776e61626c653a206e6577206f776e657220697320746865207a65726f206160008201527f6464726573730000000000000000000000000000000000000000000000000000602082015250565b6000612856602683611e9c565b9150612861826127fa565b604082019050919050565b6000602082019050818103600083015261288581612849565b905091905056fea26469706673582212209cacd439481bc50af8bda7a2d127b46fef94f4ce9d078cdfdb19662b1520370964736f6c634300080d0033",
  "immutableReferences": {},
  "source": "// SPDX-License-Identifier: MIT\r\n\r\npragma solidity ^0.8.3;\r\n\r\nimport \"@openzeppelin/contracts/token/ERC20/IERC20.sol\";\r\nimport \"./MintClubFactory.sol\";\r\nimport \"./MintClubToken.sol\";\r\nimport \"./lib/Math.sol\";\r\n\r\n/**\r\n* @title MintClub Bond\r\n*\r\n* Providing liquidity for MintClub tokens with a bonding curve.\r\n*/\r\ncontract MintClubBond is MintClubFactory {\r\n    uint256 private constant BUY_TAX = 3; // 0.3%\r\n    uint256 private constant SELL_TAX = 13; // 1.3%\r\n    uint256 private constant MAX_TAX = 1000;\r\n\r\n    // Token => Reserve Balance\r\n    mapping (address => uint256) public reserveBalance;\r\n\r\n    MintClubToken private RESERVE_TOKEN; // Any IERC20\r\n    address public defaultBeneficiary;\r\n\r\n    event Buy(address tokenAddress, address buyer, uint256 amountMinted, uint256 reserveAmount, address beneficiary, uint256 taxAmount);\r\n    event Sell(address tokenAddress, address seller, uint256 amountBurned, uint256 refundAmount, address beneficiary, uint256 taxAmount);\r\n\r\n    constructor(address baseToken, address implementation) MintClubFactory(implementation) {\r\n        RESERVE_TOKEN = MintClubToken(baseToken);\r\n        defaultBeneficiary = address(0x82CA6d313BffE56E9096b16633dfD414148D66b1);\r\n    }\r\n\r\n    modifier _checkBondExists(address tokenAddress) {\r\n        require(maxSupply[tokenAddress] > 0, \"TOKEN_NOT_FOUND\");\r\n        _;\r\n    }\r\n\r\n    // MARK: - Utility functions for external calls\r\n\r\n    function reserveTokenAddress() external view returns (address) {\r\n        return address(RESERVE_TOKEN);\r\n    }\r\n\r\n    function setDefaultBeneficiary(address beneficiary) external onlyOwner {\r\n        require(beneficiary != address(0), 'DEFAULT_BENEFICIARY_CANNOT_BE_NULL');\r\n        defaultBeneficiary = beneficiary;\r\n    }\r\n\r\n    function currentPrice(address tokenAddress) external view _checkBondExists(tokenAddress) returns (uint256) {\r\n        return MintClubToken(tokenAddress).totalSupply();\r\n    }\r\n\r\n    function createAndBuy(string memory name, string memory symbol, uint256 maxTokenSupply, uint256 reserveAmount, address beneficiary) external {\r\n        address newToken = createToken(name, symbol, maxTokenSupply);\r\n        buy(newToken, reserveAmount, 0, beneficiary);\r\n    }\r\n\r\n    /**\r\n     * @dev Use the simplest bonding curve (y = x) as we can adjust total supply of reserve tokens to adjust slope\r\n     * Price = SLOPE * totalSupply = totalSupply (where slope = 1)\r\n     */\r\n    function getMintReward(address tokenAddress, uint256 reserveAmount) public view _checkBondExists(tokenAddress) returns (uint256, uint256) {\r\n        uint256 taxAmount = reserveAmount * BUY_TAX / MAX_TAX;\r\n        uint256 newSupply = Math.floorSqrt(2 * 1e18 * ((reserveAmount - taxAmount) + reserveBalance[tokenAddress]));\r\n        uint256 toMint = newSupply - MintClubToken(tokenAddress).totalSupply();\r\n\r\n        require(newSupply <= maxSupply[tokenAddress], \"EXCEEDED_MAX_SUPPLY\");\r\n\r\n        return (toMint, taxAmount);\r\n    }\r\n\r\n    function getBurnRefund(address tokenAddress, uint256 tokenAmount) public view _checkBondExists(tokenAddress) returns (uint256, uint256) {\r\n        uint256 newTokenSupply = MintClubToken(tokenAddress).totalSupply() - tokenAmount;\r\n\r\n        // Should be the same as: (1/2 * (totalSupply**2 - newTokenSupply**2);\r\n        uint256 reserveAmount = reserveBalance[tokenAddress] - (newTokenSupply**2 / (2 * 1e18));\r\n        uint256 taxAmount = reserveAmount * SELL_TAX / MAX_TAX;\r\n\r\n        return (reserveAmount - taxAmount, taxAmount);\r\n    }\r\n\r\n    function buy(address tokenAddress, uint256 reserveAmount, uint256 minReward, address beneficiary) public {\r\n        (uint256 rewardTokens, uint256 taxAmount) = getMintReward(tokenAddress, reserveAmount);\r\n        require(rewardTokens >= minReward, \"SLIPPAGE_LIMIT_EXCEEDED\");\r\n\r\n        // Transfer reserve tokens\r\n        require(RESERVE_TOKEN.transferFrom(_msgSender(), address(this), reserveAmount - taxAmount), \"RESERVE_TOKEN_TRANSFER_FAILED\");\r\n        reserveBalance[tokenAddress] += (reserveAmount - taxAmount);\r\n\r\n        // Mint reward tokens to the buyer\r\n        MintClubToken(tokenAddress).mint(_msgSender(), rewardTokens);\r\n\r\n        // Pay tax to the beneficiary / Send to the default beneficiary if not set (or abused)\r\n        address actualBeneficiary = beneficiary;\r\n        if (beneficiary == address(0) || beneficiary == _msgSender()) {\r\n            actualBeneficiary = defaultBeneficiary;\r\n        }\r\n        RESERVE_TOKEN.transferFrom(_msgSender(), actualBeneficiary, taxAmount);\r\n\r\n        emit Buy(tokenAddress, _msgSender(), rewardTokens, reserveAmount, actualBeneficiary, taxAmount);\r\n    }\r\n\r\n    function sell(address tokenAddress, uint256 tokenAmount, uint256 minRefund, address beneficiary) public {\r\n        (uint256 refundAmount, uint256 taxAmount) = getBurnRefund(tokenAddress, tokenAmount);\r\n        require(refundAmount >= minRefund, \"SLIPPAGE_LIMIT_EXCEEDED\");\r\n\r\n        // Burn token first\r\n        MintClubToken(tokenAddress).burnFrom(_msgSender(), tokenAmount);\r\n\r\n        // Refund reserve tokens to the seller\r\n        reserveBalance[tokenAddress] -= (refundAmount + taxAmount);\r\n        require(RESERVE_TOKEN.transfer(_msgSender(), refundAmount), \"RESERVE_TOKEN_TRANSFER_FAILED\");\r\n\r\n        // Pay tax to the beneficiary / Send to the default beneficiary if not set (or abused)\r\n        address actualBeneficiary = beneficiary;\r\n        if (beneficiary == address(0) || beneficiary == _msgSender()) {\r\n            actualBeneficiary = defaultBeneficiary;\r\n        }\r\n        RESERVE_TOKEN.transfer(actualBeneficiary, taxAmount);\r\n\r\n        emit Sell(tokenAddress, _msgSender(), tokenAmount, refundAmount, actualBeneficiary, taxAmount);\r\n    }\r\n}",
  "sourcePath": "C:/Users/Gunner/Desktop/ChangeTheBlock/tmr-api/src/smart-contracts/contracts/MintClubBond.sol",
  "compiler": {
    "name": "solc",
    "version": "0.8.13+commit.abaa5c0e.Emscripten.clang"
  },
  "schemaVersion": "3.3.4",
  "updatedAt": "2022-03-23T18:20:14.601Z",
  "devdoc": {
    "kind": "dev",
    "methods": {
      "getMintReward(address,uint256)": {
        "details": "Use the simplest bonding curve (y = x) as we can adjust total supply of reserve tokens to adjust slope Price = SLOPE * totalSupply = totalSupply (where slope = 1)"
      },
      "owner()": {
        "details": "Returns the address of the current owner."
      },
      "renounceOwnership()": {
        "details": "Leaves the contract without owner. It will not be possible to call `onlyOwner` functions anymore. Can only be called by the current owner. NOTE: Renouncing ownership will leave the contract without an owner, thereby removing any functionality that is only available to the owner."
      },
      "transferOwnership(address)": {
        "details": "Transfers ownership of the contract to a new account (`newOwner`). Can only be called by the current owner."
      }
    },
    "title": "MintClub Bond Providing liquidity for MintClub tokens with a bonding curve.",
    "version": 1
  },
  "userdoc": {
    "kind": "user",
    "methods": {
      "tokenImplementation()": {
        "notice": "ERC20 Token implementation contract  We use \"EIP-1167: Minimal Proxy Contract\" in order to save gas cost for each token deployment  REF: https://github.com/optionality/clone-factory"
      }
    },
    "version": 1
  }
}