{
  "contractName": "MintClubZapV5",
  "abi": [
    {
      "inputs": [],
      "stateMutability": "nonpayable",
      "type": "constructor"
    },
    {
      "stateMutability": "payable",
      "type": "receive"
    },
    {
      "inputs": [
        {
          "internalType": "address",
          "name": "from",
          "type": "address"
        },
        {
          "internalType": "address",
          "name": "to",
          "type": "address"
        },
        {
          "internalType": "uint256",
          "name": "fromAmount",
          "type": "uint256"
        }
      ],
      "name": "estimateZapIn",
      "outputs": [
        {
          "internalType": "uint256",
          "name": "tokensToReceive",
          "type": "uint256"
        },
        {
          "internalType": "uint256",
          "name": "mintTokenTaxAmount",
          "type": "uint256"
        }
      ],
      "stateMutability": "view",
      "type": "function"
    },
    {
      "inputs": [
        {
          "internalType": "address",
          "name": "from",
          "type": "address"
        },
        {
          "internalType": "uint256",
          "name": "fromAmount",
          "type": "uint256"
        }
      ],
      "name": "estimateZapInInitial",
      "outputs": [
        {
          "internalType": "uint256",
          "name": "tokensToReceive",
          "type": "uint256"
        },
        {
          "internalType": "uint256",
          "name": "mintTokenTaxAmount",
          "type": "uint256"
        }
      ],
      "stateMutability": "view",
      "type": "function"
    },
    {
      "inputs": [
        {
          "internalType": "address",
          "name": "tokenAddress",
          "type": "address"
        },
        {
          "internalType": "uint256",
          "name": "tokensToBuy",
          "type": "uint256"
        }
      ],
      "name": "getReserveAmountToBuy",
      "outputs": [
        {
          "internalType": "uint256",
          "name": "",
          "type": "uint256"
        }
      ],
      "stateMutability": "view",
      "type": "function"
    },
    {
      "inputs": [
        {
          "internalType": "address",
          "name": "from",
          "type": "address"
        },
        {
          "internalType": "address",
          "name": "to",
          "type": "address"
        },
        {
          "internalType": "uint256",
          "name": "tokensToReceive",
          "type": "uint256"
        }
      ],
      "name": "estimateZapInReverse",
      "outputs": [
        {
          "internalType": "uint256",
          "name": "fromAmountRequired",
          "type": "uint256"
        },
        {
          "internalType": "uint256",
          "name": "mintTokenTaxAmount",
          "type": "uint256"
        }
      ],
      "stateMutability": "view",
      "type": "function"
    },
    {
      "inputs": [
        {
          "internalType": "address",
          "name": "from",
          "type": "address"
        },
        {
          "internalType": "uint256",
          "name": "tokensToReceive",
          "type": "uint256"
        }
      ],
      "name": "estimateZapInReverseInitial",
      "outputs": [
        {
          "internalType": "uint256",
          "name": "fromAmountRequired",
          "type": "uint256"
        },
        {
          "internalType": "uint256",
          "name": "mintTokenTaxAmount",
          "type": "uint256"
        }
      ],
      "stateMutability": "view",
      "type": "function"
    },
    {
      "inputs": [
        {
          "internalType": "address",
          "name": "from",
          "type": "address"
        },
        {
          "internalType": "address",
          "name": "to",
          "type": "address"
        },
        {
          "internalType": "uint256",
          "name": "fromAmount",
          "type": "uint256"
        }
      ],
      "name": "estimateZapOut",
      "outputs": [
        {
          "internalType": "uint256",
          "name": "toAmountToReceive",
          "type": "uint256"
        },
        {
          "internalType": "uint256",
          "name": "mintTokenTaxAmount",
          "type": "uint256"
        }
      ],
      "stateMutability": "view",
      "type": "function"
    },
    {
      "inputs": [
        {
          "internalType": "address",
          "name": "tokenAddress",
          "type": "address"
        },
        {
          "internalType": "uint256",
          "name": "mintTokenAmount",
          "type": "uint256"
        }
      ],
      "name": "getTokenAmountFor",
      "outputs": [
        {
          "internalType": "uint256",
          "name": "",
          "type": "uint256"
        }
      ],
      "stateMutability": "view",
      "type": "function"
    },
    {
      "inputs": [
        {
          "internalType": "address",
          "name": "from",
          "type": "address"
        },
        {
          "internalType": "address",
          "name": "to",
          "type": "address"
        },
        {
          "internalType": "uint256",
          "name": "toAmount",
          "type": "uint256"
        }
      ],
      "name": "estimateZapOutReverse",
      "outputs": [
        {
          "internalType": "uint256",
          "name": "tokensRequired",
          "type": "uint256"
        },
        {
          "internalType": "uint256",
          "name": "mintTokenTaxAmount",
          "type": "uint256"
        }
      ],
      "stateMutability": "view",
      "type": "function"
    },
    {
      "inputs": [
        {
          "internalType": "address",
          "name": "to",
          "type": "address"
        },
        {
          "internalType": "uint256",
          "name": "minAmountOut",
          "type": "uint256"
        },
        {
          "internalType": "address",
          "name": "beneficiary",
          "type": "address"
        }
      ],
      "name": "zapInBNB",
      "outputs": [],
      "stateMutability": "payable",
      "type": "function"
    },
    {
      "inputs": [
        {
          "internalType": "address",
          "name": "from",
          "type": "address"
        },
        {
          "internalType": "address",
          "name": "to",
          "type": "address"
        },
        {
          "internalType": "uint256",
          "name": "amountIn",
          "type": "uint256"
        },
        {
          "internalType": "uint256",
          "name": "minAmountOut",
          "type": "uint256"
        },
        {
          "internalType": "address",
          "name": "beneficiary",
          "type": "address"
        }
      ],
      "name": "zapIn",
      "outputs": [],
      "stateMutability": "nonpayable",
      "type": "function"
    },
    {
      "inputs": [
        {
          "internalType": "string",
          "name": "name",
          "type": "string"
        },
        {
          "internalType": "string",
          "name": "symbol",
          "type": "string"
        },
        {
          "internalType": "uint256",
          "name": "maxTokenSupply",
          "type": "uint256"
        },
        {
          "internalType": "address",
          "name": "token",
          "type": "address"
        },
        {
          "internalType": "uint256",
          "name": "tokenAmount",
          "type": "uint256"
        },
        {
          "internalType": "uint256",
          "name": "minAmountOut",
          "type": "uint256"
        },
        {
          "internalType": "address",
          "name": "beneficiary",
          "type": "address"
        }
      ],
      "name": "createAndZapIn",
      "outputs": [],
      "stateMutability": "nonpayable",
      "type": "function"
    },
    {
      "inputs": [
        {
          "internalType": "string",
          "name": "name",
          "type": "string"
        },
        {
          "internalType": "string",
          "name": "symbol",
          "type": "string"
        },
        {
          "internalType": "uint256",
          "name": "maxTokenSupply",
          "type": "uint256"
        },
        {
          "internalType": "uint256",
          "name": "minAmountOut",
          "type": "uint256"
        },
        {
          "internalType": "address",
          "name": "beneficiary",
          "type": "address"
        }
      ],
      "name": "createAndZapInBNB",
      "outputs": [],
      "stateMutability": "payable",
      "type": "function"
    },
    {
      "inputs": [
        {
          "internalType": "address",
          "name": "from",
          "type": "address"
        },
        {
          "internalType": "address",
          "name": "to",
          "type": "address"
        },
        {
          "internalType": "uint256",
          "name": "amountIn",
          "type": "uint256"
        },
        {
          "internalType": "uint256",
          "name": "minAmountOut",
          "type": "uint256"
        },
        {
          "internalType": "address",
          "name": "beneficiary",
          "type": "address"
        }
      ],
      "name": "zapOut",
      "outputs": [],
      "stateMutability": "nonpayable",
      "type": "function"
    },
    {
      "inputs": [
        {
          "internalType": "address",
          "name": "from",
          "type": "address"
        },
        {
          "internalType": "uint256",
          "name": "amountIn",
          "type": "uint256"
        },
        {
          "internalType": "uint256",
          "name": "minAmountOut",
          "type": "uint256"
        },
        {
          "internalType": "address",
          "name": "beneficiary",
          "type": "address"
        }
      ],
      "name": "zapOutBNB",
      "outputs": [],
      "stateMutability": "nonpayable",
      "type": "function"
    }
  ],
  "bytecode": "0x60806040523480156200001157600080fd5b506200004c731f3af095cda17d63cad238358837321e95fc5915738bbac0c7583cc146244a18863e708bffbbf199756200005260201b60201c565b62000a4c565b600082905060008173ffffffffffffffffffffffffffffffffffffffff1663dd62ed3e30856040518363ffffffff1660e01b81526004016200009692919062000598565b602060405180830381865afa158015620000b4573d6000803e3d6000fd5b505050506040513d601f19601f82011682018060405250810190620000da919062000605565b1115620000e857506200013c565b6200013a827fffffffffffffffffffffffffffffffffffffffffffffffffffffffffffffffff8373ffffffffffffffffffffffffffffffffffffffff166200014060201b6200168b179092919060201c565b505b5050565b6000811480620001d0575060008373ffffffffffffffffffffffffffffffffffffffff1663dd62ed3e30856040518363ffffffff1660e01b81526004016200018a92919062000598565b602060405180830381865afa158015620001a8573d6000803e3d6000fd5b505050506040513d601f19601f82011682018060405250810190620001ce919062000605565b145b62000212576040517f08c379a00000000000000000000000000000000000000000000000000000000081526004016200020990620006be565b60405180910390fd5b6200029d8363095ea7b360e01b848460405160240162000234929190620006f1565b604051602081830303815290604052907bffffffffffffffffffffffffffffffffffffffffffffffffffffffff19166020820180517bffffffffffffffffffffffffffffffffffffffffffffffffffffffff8381831617835250505050620002a260201b60201c565b505050565b60006200030b826040518060400160405280602081526020017f5361666545524332303a206c6f772d6c6576656c2063616c6c206661696c65648152508573ffffffffffffffffffffffffffffffffffffffff166200037660201b620017da179092919060201c565b90506000815111156200037157808060200190518101906200032e91906200075b565b62000370576040517f08c379a0000000000000000000000000000000000000000000000000000000008152600401620003679062000803565b60405180910390fd5b5b505050565b60606200038d84846000856200039660201b60201c565b90509392505050565b606082471015620003de576040517f08c379a0000000000000000000000000000000000000000000000000000000008152600401620003d5906200089b565b60405180910390fd5b620003ef85620004c460201b60201c565b62000431576040517f08c379a000000000000000000000000000000000000000000000000000000000815260040162000428906200090d565b60405180910390fd5b6000808673ffffffffffffffffffffffffffffffffffffffff1685876040516200045c9190620009b2565b60006040518083038185875af1925050503d80600081146200049b576040519150601f19603f3d011682016040523d82523d6000602084013e620004a0565b606091505b5091509150620004b8828286620004e760201b60201c565b92505050949350505050565b6000808273ffffffffffffffffffffffffffffffffffffffff163b119050919050565b60608315620004f9578290506200054c565b6000835111156200050d5782518084602001fd5b816040517f08c379a000000000000000000000000000000000000000000000000000000000815260040162000543919062000a28565b60405180910390fd5b9392505050565b600073ffffffffffffffffffffffffffffffffffffffff82169050919050565b6000620005808262000553565b9050919050565b620005928162000573565b82525050565b6000604082019050620005af600083018562000587565b620005be602083018462000587565b9392505050565b600080fd5b6000819050919050565b620005df81620005ca565b8114620005eb57600080fd5b50565b600081519050620005ff81620005d4565b92915050565b6000602082840312156200061e576200061d620005c5565b5b60006200062e84828501620005ee565b91505092915050565b600082825260208201905092915050565b7f5361666545524332303a20617070726f76652066726f6d206e6f6e2d7a65726f60008201527f20746f206e6f6e2d7a65726f20616c6c6f77616e636500000000000000000000602082015250565b6000620006a660368362000637565b9150620006b38262000648565b604082019050919050565b60006020820190508181036000830152620006d98162000697565b9050919050565b620006eb81620005ca565b82525050565b600060408201905062000708600083018562000587565b620007176020830184620006e0565b9392505050565b60008115159050919050565b62000735816200071e565b81146200074157600080fd5b50565b60008151905062000755816200072a565b92915050565b600060208284031215620007745762000773620005c5565b5b6000620007848482850162000744565b91505092915050565b7f5361666545524332303a204552433230206f7065726174696f6e20646964206e60008201527f6f74207375636365656400000000000000000000000000000000000000000000602082015250565b6000620007eb602a8362000637565b9150620007f8826200078d565b604082019050919050565b600060208201905081810360008301526200081e81620007dc565b9050919050565b7f416464726573733a20696e73756666696369656e742062616c616e636520666f60008201527f722063616c6c0000000000000000000000000000000000000000000000000000602082015250565b60006200088360268362000637565b9150620008908262000825565b604082019050919050565b60006020820190508181036000830152620008b68162000874565b9050919050565b7f416464726573733a2063616c6c20746f206e6f6e2d636f6e7472616374000000600082015250565b6000620008f5601d8362000637565b91506200090282620008bd565b602082019050919050565b600060208201905081810360008301526200092881620008e6565b9050919050565b600081519050919050565b600081905092915050565b60005b838110156200096557808201518184015260208101905062000948565b8381111562000975576000848401525b50505050565b600062000988826200092f565b6200099481856200093a565b9350620009a681856020860162000945565b80840191505092915050565b6000620009c082846200097b565b915081905092915050565b600081519050919050565b6000601f19601f8301169050919050565b6000620009f482620009cb565b62000a00818562000637565b935062000a1281856020860162000945565b62000a1d81620009d6565b840191505092915050565b6000602082019050818103600083015262000a448184620009e7565b905092915050565b6141f68062000a5c6000396000f3fe6080604052600436106100e15760003560e01c8063b35d3f421161007f578063caeb2c4b11610059578063caeb2c4b146102d5578063d9059f1b14610312578063dcebfbcb14610350578063f0db42541461038e576100e8565b8063b35d3f4214610267578063b487c54a14610283578063b490bb6d146102ac576100e8565b80635c942f40116100bb5780635c942f401461019257806384d07961146101d05780638bad12f61461020d57806393d2946614610229576100e8565b806311b16eeb146100ed5780631a7cfc5a146101165780632ef7ff4314610154576100e8565b366100e857005b600080fd5b3480156100f957600080fd5b50610114600480360381019061010f9190612c98565b6103b7565b005b34801561012257600080fd5b5061013d60048036038101906101389190612cff565b610583565b60405161014b929190612d4e565b60405180910390f35b34801561016057600080fd5b5061017b60048036038101906101769190612cff565b6106de565b604051610189929190612d4e565b60405180910390f35b34801561019e57600080fd5b506101b960048036038101906101b49190612d77565b610858565b6040516101c7929190612d4e565b60405180910390f35b3480156101dc57600080fd5b506101f760048036038101906101f29190612cff565b610a19565b6040516102049190612dca565b60405180910390f35b61022760048036038101906102229190612f2b565b610b61565b005b34801561023557600080fd5b50610250600480360381019061024b9190612d77565b610c14565b60405161025e929190612d4e565b60405180910390f35b610281600480360381019061027c9190612fde565b610d65565b005b34801561028f57600080fd5b506102aa60048036038101906102a59190613031565b610e2b565b005b3480156102b857600080fd5b506102d360048036038101906102ce91906130ac565b610fb9565b005b3480156102e157600080fd5b506102fc60048036038101906102f79190612cff565b611070565b6040516103099190612dca565b60405180910390f35b34801561031e57600080fd5b5061033960048036038101906103349190612d77565b6111d2565b604051610347929190612d4e565b60405180910390f35b34801561035c57600080fd5b5061037760048036038101906103729190612d77565b61138f565b604051610385929190612d4e565b60405180910390f35b34801561039a57600080fd5b506103b560048036038101906103b09190613031565b6114d5565b005b60006103cc85856103c7856117f2565b61188a565b90506000610403731f3af095cda17d63cad238358837321e95fc591573bb4cdb9cbd36b01bd1cbaebf2de08d9173bc095c84611c3e565b905073bb4cdb9cbd36b01bd1cbaebf2de08d9173bc095c73ffffffffffffffffffffffffffffffffffffffff16632e1a7d4d826040518263ffffffff1660e01b81526004016104529190612dca565b600060405180830381600087803b15801561046c57600080fd5b505af1158015610480573d6000803e3d6000fd5b50505050838110156104c7576040517f08c379a00000000000000000000000000000000000000000000000000000000081526004016104be906131e3565b60405180910390fd5b60006104d1612031565b73ffffffffffffffffffffffffffffffffffffffff16826040516104f490613234565b60006040518083038185875af1925050503d8060008114610531576040519150601f19603f3d011682016040523d82523d6000602084013e610536565b606091505b505090508061057a576040517f08c379a000000000000000000000000000000000000000000000000000000000815260040161057190613295565b60405180910390fd5b50505050505050565b6000806000671bc16d674ec8000060028561059e9190613424565b6105a8919061349e565b9050731f3af095cda17d63cad238358837321e95fc591573ffffffffffffffffffffffffffffffffffffffff168573ffffffffffffffffffffffffffffffffffffffff16036105f9578092506106ba565b600061060486612039565b90507310ed43c718714eb63d5aa57b78b54704e256024e73ffffffffffffffffffffffffffffffffffffffff16631f00ca7483836040518363ffffffff1660e01b815260040161065592919061358d565b600060405180830381865afa158015610672573d6000803e3d6000fd5b505050506040513d6000823e3d601f19601f8201168201806040525081019061069b919061369a565b6000815181106106ae576106ad6136e3565b5b60200260200101519350505b6103e86003826106ca9190613712565b6106d4919061349e565b9150509250929050565b6000806000731f3af095cda17d63cad238358837321e95fc591573ffffffffffffffffffffffffffffffffffffffff168573ffffffffffffffffffffffffffffffffffffffff1603610732578390506107ff565b600061073d86612039565b90507310ed43c718714eb63d5aa57b78b54704e256024e73ffffffffffffffffffffffffffffffffffffffff1663d06ca61f86836040518363ffffffff1660e01b815260040161078e92919061358d565b600060405180830381865afa1580156107ab573d6000803e3d6000fd5b505050506040513d6000823e3d601f19601f820116820180604052508101906107d4919061369a565b600182516107e2919061376c565b815181106107f3576107f26136e3565b5b60200260200101519150505b60006103e86003836108119190613712565b61081b919061349e565b90506000610846828461082e919061376c565b671bc16d674ec800006108419190613712565b612300565b90508082945094505050509250929050565b6000806000738bbac0c7583cc146244a18863e708bffbbf1997573ffffffffffffffffffffffffffffffffffffffff166337430a5187866040518363ffffffff1660e01b81526004016108ac9291906137af565b6040805180830381865afa1580156108c8573d6000803e3d6000fd5b505050506040513d601f19601f820116820180604052508101906108ec91906137d8565b8093508192505050731f3af095cda17d63cad238358837321e95fc591573ffffffffffffffffffffffffffffffffffffffff168573ffffffffffffffffffffffffffffffffffffffff160361094357809250610a10565b600061094e86612385565b90507310ed43c718714eb63d5aa57b78b54704e256024e73ffffffffffffffffffffffffffffffffffffffff1663d06ca61f83836040518363ffffffff1660e01b815260040161099f92919061358d565b600060405180830381865afa1580156109bc573d6000803e3d6000fd5b505050506040513d6000823e3d601f19601f820116820180604052508101906109e5919061369a565b600182516109f3919061376c565b81518110610a0457610a036136e3565b5b60200260200101519350505b50935093915050565b600080839050600083738bbac0c7583cc146244a18863e708bffbbf1997573ffffffffffffffffffffffffffffffffffffffff1663dc8de379876040518263ffffffff1660e01b8152600401610a6f9190613818565b602060405180830381865afa158015610a8c573d6000803e3d6000fd5b505050506040513d601f19601f82011682018060405250810190610ab09190613833565b610aba919061376c565b90506000610ada82671bc16d674ec80000610ad59190613712565b612300565b9050808373ffffffffffffffffffffffffffffffffffffffff166318160ddd6040518163ffffffff1660e01b8152600401602060405180830381865afa158015610b28573d6000803e3d6000fd5b505050506040513d601f19601f82011682018060405250810190610b4c9190613833565b610b56919061376c565b935050505092915050565b6000738bbac0c7583cc146244a18863e708bffbbf1997573ffffffffffffffffffffffffffffffffffffffff16635b0605308787876040518463ffffffff1660e01b8152600401610bb4939291906138d7565b6020604051808303816000875af1158015610bd3573d6000803e3d6000fd5b505050506040513d601f19601f82011682018060405250810190610bf79190613931565b9050610c0c8184610c07856117f2565b610d65565b505050505050565b6000806000731f3af095cda17d63cad238358837321e95fc591573ffffffffffffffffffffffffffffffffffffffff168573ffffffffffffffffffffffffffffffffffffffff1603610c6857839050610d29565b6000610c7386612385565b90507310ed43c718714eb63d5aa57b78b54704e256024e73ffffffffffffffffffffffffffffffffffffffff16631f00ca7486836040518363ffffffff1660e01b8152600401610cc492919061358d565b600060405180830381865afa158015610ce1573d6000803e3d6000fd5b505050506040513d6000823e3d601f19601f82011682018060405250810190610d0a919061369a565b600081518110610d1d57610d1c6136e3565b5b60200260200101519150505b6103e8600d82610d399190613712565b610d43919061349e565b9150610d5a868383610d55919061395e565b610a19565b925050935093915050565b73bb4cdb9cbd36b01bd1cbaebf2de08d9173bc095c73ffffffffffffffffffffffffffffffffffffffff1663d0e30db0346040518263ffffffff1660e01b81526004016000604051808303818588803b158015610dc157600080fd5b505af1158015610dd5573d6000803e3d6000fd5b50505050506000610e0f73bb4cdb9cbd36b01bd1cbaebf2de08d9173bc095c731f3af095cda17d63cad238358837321e95fc591534611c3e565b9050610e25848285610e20866117f2565b61264c565b50505050565b6000859050838173ffffffffffffffffffffffffffffffffffffffff1663dd62ed3e610e55612031565b306040518363ffffffff1660e01b8152600401610e739291906139b4565b602060405180830381865afa158015610e90573d6000803e3d6000fd5b505050506040513d601f19601f82011682018060405250810190610eb49190613833565b1015610ef5576040517f08c379a0000000000000000000000000000000000000000000000000000000008152600401610eec90613a29565b60405180910390fd5b610f29610f00612031565b30868973ffffffffffffffffffffffffffffffffffffffff16612822909392919063ffffffff16565b6000731f3af095cda17d63cad238358837321e95fc591573ffffffffffffffffffffffffffffffffffffffff168773ffffffffffffffffffffffffffffffffffffffff1603610f7a57849050610f9c565b610f9987731f3af095cda17d63cad238358837321e95fc591587611c3e565b90505b610fb0868286610fab876117f2565b61264c565b50505050505050565b6000738bbac0c7583cc146244a18863e708bffbbf1997573ffffffffffffffffffffffffffffffffffffffff16635b0605308989896040518463ffffffff1660e01b815260040161100c939291906138d7565b6020604051808303816000875af115801561102b573d6000803e3d6000fd5b505050506040513d601f19601f8201168201806040525081019061104f9190613931565b905061106685828686611061876117f2565b610e2b565b5050505050505050565b6000808390506000838273ffffffffffffffffffffffffffffffffffffffff166318160ddd6040518163ffffffff1660e01b8152600401602060405180830381865afa1580156110c4573d6000803e3d6000fd5b505050506040513d601f19601f820116820180604052508101906110e89190613833565b6110f2919061395e565b90506000671bc16d674ec8000060028473ffffffffffffffffffffffffffffffffffffffff166318160ddd6040518163ffffffff1660e01b8152600401602060405180830381865afa15801561114c573d6000803e3d6000fd5b505050506040513d601f19601f820116820180604052508101906111709190613833565b61117a9190613424565b6002846111879190613424565b611191919061376c565b61119b919061349e565b905060036103e86111ac919061376c565b6103e8826111ba9190613712565b6111c4919061349e565b905080935050505092915050565b6000806000731f3af095cda17d63cad238358837321e95fc591573ffffffffffffffffffffffffffffffffffffffff168673ffffffffffffffffffffffffffffffffffffffff1603611226578390506112f3565b600061123187612039565b90507310ed43c718714eb63d5aa57b78b54704e256024e73ffffffffffffffffffffffffffffffffffffffff1663d06ca61f86836040518363ffffffff1660e01b815260040161128292919061358d565b600060405180830381865afa15801561129f573d6000803e3d6000fd5b505050506040513d6000823e3d601f19601f820116820180604052508101906112c8919061369a565b600182516112d6919061376c565b815181106112e7576112e66136e3565b5b60200260200101519150505b738bbac0c7583cc146244a18863e708bffbbf1997573ffffffffffffffffffffffffffffffffffffffff1663eb0cf64d86836040518363ffffffff1660e01b81526004016113429291906137af565b6040805180830381865afa15801561135e573d6000803e3d6000fd5b505050506040513d601f19601f8201168201806040525081019061138291906137d8565b9250925050935093915050565b600080600061139e8585611070565b9050731f3af095cda17d63cad238358837321e95fc591573ffffffffffffffffffffffffffffffffffffffff168673ffffffffffffffffffffffffffffffffffffffff16036113ef578092506114b0565b60006113fa87612039565b90507310ed43c718714eb63d5aa57b78b54704e256024e73ffffffffffffffffffffffffffffffffffffffff16631f00ca7483836040518363ffffffff1660e01b815260040161144b92919061358d565b600060405180830381865afa158015611468573d6000803e3d6000fd5b505050506040513d6000823e3d601f19601f82011682018060405250810190611491919061369a565b6000815181106114a4576114a36136e3565b5b60200260200101519350505b6103e86003826114c09190613712565b6114ca919061349e565b915050935093915050565b60006114ea86856114e5856117f2565b61188a565b9050600080731f3af095cda17d63cad238358837321e95fc591573ffffffffffffffffffffffffffffffffffffffff168773ffffffffffffffffffffffffffffffffffffffff160361155557731f3af095cda17d63cad238358837321e95fc5915915082905061157a565b869150611577731f3af095cda17d63cad238358837321e95fc59158885611c3e565b90505b848110156115bd576040517f08c379a00000000000000000000000000000000000000000000000000000000081526004016115b4906131e3565b60405180910390fd5b8173ffffffffffffffffffffffffffffffffffffffff1663a9059cbb6115e1612031565b836040518363ffffffff1660e01b81526004016115ff9291906137af565b6020604051808303816000875af115801561161e573d6000803e3d6000fd5b505050506040513d601f19601f820116820180604052508101906116429190613a81565b611681576040517f08c379a000000000000000000000000000000000000000000000000000000000815260040161167890613afa565b60405180910390fd5b5050505050505050565b6000811480611715575060008373ffffffffffffffffffffffffffffffffffffffff1663dd62ed3e30856040518363ffffffff1660e01b81526004016116d29291906139b4565b602060405180830381865afa1580156116ef573d6000803e3d6000fd5b505050506040513d601f19601f820116820180604052508101906117139190613833565b145b611754576040517f08c379a000000000000000000000000000000000000000000000000000000000815260040161174b90613b8c565b60405180910390fd5b6117d58363095ea7b360e01b84846040516024016117739291906137af565b604051602081830303815290604052907bffffffffffffffffffffffffffffffffffffffffffffffffffffffff19166020820180517bffffffffffffffffffffffffffffffffffffffffffffffffffffffff83818316178352505050506128ab565b505050565b60606117e98484600085612972565b90509392505050565b60008073ffffffffffffffffffffffffffffffffffffffff168273ffffffffffffffffffffffffffffffffffffffff1614806118605750611831612031565b73ffffffffffffffffffffffffffffffffffffffff168273ffffffffffffffffffffffffffffffffffffffff16145b15611881577382ca6d313bffe56e9096b16633dfd414148d66b19050611885565b8190505b919050565b600080849050838173ffffffffffffffffffffffffffffffffffffffff1663dd62ed3e6118b5612031565b306040518363ffffffff1660e01b81526004016118d39291906139b4565b602060405180830381865afa1580156118f0573d6000803e3d6000fd5b505050506040513d601f19601f820116820180604052508101906119149190613833565b1015611955576040517f08c379a000000000000000000000000000000000000000000000000000000000815260040161194c90613a29565b60405180910390fd5b611989611960612031565b30868873ffffffffffffffffffffffffffffffffffffffff16612822909392919063ffffffff16565b838173ffffffffffffffffffffffffffffffffffffffff1663dd62ed3e30738bbac0c7583cc146244a18863e708bffbbf199756040518363ffffffff1660e01b81526004016119d99291906139b4565b602060405180830381865afa1580156119f6573d6000803e3d6000fd5b505050506040513d601f19601f82011682018060405250810190611a1a9190613833565b1015611b12578073ffffffffffffffffffffffffffffffffffffffff1663095ea7b3738bbac0c7583cc146244a18863e708bffbbf199757fffffffffffffffffffffffffffffffffffffffffffffffffffffffffffffffff6040518363ffffffff1660e01b8152600401611a8f929190613bf1565b6020604051808303816000875af1158015611aae573d6000803e3d6000fd5b505050506040513d601f19601f82011682018060405250810190611ad29190613a81565b611b11576040517f08c379a0000000000000000000000000000000000000000000000000000000008152600401611b0890613c66565b60405180910390fd5b5b738bbac0c7583cc146244a18863e708bffbbf1997573ffffffffffffffffffffffffffffffffffffffff16632dc8f86786866000611b4f886117f2565b6040518563ffffffff1660e01b8152600401611b6e9493929190613cc1565b600060405180830381600087803b158015611b8857600080fd5b505af1158015611b9c573d6000803e3d6000fd5b505050506000731f3af095cda17d63cad238358837321e95fc591590508073ffffffffffffffffffffffffffffffffffffffff166370a08231306040518263ffffffff1660e01b8152600401611bf29190613818565b602060405180830381865afa158015611c0f573d6000803e3d6000fd5b505050506040513d601f19601f82011682018060405250810190611c339190613833565b925050509392505050565b60008273ffffffffffffffffffffffffffffffffffffffff168473ffffffffffffffffffffffffffffffffffffffff1603611c7b5781905061202a565b611c99847310ed43c718714eb63d5aa57b78b54704e256024e612a86565b6060731f3af095cda17d63cad238358837321e95fc591573ffffffffffffffffffffffffffffffffffffffff168473ffffffffffffffffffffffffffffffffffffffff1603611cf257611ceb85612039565b9050611d85565b731f3af095cda17d63cad238358837321e95fc591573ffffffffffffffffffffffffffffffffffffffff168573ffffffffffffffffffffffffffffffffffffffff1603611d4957611d4284612385565b9050611d84565b6040517f08c379a0000000000000000000000000000000000000000000000000000000008152600401611d7b90613d52565b60405180910390fd5b5b60005b60018251611d96919061376c565b8160ff161015611efd57600073ca143ce32fe78f1f7019d7d551a6402fc5350c7373ffffffffffffffffffffffffffffffffffffffff1663e6a43905848460ff1681518110611de857611de76136e3565b5b602002602001015185600186611dfe9190613d72565b60ff1681518110611e1257611e116136e3565b5b60200260200101516040518363ffffffff1660e01b8152600401611e379291906139b4565b602060405180830381865afa158015611e54573d6000803e3d6000fd5b505050506040513d601f19601f82011682018060405250810190611e789190613931565b9050600073ffffffffffffffffffffffffffffffffffffffff168173ffffffffffffffffffffffffffffffffffffffff1603611ee9576040517f08c379a0000000000000000000000000000000000000000000000000000000008152600401611ee090613df5565b60405180910390fd5b508080611ef590613e15565b915050611d88565b507310ed43c718714eb63d5aa57b78b54704e256024e73ffffffffffffffffffffffffffffffffffffffff166338ed173984600184307ff0000000000000000000000000000000000000000000000000000000000000006040518663ffffffff1660e01b8152600401611f74959493929190613e79565b6000604051808303816000875af1158015611f93573d6000803e3d6000fd5b505050506040513d6000823e3d601f19601f82011682018060405250810190611fbc919061369a565b60018251611fca919061376c565b81518110611fdb57611fda6136e3565b5b6020026020010151915060008211612028576040517f08c379a000000000000000000000000000000000000000000000000000000000815260040161201f90613f1f565b60405180910390fd5b505b9392505050565b600033905090565b606073bb4cdb9cbd36b01bd1cbaebf2de08d9173bc095c73ffffffffffffffffffffffffffffffffffffffff168273ffffffffffffffffffffffffffffffffffffffff160361219957600267ffffffffffffffff81111561209d5761209c612e00565b5b6040519080825280602002602001820160405280156120cb5781602001602082028036833780820191505090505b50905073bb4cdb9cbd36b01bd1cbaebf2de08d9173bc095c816000815181106120f7576120f66136e3565b5b602002602001019073ffffffffffffffffffffffffffffffffffffffff16908173ffffffffffffffffffffffffffffffffffffffff1681525050731f3af095cda17d63cad238358837321e95fc59158160018151811061215a576121596136e3565b5b602002602001019073ffffffffffffffffffffffffffffffffffffffff16908173ffffffffffffffffffffffffffffffffffffffff16815250506122fb565b600367ffffffffffffffff8111156121b4576121b3612e00565b5b6040519080825280602002602001820160405280156121e25781602001602082028036833780820191505090505b50905081816000815181106121fa576121f96136e3565b5b602002602001019073ffffffffffffffffffffffffffffffffffffffff16908173ffffffffffffffffffffffffffffffffffffffff168152505073bb4cdb9cbd36b01bd1cbaebf2de08d9173bc095c8160018151811061225d5761225c6136e3565b5b602002602001019073ffffffffffffffffffffffffffffffffffffffff16908173ffffffffffffffffffffffffffffffffffffffff1681525050731f3af095cda17d63cad238358837321e95fc5915816002815181106122c0576122bf6136e3565b5b602002602001019073ffffffffffffffffffffffffffffffffffffffff16908173ffffffffffffffffffffffffffffffffffffffff16815250505b919050565b6000806001600284612312919061349e565b61231c919061395e565b905060006002828561232e919061349e565b83612339919061395e565b612343919061349e565b90505b8082111561237b578091506002828561235f919061349e565b8361236a919061395e565b612374919061349e565b9050612346565b8192505050919050565b606073bb4cdb9cbd36b01bd1cbaebf2de08d9173bc095c73ffffffffffffffffffffffffffffffffffffffff168273ffffffffffffffffffffffffffffffffffffffff16036124e557600267ffffffffffffffff8111156123e9576123e8612e00565b5b6040519080825280602002602001820160405280156124175781602001602082028036833780820191505090505b509050731f3af095cda17d63cad238358837321e95fc591581600081518110612443576124426136e3565b5b602002602001019073ffffffffffffffffffffffffffffffffffffffff16908173ffffffffffffffffffffffffffffffffffffffff168152505073bb4cdb9cbd36b01bd1cbaebf2de08d9173bc095c816001815181106124a6576124a56136e3565b5b602002602001019073ffffffffffffffffffffffffffffffffffffffff16908173ffffffffffffffffffffffffffffffffffffffff1681525050612647565b600367ffffffffffffffff811115612500576124ff612e00565b5b60405190808252806020026020018201604052801561252e5781602001602082028036833780820191505090505b509050731f3af095cda17d63cad238358837321e95fc59158160008151811061255a576125596136e3565b5b602002602001019073ffffffffffffffffffffffffffffffffffffffff16908173ffffffffffffffffffffffffffffffffffffffff168152505073bb4cdb9cbd36b01bd1cbaebf2de08d9173bc095c816001815181106125bd576125bc6136e3565b5b602002602001019073ffffffffffffffffffffffffffffffffffffffff16908173ffffffffffffffffffffffffffffffffffffffff1681525050818160028151811061260c5761260b6136e3565b5b602002602001019073ffffffffffffffffffffffffffffffffffffffff16908173ffffffffffffffffffffffffffffffffffffffff16815250505b919050565b738bbac0c7583cc146244a18863e708bffbbf1997573ffffffffffffffffffffffffffffffffffffffff16633f60b633858585612688866117f2565b6040518563ffffffff1660e01b81526004016126a79493929190613f3f565b600060405180830381600087803b1580156126c157600080fd5b505af11580156126d5573d6000803e3d6000fd5b5050505060008490508073ffffffffffffffffffffffffffffffffffffffff1663a9059cbb612702612031565b8373ffffffffffffffffffffffffffffffffffffffff166370a08231306040518263ffffffff1660e01b815260040161273b9190613818565b602060405180830381865afa158015612758573d6000803e3d6000fd5b505050506040513d601f19601f8201168201806040525081019061277c9190613833565b6040518363ffffffff1660e01b81526004016127999291906137af565b6020604051808303816000875af11580156127b8573d6000803e3d6000fd5b505050506040513d601f19601f820116820180604052508101906127dc9190613a81565b61281b576040517f08c379a000000000000000000000000000000000000000000000000000000000815260040161281290613afa565b60405180910390fd5b5050505050565b6128a5846323b872dd60e01b85858560405160240161284393929190613f84565b604051602081830303815290604052907bffffffffffffffffffffffffffffffffffffffffffffffffffffffff19166020820180517bffffffffffffffffffffffffffffffffffffffffffffffffffffffff83818316178352505050506128ab565b50505050565b600061290d826040518060400160405280602081526020017f5361666545524332303a206c6f772d6c6576656c2063616c6c206661696c65648152508573ffffffffffffffffffffffffffffffffffffffff166117da9092919063ffffffff16565b905060008151111561296d578080602001905181019061292d9190613a81565b61296c576040517f08c379a00000000000000000000000000000000000000000000000000000000081526004016129639061402d565b60405180910390fd5b5b505050565b6060824710156129b7576040517f08c379a00000000000000000000000000000000000000000000000000000000081526004016129ae906140bf565b60405180910390fd5b6129c085612b66565b6129ff576040517f08c379a00000000000000000000000000000000000000000000000000000000081526004016129f69061412b565b60405180910390fd5b6000808673ffffffffffffffffffffffffffffffffffffffff168587604051612a289190614187565b60006040518083038185875af1925050503d8060008114612a65576040519150601f19603f3d011682016040523d82523d6000602084013e612a6a565b606091505b5091509150612a7a828286612b89565b92505050949350505050565b600082905060008173ffffffffffffffffffffffffffffffffffffffff1663dd62ed3e30856040518363ffffffff1660e01b8152600401612ac89291906139b4565b602060405180830381865afa158015612ae5573d6000803e3d6000fd5b505050506040513d601f19601f82011682018060405250810190612b099190613833565b1115612b155750612b62565b612b60827fffffffffffffffffffffffffffffffffffffffffffffffffffffffffffffffff8373ffffffffffffffffffffffffffffffffffffffff1661168b9092919063ffffffff16565b505b5050565b6000808273ffffffffffffffffffffffffffffffffffffffff163b119050919050565b60608315612b9957829050612be9565b600083511115612bac5782518084602001fd5b816040517f08c379a0000000000000000000000000000000000000000000000000000000008152600401612be0919061419e565b60405180910390fd5b9392505050565b6000604051905090565b600080fd5b600080fd5b600073ffffffffffffffffffffffffffffffffffffffff82169050919050565b6000612c2f82612c04565b9050919050565b612c3f81612c24565b8114612c4a57600080fd5b50565b600081359050612c5c81612c36565b92915050565b6000819050919050565b612c7581612c62565b8114612c8057600080fd5b50565b600081359050612c9281612c6c565b92915050565b60008060008060808587031215612cb257612cb1612bfa565b5b6000612cc087828801612c4d565b9450506020612cd187828801612c83565b9350506040612ce287828801612c83565b9250506060612cf387828801612c4d565b91505092959194509250565b60008060408385031215612d1657612d15612bfa565b5b6000612d2485828601612c4d565b9250506020612d3585828601612c83565b9150509250929050565b612d4881612c62565b82525050565b6000604082019050612d636000830185612d3f565b612d706020830184612d3f565b9392505050565b600080600060608486031215612d9057612d8f612bfa565b5b6000612d9e86828701612c4d565b9350506020612daf86828701612c4d565b9250506040612dc086828701612c83565b9150509250925092565b6000602082019050612ddf6000830184612d3f565b92915050565b600080fd5b600080fd5b6000601f19601f8301169050919050565b7f4e487b7100000000000000000000000000000000000000000000000000000000600052604160045260246000fd5b612e3882612def565b810181811067ffffffffffffffff82111715612e5757612e56612e00565b5b80604052505050565b6000612e6a612bf0565b9050612e768282612e2f565b919050565b600067ffffffffffffffff821115612e9657612e95612e00565b5b612e9f82612def565b9050602081019050919050565b82818337600083830152505050565b6000612ece612ec984612e7b565b612e60565b905082815260208101848484011115612eea57612ee9612dea565b5b612ef5848285612eac565b509392505050565b600082601f830112612f1257612f11612de5565b5b8135612f22848260208601612ebb565b91505092915050565b600080600080600060a08688031215612f4757612f46612bfa565b5b600086013567ffffffffffffffff811115612f6557612f64612bff565b5b612f7188828901612efd565b955050602086013567ffffffffffffffff811115612f9257612f91612bff565b5b612f9e88828901612efd565b9450506040612faf88828901612c83565b9350506060612fc088828901612c83565b9250506080612fd188828901612c4d565b9150509295509295909350565b600080600060608486031215612ff757612ff6612bfa565b5b600061300586828701612c4d565b935050602061301686828701612c83565b925050604061302786828701612c4d565b9150509250925092565b600080600080600060a0868803121561304d5761304c612bfa565b5b600061305b88828901612c4d565b955050602061306c88828901612c4d565b945050604061307d88828901612c83565b935050606061308e88828901612c83565b925050608061309f88828901612c4d565b9150509295509295909350565b600080600080600080600060e0888a0312156130cb576130ca612bfa565b5b600088013567ffffffffffffffff8111156130e9576130e8612bff565b5b6130f58a828b01612efd565b975050602088013567ffffffffffffffff81111561311657613115612bff565b5b6131228a828b01612efd565b96505060406131338a828b01612c83565b95505060606131448a828b01612c4d565b94505060806131558a828b01612c83565b93505060a06131668a828b01612c83565b92505060c06131778a828b01612c4d565b91505092959891949750929550565b600082825260208201905092915050565b7f5a41505f534c4950504147455f4c494d49545f45584345454445440000000000600082015250565b60006131cd601b83613186565b91506131d882613197565b602082019050919050565b600060208201905081810360008301526131fc816131c0565b9050919050565b600081905092915050565b50565b600061321e600083613203565b91506132298261320e565b600082019050919050565b600061323f82613211565b9150819050919050565b7f424e425f5452414e534645525f4641494c454400000000000000000000000000600082015250565b600061327f601383613186565b915061328a82613249565b602082019050919050565b600060208201905081810360008301526132ae81613272565b9050919050565b7f4e487b7100000000000000000000000000000000000000000000000000000000600052601160045260246000fd5b60008160011c9050919050565b6000808291508390505b600185111561333b57808604811115613317576133166132b5565b5b60018516156133265780820291505b8081029050613334856132e4565b94506132fb565b94509492505050565b6000826133545760019050613410565b816133625760009050613410565b81600181146133785760028114613382576133b1565b6001915050613410565b60ff841115613394576133936132b5565b5b8360020a9150848211156133ab576133aa6132b5565b5b50613410565b5060208310610133831016604e8410600b84101617156133e65782820a9050838111156133e1576133e06132b5565b5b613410565b6133f384848460016132f1565b9250905081840481111561340a576134096132b5565b5b81810290505b9392505050565b600060ff82169050919050565b600061342f82612c62565b915061343a83613417565b92506134677fffffffffffffffffffffffffffffffffffffffffffffffffffffffffffffffff8484613344565b905092915050565b7f4e487b7100000000000000000000000000000000000000000000000000000000600052601260045260246000fd5b60006134a982612c62565b91506134b483612c62565b9250826134c4576134c361346f565b5b828204905092915050565b600081519050919050565b600082825260208201905092915050565b6000819050602082019050919050565b61350481612c24565b82525050565b600061351683836134fb565b60208301905092915050565b6000602082019050919050565b600061353a826134cf565b61354481856134da565b935061354f836134eb565b8060005b83811015613580578151613567888261350a565b975061357283613522565b925050600181019050613553565b5085935050505092915050565b60006040820190506135a26000830185612d3f565b81810360208301526135b4818461352f565b90509392505050565b600067ffffffffffffffff8211156135d8576135d7612e00565b5b602082029050602081019050919050565b600080fd5b6000815190506135fd81612c6c565b92915050565b6000613616613611846135bd565b612e60565b90508083825260208201905060208402830185811115613639576136386135e9565b5b835b81811015613662578061364e88826135ee565b84526020840193505060208101905061363b565b5050509392505050565b600082601f83011261368157613680612de5565b5b8151613691848260208601613603565b91505092915050565b6000602082840312156136b0576136af612bfa565b5b600082015167ffffffffffffffff8111156136ce576136cd612bff565b5b6136da8482850161366c565b91505092915050565b7f4e487b7100000000000000000000000000000000000000000000000000000000600052603260045260246000fd5b600061371d82612c62565b915061372883612c62565b9250817fffffffffffffffffffffffffffffffffffffffffffffffffffffffffffffffff0483118215151615613761576137606132b5565b5b828202905092915050565b600061377782612c62565b915061378283612c62565b925082821015613795576137946132b5565b5b828203905092915050565b6137a981612c24565b82525050565b60006040820190506137c460008301856137a0565b6137d16020830184612d3f565b9392505050565b600080604083850312156137ef576137ee612bfa565b5b60006137fd858286016135ee565b925050602061380e858286016135ee565b9150509250929050565b600060208201905061382d60008301846137a0565b92915050565b60006020828403121561384957613848612bfa565b5b6000613857848285016135ee565b91505092915050565b600081519050919050565b60005b8381101561388957808201518184015260208101905061386e565b83811115613898576000848401525b50505050565b60006138a982613860565b6138b38185613186565b93506138c381856020860161386b565b6138cc81612def565b840191505092915050565b600060608201905081810360008301526138f1818661389e565b90508181036020830152613905818561389e565b90506139146040830184612d3f565b949350505050565b60008151905061392b81612c36565b92915050565b60006020828403121561394757613946612bfa565b5b60006139558482850161391c565b91505092915050565b600061396982612c62565b915061397483612c62565b9250827fffffffffffffffffffffffffffffffffffffffffffffffffffffffffffffffff038211156139a9576139a86132b5565b5b828201905092915050565b60006040820190506139c960008301856137a0565b6139d660208301846137a0565b9392505050565b7f4e4f545f454e4f5547485f414c4c4f57414e4345000000000000000000000000600082015250565b6000613a13601483613186565b9150613a1e826139dd565b602082019050919050565b60006020820190508181036000830152613a4281613a06565b9050919050565b60008115159050919050565b613a5e81613a49565b8114613a6957600080fd5b50565b600081519050613a7b81613a55565b92915050565b600060208284031215613a9757613a96612bfa565b5b6000613aa584828501613a6c565b91505092915050565b7f42414c414e43455f5452414e534645525f4641494c4544000000000000000000600082015250565b6000613ae4601783613186565b9150613aef82613aae565b602082019050919050565b60006020820190508181036000830152613b1381613ad7565b9050919050565b7f5361666545524332303a20617070726f76652066726f6d206e6f6e2d7a65726f60008201527f20746f206e6f6e2d7a65726f20616c6c6f77616e636500000000000000000000602082015250565b6000613b76603683613186565b9150613b8182613b1a565b604082019050919050565b60006020820190508181036000830152613ba581613b69565b9050919050565b6000819050919050565b6000819050919050565b6000613bdb613bd6613bd184613bac565b613bb6565b612c62565b9050919050565b613beb81613bc0565b82525050565b6000604082019050613c0660008301856137a0565b613c136020830184613be2565b9392505050565b7f415050524f56455f4641494c4544000000000000000000000000000000000000600082015250565b6000613c50600e83613186565b9150613c5b82613c1a565b602082019050919050565b60006020820190508181036000830152613c7f81613c43565b9050919050565b6000819050919050565b6000613cab613ca6613ca184613c86565b613bb6565b612c62565b9050919050565b613cbb81613c90565b82525050565b6000608082019050613cd660008301876137a0565b613ce36020830186612d3f565b613cf06040830185613cb2565b613cfd60608301846137a0565b95945050505050565b7f494e56414c49445f504154480000000000000000000000000000000000000000600082015250565b6000613d3c600c83613186565b9150613d4782613d06565b602082019050919050565b60006020820190508181036000830152613d6b81613d2f565b9050919050565b6000613d7d82613417565b9150613d8883613417565b92508260ff03821115613d9e57613d9d6132b5565b5b828201905092915050565b7f494e56414c49445f535741505f50415448000000000000000000000000000000600082015250565b6000613ddf601183613186565b9150613dea82613da9565b602082019050919050565b60006020820190508181036000830152613e0e81613dd2565b9050919050565b6000613e2082613417565b915060ff8203613e3357613e326132b5565b5b600182019050919050565b6000819050919050565b6000613e63613e5e613e5984613e3e565b613bb6565b612c62565b9050919050565b613e7381613e48565b82525050565b600060a082019050613e8e6000830188612d3f565b613e9b6020830187613e6a565b8181036040830152613ead818661352f565b9050613ebc60608301856137a0565b613ec96080830184612d3f565b9695505050505050565b7f535741505f4552524f5200000000000000000000000000000000000000000000600082015250565b6000613f09600a83613186565b9150613f1482613ed3565b602082019050919050565b60006020820190508181036000830152613f3881613efc565b9050919050565b6000608082019050613f5460008301876137a0565b613f616020830186612d3f565b613f6e6040830185612d3f565b613f7b60608301846137a0565b95945050505050565b6000606082019050613f9960008301866137a0565b613fa660208301856137a0565b613fb36040830184612d3f565b949350505050565b7f5361666545524332303a204552433230206f7065726174696f6e20646964206e60008201527f6f74207375636365656400000000000000000000000000000000000000000000602082015250565b6000614017602a83613186565b915061402282613fbb565b604082019050919050565b600060208201905081810360008301526140468161400a565b9050919050565b7f416464726573733a20696e73756666696369656e742062616c616e636520666f60008201527f722063616c6c0000000000000000000000000000000000000000000000000000602082015250565b60006140a9602683613186565b91506140b48261404d565b604082019050919050565b600060208201905081810360008301526140d88161409c565b9050919050565b7f416464726573733a2063616c6c20746f206e6f6e2d636f6e7472616374000000600082015250565b6000614115601d83613186565b9150614120826140df565b602082019050919050565b6000602082019050818103600083015261414481614108565b9050919050565b600081519050919050565b60006141618261414b565b61416b8185613203565b935061417b81856020860161386b565b80840191505092915050565b60006141938284614156565b915081905092915050565b600060208201905081810360008301526141b8818461389e565b90509291505056fea2646970667358221220b34be5a9eb9f4c410f03fb7714934d1184b2c853c1bff73febfb70e553f59bc364736f6c634300080d0033",
  "immutableReferences": {},
  "source": "// SPDX-License-Identifier: MIT\r\n\r\npragma solidity ^0.8.9;\r\n\r\nimport \"@openzeppelin/contracts/token/ERC20/IERC20.sol\";\r\nimport \"@openzeppelin/contracts/token/ERC20/utils/SafeERC20.sol\";\r\nimport \"@openzeppelin/contracts/utils/Context.sol\";\r\nimport \"./lib/IUniswapV2Router02.sol\";\r\nimport \"./lib/IUniswapV2Factory.sol\";\r\nimport \"./lib/IMintClubBond.sol\";\r\nimport \"./lib/IWETH.sol\";\r\nimport \"./lib/Math.sol\";\r\n\r\n/**\r\n* @title MintClubZapV5 extension contract (5.0.0)\r\n*/\r\n\r\ncontract MintClubZapV5 is Context {\r\n    using SafeERC20 for IERC20;\r\n\r\n    // Copied from MintClubBond\r\n    uint256 private constant BUY_TAX = 3;\r\n    uint256 private constant SELL_TAX = 13;\r\n    uint256 private constant MAX_TAX = 1000;\r\n\r\n    address private constant DEFAULT_BENEFICIARY = 0x82CA6d313BffE56E9096b16633dfD414148D66b1;\r\n\r\n    // MARK: - Mainnet configs\r\n\r\n    IUniswapV2Factory private constant PANCAKE_FACTORY = IUniswapV2Factory(0xcA143Ce32Fe78f1f7019d7d551a6402fC5350c73);\r\n    IUniswapV2Router02 private constant PANCAKE_ROUTER = IUniswapV2Router02(0x10ED43C718714eb63d5aA57B78B54704E256024E);\r\n    IMintClubBond private constant BOND = IMintClubBond(0x8BBac0C7583Cc146244a18863E708bFFbbF19975);\r\n    uint256 private constant DEAD_LINE = 0xf000000000000000000000000000000000000000000000000000000000000000;\r\n    address private constant MINT_CONTRACT = address(0x1f3Af095CDa17d63cad238358837321e95FC5915);\r\n    address private constant WBNB_CONTRACT = address(0xbb4CdB9CBd36B01bD1cBaEBF2De08d9173bc095c);\r\n\r\n    // MARK: - Testnet configs\r\n\r\n    // IUniswapV2Factory private constant PANCAKE_FACTORY = IUniswapV2Factory(0x6725F303b657a9451d8BA641348b6761A6CC7a17);\r\n    // IUniswapV2Router02 private constant PANCAKE_ROUTER = IUniswapV2Router02(0xD99D1c33F9fC3444f8101754aBC46c52416550D1);\r\n    // IMintClubBond private constant BOND = IMintClubBond(0xB9B492B5D470ae0eB2BB07a87062EC97615d8b09);\r\n    // uint256 private constant DEAD_LINE = 0xf000000000000000000000000000000000000000000000000000000000000000;\r\n    // address private constant MINT_CONTRACT = address(0x4d24BF63E5d6E03708e2DFd5cc8253B3f22FE913);\r\n    // address private constant WBNB_CONTRACT = address(0xae13d989daC2f0dEbFf460aC112a837C89BAa7cd);\r\n\r\n    constructor() {\r\n        // Approve infinite MINT tokens spendable by bond contract\r\n        // MINT will be stored temporarily during the swap transaction\r\n        _approveToken(MINT_CONTRACT, address(BOND));\r\n    }\r\n\r\n    receive() external payable {}\r\n\r\n    // MINT and others (parameter) -> Mint Club Tokens\r\n    function estimateZapIn(address from, address to, uint256 fromAmount) external view returns (uint256 tokensToReceive, uint256 mintTokenTaxAmount) {\r\n        uint256 mintAmount;\r\n\r\n        if (from == MINT_CONTRACT) {\r\n            mintAmount = fromAmount;\r\n        } else {\r\n            address[] memory path = _getPathToMint(from);\r\n\r\n            mintAmount = PANCAKE_ROUTER.getAmountsOut(fromAmount, path)[path.length - 1];\r\n        }\r\n\r\n        return BOND.getMintReward(to, mintAmount);\r\n    }\r\n\r\n    function estimateZapInInitial(address from, uint256 fromAmount) external view returns (uint256 tokensToReceive, uint256 mintTokenTaxAmount) {\r\n        uint256 mintAmount;\r\n\r\n        if (from == MINT_CONTRACT) {\r\n            mintAmount = fromAmount;\r\n        } else {\r\n            address[] memory path = _getPathToMint(from);\r\n\r\n            mintAmount = PANCAKE_ROUTER.getAmountsOut(fromAmount, path)[path.length - 1];\r\n        }\r\n\r\n        uint256 taxAmount = mintAmount * BUY_TAX / MAX_TAX;\r\n        uint256 newSupply = Math.floorSqrt(2 * 1e18 * (mintAmount - taxAmount));\r\n\r\n        return (newSupply, taxAmount);\r\n    }\r\n\r\n    // Get required MINT token amount to buy X amount of Mint Club tokens\r\n    function getReserveAmountToBuy(address tokenAddress, uint256 tokensToBuy) public view returns (uint256) {\r\n        IERC20 token = IERC20(tokenAddress);\r\n\r\n        uint256 newTokenSupply = token.totalSupply() + tokensToBuy;\r\n        uint256 reserveRequired = (newTokenSupply ** 2 - token.totalSupply() ** 2) / (2 * 1e18);\r\n        reserveRequired = reserveRequired * MAX_TAX / (MAX_TAX - BUY_TAX); // Deduct tax amount\r\n\r\n        return reserveRequired;\r\n    }\r\n\r\n    // MINT and others -> Mint Club Tokens (parameter)\r\n    function estimateZapInReverse(address from, address to, uint256 tokensToReceive) external view returns (uint256 fromAmountRequired, uint256 mintTokenTaxAmount) {\r\n        uint256 reserveRequired = getReserveAmountToBuy(to, tokensToReceive);\r\n\r\n        if (from == MINT_CONTRACT) {\r\n            fromAmountRequired = reserveRequired;\r\n        } else {\r\n            address[] memory path = _getPathToMint(from);\r\n\r\n            fromAmountRequired = PANCAKE_ROUTER.getAmountsIn(reserveRequired, path)[0];\r\n        }\r\n\r\n        mintTokenTaxAmount = reserveRequired * BUY_TAX / MAX_TAX;\r\n    }\r\n\r\n    function estimateZapInReverseInitial(address from, uint256 tokensToReceive) external view returns (uint256 fromAmountRequired, uint256 mintTokenTaxAmount) {\r\n        uint256 reserveRequired = tokensToReceive ** 2 / 2e18;\r\n\r\n        if (from == MINT_CONTRACT) {\r\n            fromAmountRequired = reserveRequired;\r\n        } else {\r\n            address[] memory path = _getPathToMint(from);\r\n\r\n            fromAmountRequired = PANCAKE_ROUTER.getAmountsIn(reserveRequired, path)[0];\r\n        }\r\n\r\n        mintTokenTaxAmount = reserveRequired * BUY_TAX / MAX_TAX;\r\n    }\r\n\r\n    // Mint Club Tokens (parameter) -> MINT and others\r\n    function estimateZapOut(address from, address to, uint256 fromAmount) external view returns (uint256 toAmountToReceive, uint256 mintTokenTaxAmount) {\r\n        uint256 mintToRefund;\r\n        (mintToRefund, mintTokenTaxAmount) = BOND.getBurnRefund(from, fromAmount);\r\n\r\n        if (to == MINT_CONTRACT) {\r\n            toAmountToReceive = mintToRefund;\r\n        } else {\r\n            address[] memory path = _getPathFromMint(to);\r\n\r\n            toAmountToReceive = PANCAKE_ROUTER.getAmountsOut(mintToRefund, path)[path.length - 1];\r\n        }\r\n    }\r\n\r\n    // Get amount of Mint Club tokens to receive X amount of MINT tokens\r\n    function getTokenAmountFor(address tokenAddress, uint256 mintTokenAmount) public view returns (uint256) {\r\n        IERC20 token = IERC20(tokenAddress);\r\n\r\n        uint256 reserveAfterSell = BOND.reserveBalance(tokenAddress) - mintTokenAmount;\r\n        uint256 supplyAfterSell = Math.floorSqrt(2 * 1e18 * reserveAfterSell);\r\n\r\n        return token.totalSupply() - supplyAfterSell;\r\n    }\r\n\r\n    // Mint Club Tokens -> MINT and others (parameter)\r\n    function estimateZapOutReverse(address from, address to, uint256 toAmount) external view returns (uint256 tokensRequired, uint256 mintTokenTaxAmount) {\r\n        uint256 mintTokenAmount;\r\n        if (to == MINT_CONTRACT) {\r\n            mintTokenAmount = toAmount;\r\n        } else {\r\n            address[] memory path = _getPathFromMint(to);\r\n            mintTokenAmount = PANCAKE_ROUTER.getAmountsIn(toAmount, path)[0];\r\n        }\r\n\r\n        mintTokenTaxAmount = mintTokenAmount * SELL_TAX / MAX_TAX;\r\n        tokensRequired = getTokenAmountFor(from, mintTokenAmount + mintTokenTaxAmount);\r\n    }\r\n\r\n    function zapInBNB(address to, uint256 minAmountOut, address beneficiary) public payable {\r\n        // First, wrap BNB to WBNB\r\n        IWETH(WBNB_CONTRACT).deposit{value: msg.value}();\r\n\r\n        // Swap WBNB to MINT\r\n        uint256 mintAmount = _swap(WBNB_CONTRACT, MINT_CONTRACT, msg.value);\r\n\r\n        // Finally, buy target tokens with swapped MINT\r\n        _buyMintClubTokenAndSend(to, mintAmount, minAmountOut, _getBeneficiary(beneficiary));\r\n    }\r\n\r\n    function zapIn(address from, address to, uint256 amountIn, uint256 minAmountOut, address beneficiary) public {\r\n        // First, pull tokens to this contract\r\n        IERC20 token = IERC20(from);\r\n        require(token.allowance(_msgSender(), address(this)) >= amountIn, 'NOT_ENOUGH_ALLOWANCE');\r\n        IERC20(from).safeTransferFrom(_msgSender(), address(this), amountIn);\r\n\r\n        // Swap to MINT if necessary\r\n        uint256 mintAmount;\r\n        if (from == MINT_CONTRACT) {\r\n            mintAmount = amountIn;\r\n        } else {\r\n            mintAmount = _swap(from, MINT_CONTRACT, amountIn);\r\n        }\r\n\r\n        // Finally, buy target tokens with swapped MINT\r\n        _buyMintClubTokenAndSend(to, mintAmount, minAmountOut, _getBeneficiary(beneficiary));\r\n    }\r\n\r\n    function createAndZapIn(string memory name, string memory symbol, uint256 maxTokenSupply, address token, uint256 tokenAmount, uint256 minAmountOut, address beneficiary) external {\r\n        address newToken = BOND.createToken(name, symbol, maxTokenSupply);\r\n\r\n        // We need `minAmountOut` here token->MINT can be front ran and slippage my happen\r\n        zapIn(token, newToken, tokenAmount, minAmountOut, _getBeneficiary(beneficiary));\r\n    }\r\n\r\n    function createAndZapInBNB(string memory name, string memory symbol, uint256 maxTokenSupply, uint256 minAmountOut, address beneficiary) external payable {\r\n        address newToken = BOND.createToken(name, symbol, maxTokenSupply);\r\n\r\n        zapInBNB(newToken, minAmountOut, _getBeneficiary(beneficiary));\r\n    }\r\n\r\n    function zapOut(address from, address to, uint256 amountIn, uint256 minAmountOut, address beneficiary) external {\r\n        uint256 mintAmount = _receiveAndSwapToMint(from, amountIn, _getBeneficiary(beneficiary));\r\n\r\n        // Swap to MINT if necessary\r\n        IERC20 toToken;\r\n        uint256 amountOut;\r\n        if (to == MINT_CONTRACT) {\r\n            toToken = IERC20(MINT_CONTRACT);\r\n            amountOut = mintAmount;\r\n        } else {\r\n            toToken = IERC20(to);\r\n            amountOut = _swap(MINT_CONTRACT, to, mintAmount);\r\n        }\r\n\r\n        // Check slippage limit\r\n        require(amountOut >= minAmountOut, 'ZAP_SLIPPAGE_LIMIT_EXCEEDED');\r\n\r\n        // Send the token to the user\r\n        require(toToken.transfer(_msgSender(), amountOut), 'BALANCE_TRANSFER_FAILED');\r\n    }\r\n\r\n    function zapOutBNB(address from, uint256 amountIn, uint256 minAmountOut, address beneficiary) external {\r\n        uint256 mintAmount = _receiveAndSwapToMint(from, amountIn, _getBeneficiary(beneficiary));\r\n\r\n        // Swap to MINT to BNB\r\n        uint256 amountOut = _swap(MINT_CONTRACT, WBNB_CONTRACT, mintAmount);\r\n        IWETH(WBNB_CONTRACT).withdraw(amountOut);\r\n\r\n        // Check slippage limit\r\n        require(amountOut >= minAmountOut, 'ZAP_SLIPPAGE_LIMIT_EXCEEDED');\r\n\r\n        // TODO: FIXME!!!!!\r\n\r\n        // Send BNB to user\r\n        (bool sent, ) = _msgSender().call{value: amountOut}(\"\");\r\n        require(sent, \"BNB_TRANSFER_FAILED\");\r\n    }\r\n\r\n    function _buyMintClubTokenAndSend(address tokenAddress, uint256 mintAmount, uint256 minAmountOut, address beneficiary) internal {\r\n        // Finally, buy target tokens with swapped MINT (can be reverted due to slippage limit)\r\n        BOND.buy(tokenAddress, mintAmount, minAmountOut, _getBeneficiary(beneficiary));\r\n\r\n        // BOND.buy doesn't return any value, so we need to calculate the purchased amount\r\n        IERC20 token = IERC20(tokenAddress);\r\n        require(token.transfer(_msgSender(), token.balanceOf(address(this))), 'BALANCE_TRANSFER_FAILED');\r\n    }\r\n\r\n    function _receiveAndSwapToMint(address from, uint256 amountIn, address beneficiary) internal returns (uint256) {\r\n        // First, pull tokens to this contract\r\n        IERC20 token = IERC20(from);\r\n        require(token.allowance(_msgSender(), address(this)) >= amountIn, 'NOT_ENOUGH_ALLOWANCE');\r\n        IERC20(from).safeTransferFrom(_msgSender(), address(this), amountIn);\r\n\r\n        // Approve infinitely to this contract\r\n        if (token.allowance(address(this), address(BOND)) < amountIn) {\r\n            require(token.approve(address(BOND), 0xffffffffffffffffffffffffffffffffffffffffffffffffffffffffffffffff), 'APPROVE_FAILED');\r\n        }\r\n\r\n        // Sell tokens to MINT\r\n        // NOTE: ignore minRefund (set as 0) for now, we should check it later on zapOut\r\n        BOND.sell(from, amountIn, 0, _getBeneficiary(beneficiary));\r\n        IERC20 mintToken = IERC20(MINT_CONTRACT);\r\n\r\n        return mintToken.balanceOf(address(this));\r\n    }\r\n\r\n\r\n    function _getPathToMint(address from) internal pure returns (address[] memory path) {\r\n        if (from == WBNB_CONTRACT) {\r\n            path = new address[](2);\r\n            path[0] = WBNB_CONTRACT;\r\n            path[1] = MINT_CONTRACT;\r\n        } else {\r\n            path = new address[](3);\r\n            path[0] = from;\r\n            path[1] = WBNB_CONTRACT;\r\n            path[2] = MINT_CONTRACT;\r\n        }\r\n    }\r\n\r\n    function _getPathFromMint(address to) internal pure returns (address[] memory path) {\r\n        if (to == WBNB_CONTRACT) {\r\n            path = new address[](2);\r\n            path[0] = MINT_CONTRACT;\r\n            path[1] = WBNB_CONTRACT;\r\n        } else {\r\n            path = new address[](3);\r\n            path[0] = MINT_CONTRACT;\r\n            path[1] = WBNB_CONTRACT;\r\n            path[2] = to;\r\n        }\r\n    }\r\n\r\n    function _approveToken(address tokenAddress, address spender) internal {\r\n        IERC20 token = IERC20(tokenAddress);\r\n        if (token.allowance(address(this), spender) > 0) {\r\n            return;\r\n        } else {\r\n            token.safeApprove(spender, type(uint256).max);\r\n        }\r\n    }\r\n\r\n    /**\r\n        @notice This function is used to swap ERC20 <> ERC20\r\n        @param from The token address to swap from.\r\n        @param to The token address to swap to.\r\n        @param amount The amount of tokens to swap\r\n        @return boughtAmount The quantity of tokens bought\r\n    */\r\n    function _swap(address from, address to, uint256 amount) internal returns (uint256 boughtAmount) {\r\n        if (from == to) {\r\n            return amount;\r\n        }\r\n\r\n        _approveToken(from, address(PANCAKE_ROUTER));\r\n\r\n        address[] memory path;\r\n\r\n        if (to == MINT_CONTRACT) {\r\n            path = _getPathToMint(from);\r\n        } else if (from == MINT_CONTRACT) {\r\n            path = _getPathFromMint(to);\r\n        } else {\r\n            revert('INVALID_PATH');\r\n        }\r\n\r\n        // Check if there's a liquidity pool for paths\r\n        // path.length is always 2 or 3\r\n        for (uint8 i = 0; i < path.length - 1; i++) {\r\n            address pair = PANCAKE_FACTORY.getPair(path[i], path[i + 1]);\r\n            require(pair != address(0), 'INVALID_SWAP_PATH');\r\n        }\r\n\r\n        boughtAmount = PANCAKE_ROUTER.swapExactTokensForTokens(\r\n            amount,\r\n            1, // amountOutMin\r\n            path,\r\n            address(this), // to: Recipient of the output tokens\r\n            DEAD_LINE\r\n        )[path.length - 1];\r\n\r\n        require(boughtAmount > 0, 'SWAP_ERROR');\r\n    }\r\n\r\n    // Prevent self referral\r\n    function _getBeneficiary(address beneficiary) internal view returns (address) {\r\n        if (beneficiary == address(0) || beneficiary == _msgSender()) {\r\n           return DEFAULT_BENEFICIARY;\r\n        } else {\r\n            return beneficiary;\r\n        }\r\n    }\r\n}",
  "sourcePath": "C:/Users/Gunner/Desktop/ChangeTheBlock/tmr-api/src/smart-contracts/contracts/MintClubZapV5.sol",
  "compiler": {
    "name": "solc",
    "version": "0.8.13+commit.abaa5c0e.Emscripten.clang"
  },
  "schemaVersion": "3.3.4",
  "updatedAt": "2022-03-23T18:21:32.301Z",
  "devdoc": {
    "kind": "dev",
    "methods": {},
    "title": "MintClubZapV5 extension contract (5.0.0)",
    "version": 1
  },
  "userdoc": {
    "kind": "user",
    "methods": {},
    "version": 1
  }
}