{
  "contractName": "MyToken",
  "abi": [
    {
      "inputs": [],
      "stateMutability": "nonpayable",
      "type": "constructor"
    },
    {
      "anonymous": false,
      "inputs": [
        {
          "indexed": true,
          "internalType": "address",
          "name": "account",
          "type": "address"
        },
        {
          "indexed": true,
          "internalType": "address",
          "name": "operator",
          "type": "address"
        },
        {
          "indexed": false,
          "internalType": "bool",
          "name": "approved",
          "type": "bool"
        }
      ],
      "name": "ApprovalForAll",
      "type": "event"
    },
    {
      "anonymous": false,
      "inputs": [
        {
          "indexed": true,
          "internalType": "address",
          "name": "previousOwner",
          "type": "address"
        },
        {
          "indexed": true,
          "internalType": "address",
          "name": "newOwner",
          "type": "address"
        }
      ],
      "name": "OwnershipTransferred",
      "type": "event"
    },
    {
      "anonymous": false,
      "inputs": [
        {
          "indexed": true,
          "internalType": "address",
          "name": "operator",
          "type": "address"
        },
        {
          "indexed": true,
          "internalType": "address",
          "name": "from",
          "type": "address"
        },
        {
          "indexed": true,
          "internalType": "address",
          "name": "to",
          "type": "address"
        },
        {
          "indexed": false,
          "internalType": "uint256[]",
          "name": "ids",
          "type": "uint256[]"
        },
        {
          "indexed": false,
          "internalType": "uint256[]",
          "name": "values",
          "type": "uint256[]"
        }
      ],
      "name": "TransferBatch",
      "type": "event"
    },
    {
      "anonymous": false,
      "inputs": [
        {
          "indexed": true,
          "internalType": "address",
          "name": "operator",
          "type": "address"
        },
        {
          "indexed": true,
          "internalType": "address",
          "name": "from",
          "type": "address"
        },
        {
          "indexed": true,
          "internalType": "address",
          "name": "to",
          "type": "address"
        },
        {
          "indexed": false,
          "internalType": "uint256",
          "name": "id",
          "type": "uint256"
        },
        {
          "indexed": false,
          "internalType": "uint256",
          "name": "value",
          "type": "uint256"
        }
      ],
      "name": "TransferSingle",
      "type": "event"
    },
    {
      "anonymous": false,
      "inputs": [
        {
          "indexed": false,
          "internalType": "string",
          "name": "value",
          "type": "string"
        },
        {
          "indexed": true,
          "internalType": "uint256",
          "name": "id",
          "type": "uint256"
        }
      ],
      "name": "URI",
      "type": "event"
    },
    {
      "inputs": [
        {
          "internalType": "address",
          "name": "account",
          "type": "address"
        },
        {
          "internalType": "uint256",
          "name": "id",
          "type": "uint256"
        }
      ],
      "name": "balanceOf",
      "outputs": [
        {
          "internalType": "uint256",
          "name": "",
          "type": "uint256"
        }
      ],
      "stateMutability": "view",
      "type": "function"
    },
    {
      "inputs": [
        {
          "internalType": "address[]",
          "name": "accounts",
          "type": "address[]"
        },
        {
          "internalType": "uint256[]",
          "name": "ids",
          "type": "uint256[]"
        }
      ],
      "name": "balanceOfBatch",
      "outputs": [
        {
          "internalType": "uint256[]",
          "name": "",
          "type": "uint256[]"
        }
      ],
      "stateMutability": "view",
      "type": "function"
    },
    {
      "inputs": [
        {
          "internalType": "uint256",
          "name": "id",
          "type": "uint256"
        }
      ],
      "name": "exists",
      "outputs": [
        {
          "internalType": "bool",
          "name": "",
          "type": "bool"
        }
      ],
      "stateMutability": "view",
      "type": "function"
    },
    {
      "inputs": [
        {
          "internalType": "address",
          "name": "account",
          "type": "address"
        },
        {
          "internalType": "address",
          "name": "operator",
          "type": "address"
        }
      ],
      "name": "isApprovedForAll",
      "outputs": [
        {
          "internalType": "bool",
          "name": "",
          "type": "bool"
        }
      ],
      "stateMutability": "view",
      "type": "function"
    },
    {
      "inputs": [],
      "name": "owner",
      "outputs": [
        {
          "internalType": "address",
          "name": "",
          "type": "address"
        }
      ],
      "stateMutability": "view",
      "type": "function"
    },
    {
      "inputs": [],
      "name": "renounceOwnership",
      "outputs": [],
      "stateMutability": "nonpayable",
      "type": "function"
    },
    {
      "inputs": [
        {
          "internalType": "address",
          "name": "from",
          "type": "address"
        },
        {
          "internalType": "address",
          "name": "to",
          "type": "address"
        },
        {
          "internalType": "uint256[]",
          "name": "ids",
          "type": "uint256[]"
        },
        {
          "internalType": "uint256[]",
          "name": "amounts",
          "type": "uint256[]"
        },
        {
          "internalType": "bytes",
          "name": "data",
          "type": "bytes"
        }
      ],
      "name": "safeBatchTransferFrom",
      "outputs": [],
      "stateMutability": "nonpayable",
      "type": "function"
    },
    {
      "inputs": [
        {
          "internalType": "address",
          "name": "from",
          "type": "address"
        },
        {
          "internalType": "address",
          "name": "to",
          "type": "address"
        },
        {
          "internalType": "uint256",
          "name": "id",
          "type": "uint256"
        },
        {
          "internalType": "uint256",
          "name": "amount",
          "type": "uint256"
        },
        {
          "internalType": "bytes",
          "name": "data",
          "type": "bytes"
        }
      ],
      "name": "safeTransferFrom",
      "outputs": [],
      "stateMutability": "nonpayable",
      "type": "function"
    },
    {
      "inputs": [
        {
          "internalType": "address",
          "name": "operator",
          "type": "address"
        },
        {
          "internalType": "bool",
          "name": "approved",
          "type": "bool"
        }
      ],
      "name": "setApprovalForAll",
      "outputs": [],
      "stateMutability": "nonpayable",
      "type": "function"
    },
    {
      "inputs": [
        {
          "internalType": "bytes4",
          "name": "interfaceId",
          "type": "bytes4"
        }
      ],
      "name": "supportsInterface",
      "outputs": [
        {
          "internalType": "bool",
          "name": "",
          "type": "bool"
        }
      ],
      "stateMutability": "view",
      "type": "function"
    },
    {
      "inputs": [
        {
          "internalType": "uint256",
          "name": "id",
          "type": "uint256"
        }
      ],
      "name": "totalSupply",
      "outputs": [
        {
          "internalType": "uint256",
          "name": "",
          "type": "uint256"
        }
      ],
      "stateMutability": "view",
      "type": "function"
    },
    {
      "inputs": [
        {
          "internalType": "address",
          "name": "newOwner",
          "type": "address"
        }
      ],
      "name": "transferOwnership",
      "outputs": [],
      "stateMutability": "nonpayable",
      "type": "function"
    },
    {
      "inputs": [
        {
          "internalType": "uint256",
          "name": "",
          "type": "uint256"
        }
      ],
      "name": "uri",
      "outputs": [
        {
          "internalType": "string",
          "name": "",
          "type": "string"
        }
      ],
      "stateMutability": "view",
      "type": "function"
    },
    {
      "inputs": [
        {
          "internalType": "string",
          "name": "newuri",
          "type": "string"
        }
      ],
      "name": "setURI",
      "outputs": [],
      "stateMutability": "nonpayable",
      "type": "function"
    },
    {
      "inputs": [
        {
          "internalType": "address",
          "name": "account",
          "type": "address"
        },
        {
          "internalType": "uint256",
          "name": "id",
          "type": "uint256"
        },
        {
          "internalType": "uint256",
          "name": "amount",
          "type": "uint256"
        },
        {
          "internalType": "bytes",
          "name": "data",
          "type": "bytes"
        }
      ],
      "name": "mint",
      "outputs": [],
      "stateMutability": "nonpayable",
      "type": "function"
    },
    {
      "inputs": [
        {
          "internalType": "address",
          "name": "to",
          "type": "address"
        },
        {
          "internalType": "uint256[]",
          "name": "ids",
          "type": "uint256[]"
        },
        {
          "internalType": "uint256[]",
          "name": "amounts",
          "type": "uint256[]"
        },
        {
          "internalType": "bytes",
          "name": "data",
          "type": "bytes"
        }
      ],
      "name": "mintBatch",
      "outputs": [],
      "stateMutability": "nonpayable",
      "type": "function"
    }
  ],
  "bytecode": "0x60806040523480156200001157600080fd5b506040518060a0016040528060718152602001620037db607191396200003d816200006460201b60201c565b506200005e620000526200008060201b60201c565b6200008860201b60201c565b62000262565b80600290805190602001906200007c9291906200014e565b5050565b600033905090565b6000600360009054906101000a900473ffffffffffffffffffffffffffffffffffffffff16905081600360006101000a81548173ffffffffffffffffffffffffffffffffffffffff021916908373ffffffffffffffffffffffffffffffffffffffff1602179055508173ffffffffffffffffffffffffffffffffffffffff168173ffffffffffffffffffffffffffffffffffffffff167f8be0079c531659141344cd1fd0a4f28419497f9722a3daafe3b4186f6b6457e060405160405180910390a35050565b8280546200015c906200022d565b90600052602060002090601f016020900481019282620001805760008555620001cc565b82601f106200019b57805160ff1916838001178555620001cc565b82800160010185558215620001cc579182015b82811115620001cb578251825591602001919060010190620001ae565b5b509050620001db9190620001df565b5090565b5b80821115620001fa576000816000905550600101620001e0565b5090565b7f4e487b7100000000000000000000000000000000000000000000000000000000600052602260045260246000fd5b600060028204905060018216806200024657607f821691505b6020821081036200025c576200025b620001fe565b5b50919050565b61356980620002726000396000f3fe608060405234801561001057600080fd5b50600436106100ff5760003560e01c8063715018a611610097578063bd85b03911610066578063bd85b039146102a8578063e985e9c5146102d8578063f242432a14610308578063f2fde38b14610324576100ff565b8063715018a614610248578063731133e9146102525780638da5cb5b1461026e578063a22cb4651461028c576100ff565b80631f7fdffa116100d35780631f7fdffa146101b05780632eb2c2d6146101cc5780634e1273f4146101e85780634f558e7914610218576100ff565b8062fdd58e1461010457806301ffc9a71461013457806302fe5305146101645780630e89341c14610180575b600080fd5b61011e60048036038101906101199190611f31565b610340565b60405161012b9190611f80565b60405180910390f35b61014e60048036038101906101499190611ff3565b610408565b60405161015b919061203b565b60405180910390f35b61017e6004803603810190610179919061219c565b6104ea565b005b61019a600480360381019061019591906121e5565b610572565b6040516101a7919061229a565b60405180910390f35b6101ca60048036038101906101c59190612425565b610606565b005b6101e660048036038101906101e191906124e0565b610694565b005b61020260048036038101906101fd9190612672565b610735565b60405161020f91906127a8565b60405180910390f35b610232600480360381019061022d91906121e5565b61084e565b60405161023f919061203b565b60405180910390f35b610250610862565b005b61026c600480360381019061026791906127ca565b6108ea565b005b610276610978565b604051610283919061285c565b60405180910390f35b6102a660048036038101906102a191906128a3565b6109a2565b005b6102c260048036038101906102bd91906121e5565b6109b8565b6040516102cf9190611f80565b60405180910390f35b6102f260048036038101906102ed91906128e3565b6109d5565b6040516102ff919061203b565b60405180910390f35b610322600480360381019061031d9190612923565b610a69565b005b61033e600480360381019061033991906129ba565b610b0a565b005b60008073ffffffffffffffffffffffffffffffffffffffff168373ffffffffffffffffffffffffffffffffffffffff16036103b0576040517f08c379a00000000000000000000000000000000000000000000000000000000081526004016103a790612a59565b60405180910390fd5b60008083815260200190815260200160002060008473ffffffffffffffffffffffffffffffffffffffff1673ffffffffffffffffffffffffffffffffffffffff16815260200190815260200160002054905092915050565b60007fd9b67a26000000000000000000000000000000000000000000000000000000007bffffffffffffffffffffffffffffffffffffffffffffffffffffffff1916827bffffffffffffffffffffffffffffffffffffffffffffffffffffffff191614806104d357507f0e89341c000000000000000000000000000000000000000000000000000000007bffffffffffffffffffffffffffffffffffffffffffffffffffffffff1916827bffffffffffffffffffffffffffffffffffffffffffffffffffffffff1916145b806104e357506104e282610c01565b5b9050919050565b6104f2610c6b565b73ffffffffffffffffffffffffffffffffffffffff16610510610978565b73ffffffffffffffffffffffffffffffffffffffff1614610566576040517f08c379a000000000000000000000000000000000000000000000000000000000815260040161055d90612ac5565b60405180910390fd5b61056f81610c73565b50565b60606002805461058190612b14565b80601f01602080910402602001604051908101604052809291908181526020018280546105ad90612b14565b80156105fa5780601f106105cf576101008083540402835291602001916105fa565b820191906000526020600020905b8154815290600101906020018083116105dd57829003601f168201915b50505050509050919050565b61060e610c6b565b73ffffffffffffffffffffffffffffffffffffffff1661062c610978565b73ffffffffffffffffffffffffffffffffffffffff1614610682576040517f08c379a000000000000000000000000000000000000000000000000000000000815260040161067990612ac5565b60405180910390fd5b61068e84848484610c8d565b50505050565b61069c610c6b565b73ffffffffffffffffffffffffffffffffffffffff168573ffffffffffffffffffffffffffffffffffffffff1614806106e257506106e1856106dc610c6b565b6109d5565b5b610721576040517f08c379a000000000000000000000000000000000000000000000000000000000815260040161071890612bb7565b60405180910390fd5b61072e8585858585610eaa565b5050505050565b6060815183511461077b576040517f08c379a000000000000000000000000000000000000000000000000000000000815260040161077290612c49565b60405180910390fd5b6000835167ffffffffffffffff81111561079857610797612071565b5b6040519080825280602002602001820160405280156107c65781602001602082028036833780820191505090505b50905060005b8451811015610843576108138582815181106107eb576107ea612c69565b5b602002602001015185838151811061080657610805612c69565b5b6020026020010151610340565b82828151811061082657610825612c69565b5b6020026020010181815250508061083c90612cc7565b90506107cc565b508091505092915050565b60008061085a836109b8565b119050919050565b61086a610c6b565b73ffffffffffffffffffffffffffffffffffffffff16610888610978565b73ffffffffffffffffffffffffffffffffffffffff16146108de576040517f08c379a00000000000000000000000000000000000000000000000000000000081526004016108d590612ac5565b60405180910390fd5b6108e860006111bd565b565b6108f2610c6b565b73ffffffffffffffffffffffffffffffffffffffff16610910610978565b73ffffffffffffffffffffffffffffffffffffffff1614610966576040517f08c379a000000000000000000000000000000000000000000000000000000000815260040161095d90612ac5565b60405180910390fd5b61097284848484611283565b50505050565b6000600360009054906101000a900473ffffffffffffffffffffffffffffffffffffffff16905090565b6109b46109ad610c6b565b8383611418565b5050565b600060046000838152602001908152602001600020549050919050565b6000600160008473ffffffffffffffffffffffffffffffffffffffff1673ffffffffffffffffffffffffffffffffffffffff16815260200190815260200160002060008373ffffffffffffffffffffffffffffffffffffffff1673ffffffffffffffffffffffffffffffffffffffff16815260200190815260200160002060009054906101000a900460ff16905092915050565b610a71610c6b565b73ffffffffffffffffffffffffffffffffffffffff168573ffffffffffffffffffffffffffffffffffffffff161480610ab75750610ab685610ab1610c6b565b6109d5565b5b610af6576040517f08c379a0000000000000000000000000000000000000000000000000000000008152600401610aed90612d81565b60405180910390fd5b610b038585858585611584565b5050505050565b610b12610c6b565b73ffffffffffffffffffffffffffffffffffffffff16610b30610978565b73ffffffffffffffffffffffffffffffffffffffff1614610b86576040517f08c379a0000000000000000000000000000000000000000000000000000000008152600401610b7d90612ac5565b60405180910390fd5b600073ffffffffffffffffffffffffffffffffffffffff168173ffffffffffffffffffffffffffffffffffffffff1603610bf5576040517f08c379a0000000000000000000000000000000000000000000000000000000008152600401610bec90612e13565b60405180910390fd5b610bfe816111bd565b50565b60007f01ffc9a7000000000000000000000000000000000000000000000000000000007bffffffffffffffffffffffffffffffffffffffffffffffffffffffff1916827bffffffffffffffffffffffffffffffffffffffffffffffffffffffff1916149050919050565b600033905090565b8060029080519060200190610c89929190611de6565b5050565b600073ffffffffffffffffffffffffffffffffffffffff168473ffffffffffffffffffffffffffffffffffffffff1603610cfc576040517f08c379a0000000000000000000000000000000000000000000000000000000008152600401610cf390612ea5565b60405180910390fd5b8151835114610d40576040517f08c379a0000000000000000000000000000000000000000000000000000000008152600401610d3790612f37565b60405180910390fd5b6000610d4a610c6b565b9050610d5b81600087878787611805565b60005b8451811015610e1457838181518110610d7a57610d79612c69565b5b6020026020010151600080878481518110610d9857610d97612c69565b5b6020026020010151815260200190815260200160002060008873ffffffffffffffffffffffffffffffffffffffff1673ffffffffffffffffffffffffffffffffffffffff1681526020019081526020016000206000828254610dfa9190612f57565b925050819055508080610e0c90612cc7565b915050610d5e565b508473ffffffffffffffffffffffffffffffffffffffff16600073ffffffffffffffffffffffffffffffffffffffff168273ffffffffffffffffffffffffffffffffffffffff167f4a39dc06d4c0dbc64b70af90fd698a233a518aa5d07e595d983b8c0526c8f7fb8787604051610e8c929190612fad565b60405180910390a4610ea38160008787878761181b565b5050505050565b8151835114610eee576040517f08c379a0000000000000000000000000000000000000000000000000000000008152600401610ee590612f37565b60405180910390fd5b600073ffffffffffffffffffffffffffffffffffffffff168473ffffffffffffffffffffffffffffffffffffffff1603610f5d576040517f08c379a0000000000000000000000000000000000000000000000000000000008152600401610f5490613056565b60405180910390fd5b6000610f67610c6b565b9050610f77818787878787611805565b60005b8451811015611128576000858281518110610f9857610f97612c69565b5b602002602001015190506000858381518110610fb757610fb6612c69565b5b60200260200101519050600080600084815260200190815260200160002060008b73ffffffffffffffffffffffffffffffffffffffff1673ffffffffffffffffffffffffffffffffffffffff16815260200190815260200160002054905081811015611058576040517f08c379a000000000000000000000000000000000000000000000000000000000815260040161104f906130e8565b60405180910390fd5b81810360008085815260200190815260200160002060008c73ffffffffffffffffffffffffffffffffffffffff1673ffffffffffffffffffffffffffffffffffffffff168152602001908152602001600020819055508160008085815260200190815260200160002060008b73ffffffffffffffffffffffffffffffffffffffff1673ffffffffffffffffffffffffffffffffffffffff168152602001908152602001600020600082825461110d9190612f57565b925050819055505050508061112190612cc7565b9050610f7a565b508473ffffffffffffffffffffffffffffffffffffffff168673ffffffffffffffffffffffffffffffffffffffff168273ffffffffffffffffffffffffffffffffffffffff167f4a39dc06d4c0dbc64b70af90fd698a233a518aa5d07e595d983b8c0526c8f7fb878760405161119f929190612fad565b60405180910390a46111b581878787878761181b565b505050505050565b6000600360009054906101000a900473ffffffffffffffffffffffffffffffffffffffff16905081600360006101000a81548173ffffffffffffffffffffffffffffffffffffffff021916908373ffffffffffffffffffffffffffffffffffffffff1602179055508173ffffffffffffffffffffffffffffffffffffffff168173ffffffffffffffffffffffffffffffffffffffff167f8be0079c531659141344cd1fd0a4f28419497f9722a3daafe3b4186f6b6457e060405160405180910390a35050565b600073ffffffffffffffffffffffffffffffffffffffff168473ffffffffffffffffffffffffffffffffffffffff16036112f2576040517f08c379a00000000000000000000000000000000000000000000000000000000081526004016112e990612ea5565b60405180910390fd5b60006112fc610c6b565b905061131d8160008761130e886119f2565b611317886119f2565b87611805565b8260008086815260200190815260200160002060008773ffffffffffffffffffffffffffffffffffffffff1673ffffffffffffffffffffffffffffffffffffffff168152602001908152602001600020600082825461137c9190612f57565b925050819055508473ffffffffffffffffffffffffffffffffffffffff16600073ffffffffffffffffffffffffffffffffffffffff168273ffffffffffffffffffffffffffffffffffffffff167fc3d58168c5ae7397731d063d5bbf3d657854427343f4c083240f7aacaa2d0f6287876040516113fa929190613108565b60405180910390a461141181600087878787611a6c565b5050505050565b8173ffffffffffffffffffffffffffffffffffffffff168373ffffffffffffffffffffffffffffffffffffffff1603611486576040517f08c379a000000000000000000000000000000000000000000000000000000000815260040161147d906131a3565b60405180910390fd5b80600160008573ffffffffffffffffffffffffffffffffffffffff1673ffffffffffffffffffffffffffffffffffffffff16815260200190815260200160002060008473ffffffffffffffffffffffffffffffffffffffff1673ffffffffffffffffffffffffffffffffffffffff16815260200190815260200160002060006101000a81548160ff0219169083151502179055508173ffffffffffffffffffffffffffffffffffffffff168373ffffffffffffffffffffffffffffffffffffffff167f17307eab39ab6107e8899845ad3d59bd9653f200f220920489ca2b5937696c3183604051611577919061203b565b60405180910390a3505050565b600073ffffffffffffffffffffffffffffffffffffffff168473ffffffffffffffffffffffffffffffffffffffff16036115f3576040517f08c379a00000000000000000000000000000000000000000000000000000000081526004016115ea90613056565b60405180910390fd5b60006115fd610c6b565b905061161d81878761160e886119f2565b611617886119f2565b87611805565b600080600086815260200190815260200160002060008873ffffffffffffffffffffffffffffffffffffffff1673ffffffffffffffffffffffffffffffffffffffff168152602001908152602001600020549050838110156116b4576040517f08c379a00000000000000000000000000000000000000000000000000000000081526004016116ab906130e8565b60405180910390fd5b83810360008087815260200190815260200160002060008973ffffffffffffffffffffffffffffffffffffffff1673ffffffffffffffffffffffffffffffffffffffff168152602001908152602001600020819055508360008087815260200190815260200160002060008873ffffffffffffffffffffffffffffffffffffffff1673ffffffffffffffffffffffffffffffffffffffff16815260200190815260200160002060008282546117699190612f57565b925050819055508573ffffffffffffffffffffffffffffffffffffffff168773ffffffffffffffffffffffffffffffffffffffff168373ffffffffffffffffffffffffffffffffffffffff167fc3d58168c5ae7397731d063d5bbf3d657854427343f4c083240f7aacaa2d0f6288886040516117e6929190613108565b60405180910390a46117fc828888888888611a6c565b50505050505050565b611813868686868686611c43565b505050505050565b61183a8473ffffffffffffffffffffffffffffffffffffffff16611dbb565b156119ea578373ffffffffffffffffffffffffffffffffffffffff1663bc197c8187878686866040518663ffffffff1660e01b8152600401611880959493929190613218565b6020604051808303816000875af19250505080156118bc57506040513d601f19601f820116820180604052508101906118b99190613295565b60015b611961576118c86132cf565b806308c379a00361192457506118dc6132f1565b806118e75750611926565b806040517f08c379a000000000000000000000000000000000000000000000000000000000815260040161191b919061229a565b60405180910390fd5b505b6040517f08c379a0000000000000000000000000000000000000000000000000000000008152600401611958906133f3565b60405180910390fd5b63bc197c8160e01b7bffffffffffffffffffffffffffffffffffffffffffffffffffffffff1916817bffffffffffffffffffffffffffffffffffffffffffffffffffffffff1916146119e8576040517f08c379a00000000000000000000000000000000000000000000000000000000081526004016119df90613485565b60405180910390fd5b505b505050505050565b60606000600167ffffffffffffffff811115611a1157611a10612071565b5b604051908082528060200260200182016040528015611a3f5781602001602082028036833780820191505090505b5090508281600081518110611a5757611a56612c69565b5b60200260200101818152505080915050919050565b611a8b8473ffffffffffffffffffffffffffffffffffffffff16611dbb565b15611c3b578373ffffffffffffffffffffffffffffffffffffffff1663f23a6e6187878686866040518663ffffffff1660e01b8152600401611ad19594939291906134a5565b6020604051808303816000875af1925050508015611b0d57506040513d601f19601f82011682018060405250810190611b0a9190613295565b60015b611bb257611b196132cf565b806308c379a003611b755750611b2d6132f1565b80611b385750611b77565b806040517f08c379a0000000000000000000000000000000000000000000000000000000008152600401611b6c919061229a565b60405180910390fd5b505b6040517f08c379a0000000000000000000000000000000000000000000000000000000008152600401611ba9906133f3565b60405180910390fd5b63f23a6e6160e01b7bffffffffffffffffffffffffffffffffffffffffffffffffffffffff1916817bffffffffffffffffffffffffffffffffffffffffffffffffffffffff191614611c39576040517f08c379a0000000000000000000000000000000000000000000000000000000008152600401611c3090613485565b60405180910390fd5b505b505050505050565b611c51868686868686611dde565b600073ffffffffffffffffffffffffffffffffffffffff168573ffffffffffffffffffffffffffffffffffffffff1603611d025760005b8351811015611d0057828181518110611ca457611ca3612c69565b5b602002602001015160046000868481518110611cc357611cc2612c69565b5b602002602001015181526020019081526020016000206000828254611ce89190612f57565b9250508190555080611cf990612cc7565b9050611c88565b505b600073ffffffffffffffffffffffffffffffffffffffff168473ffffffffffffffffffffffffffffffffffffffff1603611db35760005b8351811015611db157828181518110611d5557611d54612c69565b5b602002602001015160046000868481518110611d7457611d73612c69565b5b602002602001015181526020019081526020016000206000828254611d9991906134ff565b9250508190555080611daa90612cc7565b9050611d39565b505b505050505050565b6000808273ffffffffffffffffffffffffffffffffffffffff163b119050919050565b505050505050565b828054611df290612b14565b90600052602060002090601f016020900481019282611e145760008555611e5b565b82601f10611e2d57805160ff1916838001178555611e5b565b82800160010185558215611e5b579182015b82811115611e5a578251825591602001919060010190611e3f565b5b509050611e689190611e6c565b5090565b5b80821115611e85576000816000905550600101611e6d565b5090565b6000604051905090565b600080fd5b600080fd5b600073ffffffffffffffffffffffffffffffffffffffff82169050919050565b6000611ec882611e9d565b9050919050565b611ed881611ebd565b8114611ee357600080fd5b50565b600081359050611ef581611ecf565b92915050565b6000819050919050565b611f0e81611efb565b8114611f1957600080fd5b50565b600081359050611f2b81611f05565b92915050565b60008060408385031215611f4857611f47611e93565b5b6000611f5685828601611ee6565b9250506020611f6785828601611f1c565b9150509250929050565b611f7a81611efb565b82525050565b6000602082019050611f956000830184611f71565b92915050565b60007fffffffff0000000000000000000000000000000000000000000000000000000082169050919050565b611fd081611f9b565b8114611fdb57600080fd5b50565b600081359050611fed81611fc7565b92915050565b60006020828403121561200957612008611e93565b5b600061201784828501611fde565b91505092915050565b60008115159050919050565b61203581612020565b82525050565b6000602082019050612050600083018461202c565b92915050565b600080fd5b600080fd5b6000601f19601f8301169050919050565b7f4e487b7100000000000000000000000000000000000000000000000000000000600052604160045260246000fd5b6120a982612060565b810181811067ffffffffffffffff821117156120c8576120c7612071565b5b80604052505050565b60006120db611e89565b90506120e782826120a0565b919050565b600067ffffffffffffffff82111561210757612106612071565b5b61211082612060565b9050602081019050919050565b82818337600083830152505050565b600061213f61213a846120ec565b6120d1565b90508281526020810184848401111561215b5761215a61205b565b5b61216684828561211d565b509392505050565b600082601f83011261218357612182612056565b5b813561219384826020860161212c565b91505092915050565b6000602082840312156121b2576121b1611e93565b5b600082013567ffffffffffffffff8111156121d0576121cf611e98565b5b6121dc8482850161216e565b91505092915050565b6000602082840312156121fb576121fa611e93565b5b600061220984828501611f1c565b91505092915050565b600081519050919050565b600082825260208201905092915050565b60005b8381101561224c578082015181840152602081019050612231565b8381111561225b576000848401525b50505050565b600061226c82612212565b612276818561221d565b935061228681856020860161222e565b61228f81612060565b840191505092915050565b600060208201905081810360008301526122b48184612261565b905092915050565b600067ffffffffffffffff8211156122d7576122d6612071565b5b602082029050602081019050919050565b600080fd5b60006123006122fb846122bc565b6120d1565b90508083825260208201905060208402830185811115612323576123226122e8565b5b835b8181101561234c57806123388882611f1c565b845260208401935050602081019050612325565b5050509392505050565b600082601f83011261236b5761236a612056565b5b813561237b8482602086016122ed565b91505092915050565b600067ffffffffffffffff82111561239f5761239e612071565b5b6123a882612060565b9050602081019050919050565b60006123c86123c384612384565b6120d1565b9050828152602081018484840111156123e4576123e361205b565b5b6123ef84828561211d565b509392505050565b600082601f83011261240c5761240b612056565b5b813561241c8482602086016123b5565b91505092915050565b6000806000806080858703121561243f5761243e611e93565b5b600061244d87828801611ee6565b945050602085013567ffffffffffffffff81111561246e5761246d611e98565b5b61247a87828801612356565b935050604085013567ffffffffffffffff81111561249b5761249a611e98565b5b6124a787828801612356565b925050606085013567ffffffffffffffff8111156124c8576124c7611e98565b5b6124d4878288016123f7565b91505092959194509250565b600080600080600060a086880312156124fc576124fb611e93565b5b600061250a88828901611ee6565b955050602061251b88828901611ee6565b945050604086013567ffffffffffffffff81111561253c5761253b611e98565b5b61254888828901612356565b935050606086013567ffffffffffffffff81111561256957612568611e98565b5b61257588828901612356565b925050608086013567ffffffffffffffff81111561259657612595611e98565b5b6125a2888289016123f7565b9150509295509295909350565b600067ffffffffffffffff8211156125ca576125c9612071565b5b602082029050602081019050919050565b60006125ee6125e9846125af565b6120d1565b90508083825260208201905060208402830185811115612611576126106122e8565b5b835b8181101561263a57806126268882611ee6565b845260208401935050602081019050612613565b5050509392505050565b600082601f83011261265957612658612056565b5b81356126698482602086016125db565b91505092915050565b6000806040838503121561268957612688611e93565b5b600083013567ffffffffffffffff8111156126a7576126a6611e98565b5b6126b385828601612644565b925050602083013567ffffffffffffffff8111156126d4576126d3611e98565b5b6126e085828601612356565b9150509250929050565b600081519050919050565b600082825260208201905092915050565b6000819050602082019050919050565b61271f81611efb565b82525050565b60006127318383612716565b60208301905092915050565b6000602082019050919050565b6000612755826126ea565b61275f81856126f5565b935061276a83612706565b8060005b8381101561279b5781516127828882612725565b975061278d8361273d565b92505060018101905061276e565b5085935050505092915050565b600060208201905081810360008301526127c2818461274a565b905092915050565b600080600080608085870312156127e4576127e3611e93565b5b60006127f287828801611ee6565b945050602061280387828801611f1c565b935050604061281487828801611f1c565b925050606085013567ffffffffffffffff81111561283557612834611e98565b5b612841878288016123f7565b91505092959194509250565b61285681611ebd565b82525050565b6000602082019050612871600083018461284d565b92915050565b61288081612020565b811461288b57600080fd5b50565b60008135905061289d81612877565b92915050565b600080604083850312156128ba576128b9611e93565b5b60006128c885828601611ee6565b92505060206128d98582860161288e565b9150509250929050565b600080604083850312156128fa576128f9611e93565b5b600061290885828601611ee6565b925050602061291985828601611ee6565b9150509250929050565b600080600080600060a0868803121561293f5761293e611e93565b5b600061294d88828901611ee6565b955050602061295e88828901611ee6565b945050604061296f88828901611f1c565b935050606061298088828901611f1c565b925050608086013567ffffffffffffffff8111156129a1576129a0611e98565b5b6129ad888289016123f7565b9150509295509295909350565b6000602082840312156129d0576129cf611e93565b5b60006129de84828501611ee6565b91505092915050565b7f455243313135353a2062616c616e636520717565727920666f7220746865207a60008201527f65726f2061646472657373000000000000000000000000000000000000000000602082015250565b6000612a43602b8361221d565b9150612a4e826129e7565b604082019050919050565b60006020820190508181036000830152612a7281612a36565b9050919050565b7f4f776e61626c653a2063616c6c6572206973206e6f7420746865206f776e6572600082015250565b6000612aaf60208361221d565b9150612aba82612a79565b602082019050919050565b60006020820190508181036000830152612ade81612aa2565b9050919050565b7f4e487b7100000000000000000000000000000000000000000000000000000000600052602260045260246000fd5b60006002820490506001821680612b2c57607f821691505b602082108103612b3f57612b3e612ae5565b5b50919050565b7f455243313135353a207472616e736665722063616c6c6572206973206e6f742060008201527f6f776e6572206e6f7220617070726f7665640000000000000000000000000000602082015250565b6000612ba160328361221d565b9150612bac82612b45565b604082019050919050565b60006020820190508181036000830152612bd081612b94565b9050919050565b7f455243313135353a206163636f756e747320616e6420696473206c656e67746860008201527f206d69736d617463680000000000000000000000000000000000000000000000602082015250565b6000612c3360298361221d565b9150612c3e82612bd7565b604082019050919050565b60006020820190508181036000830152612c6281612c26565b9050919050565b7f4e487b7100000000000000000000000000000000000000000000000000000000600052603260045260246000fd5b7f4e487b7100000000000000000000000000000000000000000000000000000000600052601160045260246000fd5b6000612cd282611efb565b91507fffffffffffffffffffffffffffffffffffffffffffffffffffffffffffffffff8203612d0457612d03612c98565b5b600182019050919050565b7f455243313135353a2063616c6c6572206973206e6f74206f776e6572206e6f7260008201527f20617070726f7665640000000000000000000000000000000000000000000000602082015250565b6000612d6b60298361221d565b9150612d7682612d0f565b604082019050919050565b60006020820190508181036000830152612d9a81612d5e565b9050919050565b7f4f776e61626c653a206e6577206f776e657220697320746865207a65726f206160008201527f6464726573730000000000000000000000000000000000000000000000000000602082015250565b6000612dfd60268361221d565b9150612e0882612da1565b604082019050919050565b60006020820190508181036000830152612e2c81612df0565b9050919050565b7f455243313135353a206d696e7420746f20746865207a65726f2061646472657360008201527f7300000000000000000000000000000000000000000000000000000000000000602082015250565b6000612e8f60218361221d565b9150612e9a82612e33565b604082019050919050565b60006020820190508181036000830152612ebe81612e82565b9050919050565b7f455243313135353a2069647320616e6420616d6f756e7473206c656e6774682060008201527f6d69736d61746368000000000000000000000000000000000000000000000000602082015250565b6000612f2160288361221d565b9150612f2c82612ec5565b604082019050919050565b60006020820190508181036000830152612f5081612f14565b9050919050565b6000612f6282611efb565b9150612f6d83611efb565b9250827fffffffffffffffffffffffffffffffffffffffffffffffffffffffffffffffff03821115612fa257612fa1612c98565b5b828201905092915050565b60006040820190508181036000830152612fc7818561274a565b90508181036020830152612fdb818461274a565b90509392505050565b7f455243313135353a207472616e7366657220746f20746865207a65726f20616460008201527f6472657373000000000000000000000000000000000000000000000000000000602082015250565b600061304060258361221d565b915061304b82612fe4565b604082019050919050565b6000602082019050818103600083015261306f81613033565b9050919050565b7f455243313135353a20696e73756666696369656e742062616c616e636520666f60008201527f72207472616e7366657200000000000000000000000000000000000000000000602082015250565b60006130d2602a8361221d565b91506130dd82613076565b604082019050919050565b60006020820190508181036000830152613101816130c5565b9050919050565b600060408201905061311d6000830185611f71565b61312a6020830184611f71565b9392505050565b7f455243313135353a2073657474696e6720617070726f76616c2073746174757360008201527f20666f722073656c660000000000000000000000000000000000000000000000602082015250565b600061318d60298361221d565b915061319882613131565b604082019050919050565b600060208201905081810360008301526131bc81613180565b9050919050565b600081519050919050565b600082825260208201905092915050565b60006131ea826131c3565b6131f481856131ce565b935061320481856020860161222e565b61320d81612060565b840191505092915050565b600060a08201905061322d600083018861284d565b61323a602083018761284d565b818103604083015261324c818661274a565b90508181036060830152613260818561274a565b9050818103608083015261327481846131df565b90509695505050505050565b60008151905061328f81611fc7565b92915050565b6000602082840312156132ab576132aa611e93565b5b60006132b984828501613280565b91505092915050565b60008160e01c9050919050565b600060033d11156132ee5760046000803e6132eb6000516132c2565b90505b90565b600060443d1061337e57613303611e89565b60043d036004823e80513d602482011167ffffffffffffffff8211171561332b57505061337e565b808201805167ffffffffffffffff811115613349575050505061337e565b80602083010160043d03850181111561336657505050505061337e565b613375826020018501866120a0565b82955050505050505b90565b7f455243313135353a207472616e7366657220746f206e6f6e204552433131353560008201527f526563656976657220696d706c656d656e746572000000000000000000000000602082015250565b60006133dd60348361221d565b91506133e882613381565b604082019050919050565b6000602082019050818103600083015261340c816133d0565b9050919050565b7f455243313135353a204552433131353552656365697665722072656a6563746560008201527f6420746f6b656e73000000000000000000000000000000000000000000000000602082015250565b600061346f60288361221d565b915061347a82613413565b604082019050919050565b6000602082019050818103600083015261349e81613462565b9050919050565b600060a0820190506134ba600083018861284d565b6134c7602083018761284d565b6134d46040830186611f71565b6134e16060830185611f71565b81810360808301526134f381846131df565b90509695505050505050565b600061350a82611efb565b915061351583611efb565b92508282101561352857613527612c98565b5b82820390509291505056fea264697066735822122025b4bf589144da42cfe84d2a4804dd412a3a973ce06c5c4dd9a489359ae5935c64736f6c634300080d003368747470733a2f2f73746f726167652e6772612e636c6f75642e6f76682e6e65742f76312f415554485f32393663373830336161353934616636396433396239373039323763386662392f6d656469612f617661746172732f30722f307253486e4877344d4c71486272694d2e6a706567",
  "immutableReferences": {},
  "source": "// SPDX-License-Identifier: MIT\r\npragma solidity ^0.8.4;\r\n\r\nimport \"@openzeppelin/contracts/token/ERC1155/ERC1155.sol\";\r\nimport \"@openzeppelin/contracts/access/Ownable.sol\";\r\nimport \"@openzeppelin/contracts/token/ERC1155/extensions/ERC1155Supply.sol\";\r\n\r\ncontract MyToken is ERC1155, Ownable, ERC1155Supply {\r\n    constructor()\r\n        ERC1155(\"https://storage.gra.cloud.ovh.net/v1/AUTH_296c7803aa594af69d39b970927c8fb9/media/avatars/0r/0rSHnHw4MLqHbriM.jpeg\")\r\n    {}\r\n\r\n    function setURI(string memory newuri) public onlyOwner {\r\n        _setURI(newuri);\r\n    }\r\n\r\n    function mint(address account, uint256 id, uint256 amount, bytes memory data)\r\n        public\r\n        onlyOwner\r\n    {\r\n        _mint(account, id, amount, data);\r\n    }\r\n\r\n    function mintBatch(address to, uint256[] memory ids, uint256[] memory amounts, bytes memory data)\r\n        public\r\n        onlyOwner\r\n    {\r\n        _mintBatch(to, ids, amounts, data);\r\n    }\r\n\r\n    // The following functions are overrides required by Solidity.\r\n\r\n    function _beforeTokenTransfer(address operator, address from, address to, uint256[] memory ids, uint256[] memory amounts, bytes memory data)\r\n        internal\r\n        override(ERC1155, ERC1155Supply)\r\n    {\r\n        super._beforeTokenTransfer(operator, from, to, ids, amounts, data);\r\n    }\r\n}",
  "sourcePath": "C:/Users/Gunner/Desktop/ChangeTheBlock/tmr-api/src/smart-contracts/contracts/BaseContract.sol",
  "compiler": {
    "name": "solc",
    "version": "0.8.13+commit.abaa5c0e.Emscripten.clang"
  },
  "schemaVersion": "3.3.4",
  "updatedAt": "2022-03-23T18:20:14.552Z",
  "devdoc": {
    "kind": "dev",
    "methods": {
      "balanceOf(address,uint256)": {
        "details": "See {IERC1155-balanceOf}. Requirements: - `account` cannot be the zero address."
      },
      "balanceOfBatch(address[],uint256[])": {
        "details": "See {IERC1155-balanceOfBatch}. Requirements: - `accounts` and `ids` must have the same length."
      },
      "exists(uint256)": {
        "details": "Indicates whether any token exist with a given id, or not."
      },
      "isApprovedForAll(address,address)": {
        "details": "See {IERC1155-isApprovedForAll}."
      },
      "owner()": {
        "details": "Returns the address of the current owner."
      },
      "renounceOwnership()": {
        "details": "Leaves the contract without owner. It will not be possible to call `onlyOwner` functions anymore. Can only be called by the current owner. NOTE: Renouncing ownership will leave the contract without an owner, thereby removing any functionality that is only available to the owner."
      },
      "safeBatchTransferFrom(address,address,uint256[],uint256[],bytes)": {
        "details": "See {IERC1155-safeBatchTransferFrom}."
      },
      "safeTransferFrom(address,address,uint256,uint256,bytes)": {
        "details": "See {IERC1155-safeTransferFrom}."
      },
      "setApprovalForAll(address,bool)": {
        "details": "See {IERC1155-setApprovalForAll}."
      },
      "supportsInterface(bytes4)": {
        "details": "See {IERC165-supportsInterface}."
      },
      "totalSupply(uint256)": {
        "details": "Total amount of tokens in with a given id."
      },
      "transferOwnership(address)": {
        "details": "Transfers ownership of the contract to a new account (`newOwner`). Can only be called by the current owner."
      },
      "uri(uint256)": {
        "details": "See {IERC1155MetadataURI-uri}. This implementation returns the same URI for *all* token types. It relies on the token type ID substitution mechanism https://eips.ethereum.org/EIPS/eip-1155#metadata[defined in the EIP]. Clients calling this function must replace the `\\{id\\}` substring with the actual token type ID."
      }
    },
    "version": 1
  },
  "userdoc": {
    "kind": "user",
    "methods": {},
    "version": 1
  }
}