{
  "contractName": "WickeDrive",
  "abi": [
    {
      "anonymous": false,
      "inputs": [
        {
          "indexed": true,
          "internalType": "address",
          "name": "owner",
          "type": "address"
        },
        {
          "indexed": true,
          "internalType": "address",
          "name": "spender",
          "type": "address"
        },
        {
          "indexed": false,
          "internalType": "uint256",
          "name": "value",
          "type": "uint256"
        }
      ],
      "name": "Approval",
      "type": "event"
    },
    {
      "anonymous": false,
      "inputs": [
        {
          "indexed": false,
          "internalType": "address",
          "name": "from",
          "type": "address"
        },
        {
          "indexed": false,
          "internalType": "uint256",
          "name": "amount",
          "type": "uint256"
        }
      ],
      "name": "Deposit",
      "type": "event"
    },
    {
      "anonymous": false,
      "inputs": [
        {
          "indexed": true,
          "internalType": "address",
          "name": "previousOwner",
          "type": "address"
        },
        {
          "indexed": true,
          "internalType": "address",
          "name": "newOwner",
          "type": "address"
        }
      ],
      "name": "OwnershipTransferred",
      "type": "event"
    },
    {
      "anonymous": false,
      "inputs": [
        {
          "indexed": false,
          "internalType": "address",
          "name": "account",
          "type": "address"
        }
      ],
      "name": "Paused",
      "type": "event"
    },
    {
      "anonymous": false,
      "inputs": [
        {
          "indexed": true,
          "internalType": "address",
          "name": "from",
          "type": "address"
        },
        {
          "indexed": true,
          "internalType": "address",
          "name": "to",
          "type": "address"
        },
        {
          "indexed": false,
          "internalType": "uint256",
          "name": "value",
          "type": "uint256"
        }
      ],
      "name": "Transfer",
      "type": "event"
    },
    {
      "anonymous": false,
      "inputs": [
        {
          "indexed": false,
          "internalType": "address",
          "name": "account",
          "type": "address"
        }
      ],
      "name": "Unpaused",
      "type": "event"
    },
    {
      "anonymous": false,
      "inputs": [
        {
          "indexed": false,
          "internalType": "address",
          "name": "to",
          "type": "address"
        },
        {
          "indexed": false,
          "internalType": "uint256",
          "name": "amount",
          "type": "uint256"
        }
      ],
      "name": "Withdraw",
      "type": "event"
    },
    {
      "inputs": [
        {
          "internalType": "address",
          "name": "owner",
          "type": "address"
        },
        {
          "internalType": "address",
          "name": "spender",
          "type": "address"
        }
      ],
      "name": "allowance",
      "outputs": [
        {
          "internalType": "uint256",
          "name": "",
          "type": "uint256"
        }
      ],
      "stateMutability": "view",
      "type": "function"
    },
    {
      "inputs": [
        {
          "internalType": "address",
          "name": "spender",
          "type": "address"
        },
        {
          "internalType": "uint256",
          "name": "amount",
          "type": "uint256"
        }
      ],
      "name": "approve",
      "outputs": [
        {
          "internalType": "bool",
          "name": "",
          "type": "bool"
        }
      ],
      "stateMutability": "nonpayable",
      "type": "function"
    },
    {
      "inputs": [
        {
          "internalType": "address",
          "name": "account",
          "type": "address"
        }
      ],
      "name": "balanceOf",
      "outputs": [
        {
          "internalType": "uint256",
          "name": "",
          "type": "uint256"
        }
      ],
      "stateMutability": "view",
      "type": "function"
    },
    {
      "inputs": [],
      "name": "decimals",
      "outputs": [
        {
          "internalType": "uint8",
          "name": "",
          "type": "uint8"
        }
      ],
      "stateMutability": "view",
      "type": "function"
    },
    {
      "inputs": [
        {
          "internalType": "address",
          "name": "spender",
          "type": "address"
        },
        {
          "internalType": "uint256",
          "name": "subtractedValue",
          "type": "uint256"
        }
      ],
      "name": "decreaseAllowance",
      "outputs": [
        {
          "internalType": "bool",
          "name": "",
          "type": "bool"
        }
      ],
      "stateMutability": "nonpayable",
      "type": "function"
    },
    {
      "inputs": [
        {
          "internalType": "address",
          "name": "spender",
          "type": "address"
        },
        {
          "internalType": "uint256",
          "name": "addedValue",
          "type": "uint256"
        }
      ],
      "name": "increaseAllowance",
      "outputs": [
        {
          "internalType": "bool",
          "name": "",
          "type": "bool"
        }
      ],
      "stateMutability": "nonpayable",
      "type": "function"
    },
    {
      "inputs": [],
      "name": "name",
      "outputs": [
        {
          "internalType": "string",
          "name": "",
          "type": "string"
        }
      ],
      "stateMutability": "view",
      "type": "function"
    },
    {
      "inputs": [],
      "name": "owner",
      "outputs": [
        {
          "internalType": "address",
          "name": "",
          "type": "address"
        }
      ],
      "stateMutability": "view",
      "type": "function"
    },
    {
      "inputs": [],
      "name": "paused",
      "outputs": [
        {
          "internalType": "bool",
          "name": "",
          "type": "bool"
        }
      ],
      "stateMutability": "view",
      "type": "function"
    },
    {
      "inputs": [],
      "name": "renounceOwnership",
      "outputs": [],
      "stateMutability": "nonpayable",
      "type": "function"
    },
    {
      "inputs": [],
      "name": "symbol",
      "outputs": [
        {
          "internalType": "string",
          "name": "",
          "type": "string"
        }
      ],
      "stateMutability": "view",
      "type": "function"
    },
    {
      "inputs": [],
      "name": "totalSupply",
      "outputs": [
        {
          "internalType": "uint256",
          "name": "",
          "type": "uint256"
        }
      ],
      "stateMutability": "view",
      "type": "function"
    },
    {
      "inputs": [
        {
          "internalType": "address",
          "name": "newOwner",
          "type": "address"
        }
      ],
      "name": "transferOwnership",
      "outputs": [],
      "stateMutability": "nonpayable",
      "type": "function"
    },
    {
      "inputs": [],
      "name": "initialize",
      "outputs": [],
      "stateMutability": "nonpayable",
      "type": "function"
    },
    {
      "inputs": [],
      "name": "pause",
      "outputs": [],
      "stateMutability": "nonpayable",
      "type": "function"
    },
    {
      "inputs": [],
      "name": "unpause",
      "outputs": [],
      "stateMutability": "nonpayable",
      "type": "function"
    },
    {
      "inputs": [
        {
          "internalType": "uint256",
          "name": "fee",
          "type": "uint256"
        }
      ],
      "name": "setBuyFee",
      "outputs": [],
      "stateMutability": "nonpayable",
      "type": "function"
    },
    {
      "inputs": [
        {
          "internalType": "uint256",
          "name": "_fee",
          "type": "uint256"
        }
      ],
      "name": "setSellFee",
      "outputs": [],
      "stateMutability": "nonpayable",
      "type": "function"
    },
    {
      "inputs": [],
      "name": "getFees",
      "outputs": [
        {
          "internalType": "uint256",
          "name": "buyFee",
          "type": "uint256"
        },
        {
          "internalType": "uint256",
          "name": "sellFee",
          "type": "uint256"
        }
      ],
      "stateMutability": "view",
      "type": "function"
    },
    {
      "inputs": [
        {
          "internalType": "address",
          "name": "newAddress",
          "type": "address"
        }
      ],
      "name": "setRewardAddress",
      "outputs": [],
      "stateMutability": "nonpayable",
      "type": "function"
    },
    {
      "inputs": [
        {
          "internalType": "address",
          "name": "addr",
          "type": "address"
        }
      ],
      "name": "setFeeReceiveAddress",
      "outputs": [],
      "stateMutability": "nonpayable",
      "type": "function"
    },
    {
      "inputs": [],
      "name": "getAddressesData",
      "outputs": [
        {
          "internalType": "address",
          "name": "reward",
          "type": "address"
        },
        {
          "internalType": "address",
          "name": "fee",
          "type": "address"
        },
        {
          "internalType": "address",
          "name": "pancakeLP",
          "type": "address"
        }
      ],
      "stateMutability": "view",
      "type": "function"
    },
    {
      "inputs": [
        {
          "internalType": "uint256",
          "name": "max",
          "type": "uint256"
        }
      ],
      "name": "setMaxBuy",
      "outputs": [],
      "stateMutability": "nonpayable",
      "type": "function"
    },
    {
      "inputs": [
        {
          "internalType": "uint256",
          "name": "max",
          "type": "uint256"
        }
      ],
      "name": "setMaxSell",
      "outputs": [],
      "stateMutability": "nonpayable",
      "type": "function"
    },
    {
      "inputs": [
        {
          "internalType": "uint256",
          "name": "_limit",
          "type": "uint256"
        }
      ],
      "name": "setLimitBuy",
      "outputs": [],
      "stateMutability": "nonpayable",
      "type": "function"
    },
    {
      "inputs": [],
      "name": "getLimitData",
      "outputs": [
        {
          "internalType": "uint256",
          "name": "maxBuy",
          "type": "uint256"
        },
        {
          "internalType": "uint256",
          "name": "maxSell",
          "type": "uint256"
        },
        {
          "internalType": "uint256",
          "name": "totalBuy",
          "type": "uint256"
        }
      ],
      "stateMutability": "view",
      "type": "function"
    },
    {
      "inputs": [
        {
          "internalType": "address",
          "name": "_sender",
          "type": "address"
        }
      ],
      "name": "getAddressTotalBuy",
      "outputs": [
        {
          "internalType": "int256",
          "name": "",
          "type": "int256"
        }
      ],
      "stateMutability": "view",
      "type": "function"
    },
    {
      "inputs": [
        {
          "internalType": "uint256",
          "name": "amount",
          "type": "uint256"
        }
      ],
      "name": "deposit",
      "outputs": [],
      "stateMutability": "nonpayable",
      "type": "function"
    },
    {
      "inputs": [
        {
          "internalType": "address",
          "name": "recipient",
          "type": "address"
        },
        {
          "internalType": "uint256",
          "name": "amount",
          "type": "uint256"
        }
      ],
      "name": "withdraw",
      "outputs": [],
      "stateMutability": "nonpayable",
      "type": "function"
    },
    {
      "inputs": [
        {
          "internalType": "address",
          "name": "sender",
          "type": "address"
        },
        {
          "internalType": "address",
          "name": "recipient",
          "type": "address"
        },
        {
          "internalType": "uint256",
          "name": "amount",
          "type": "uint256"
        }
      ],
      "name": "transferFrom",
      "outputs": [
        {
          "internalType": "bool",
          "name": "",
          "type": "bool"
        }
      ],
      "stateMutability": "nonpayable",
      "type": "function"
    },
    {
      "inputs": [
        {
          "internalType": "address",
          "name": "recipient",
          "type": "address"
        },
        {
          "internalType": "uint256",
          "name": "amount",
          "type": "uint256"
        }
      ],
      "name": "transfer",
      "outputs": [
        {
          "internalType": "bool",
          "name": "",
          "type": "bool"
        }
      ],
      "stateMutability": "nonpayable",
      "type": "function"
    },
    {
      "inputs": [
        {
          "internalType": "address",
          "name": "_addr",
          "type": "address"
        }
      ],
      "name": "setLPCreatorAddress",
      "outputs": [],
      "stateMutability": "nonpayable",
      "type": "function"
    },
    {
      "inputs": [
        {
          "internalType": "bool",
          "name": "enable",
          "type": "bool"
        }
      ],
      "name": "setEnableAntibot",
      "outputs": [],
      "stateMutability": "nonpayable",
      "type": "function"
    },
    {
      "inputs": [],
      "name": "getAntibotData",
      "outputs": [
        {
          "internalType": "bool",
          "name": "isEnable",
          "type": "bool"
        },
        {
          "internalType": "address",
          "name": "lpCreator",
          "type": "address"
        }
      ],
      "stateMutability": "view",
      "type": "function"
    },
    {
      "inputs": [
        {
          "internalType": "address",
          "name": "_addr",
          "type": "address"
        },
        {
          "internalType": "bool",
          "name": "enable",
          "type": "bool"
        }
      ],
      "name": "setLPAddress",
      "outputs": [],
      "stateMutability": "nonpayable",
      "type": "function"
    },
    {
      "inputs": [
        {
          "internalType": "address",
          "name": "_addr",
          "type": "address"
        }
      ],
      "name": "isAddressLP",
      "outputs": [
        {
          "internalType": "bool",
          "name": "",
          "type": "bool"
        }
      ],
      "stateMutability": "view",
      "type": "function"
    }
  ],
  "bytecode": "0x608060405234801561001057600080fd5b50615df5806100206000396000f3fe60806040523480156200001157600080fd5b5060043610620002505760003560e01c80637cfab49e1162000141578063a9059cbb11620000bd578063ef998cf01162000087578063ef998cf014620006c1578063f2fde38b14620006e1578063f3fef3a31462000701578063f53bc8351462000721578063f691d57214620007415762000250565b8063a9059cbb1462000612578063b6b55f251462000648578063db8d55f11462000668578063dd62ed3e146200068b5762000250565b806386cb929c116200010b57806386cb929c14620005585780638b4cee0814620005785780638da5cb5b146200059857806395d89b4114620005ba578063a457c2d714620005dc5762000250565b80637cfab49e14620004ea5780637edf9d6c146200050a5780638129fc1c14620005405780638456cb59146200054c5762000250565b80633f4ba83a11620001d15780635be71d5f116200019b5780635be71d5f14620004305780635c975abb14620004665780635e00e679146200048857806370a0823114620004a8578063715018a614620004de5762000250565b80633f4ba83a14620003c1578063408973ec14620003cd578063435f531014620003ed5780634bf0dc99146200040d5762000250565b806318160ddd116200021f57806318160ddd14620002f157806323b872dd14620003135780632447ef881462000349578063313ce567146200036957806339509351146200038b5762000250565b806302a64ee8146200025557806306fdde031462000279578063095ea7b3146200029b5780630cc835a314620002d1575b600080fd5b6200025f62000765565b604051620002709392919062003884565b60405180910390f35b62000283620007de565b60405162000292919062003965565b60405180910390f35b620002b96004803603810190620002b39190620039fa565b62000878565b604051620002c8919062003a5e565b60405180910390f35b620002ef6004803603810190620002e9919062003a7b565b6200089a565b005b620002fb62000927565b6040516200030a919062003abe565b60405180910390f35b6200033160048036038101906200032b919062003adb565b62000931565b60405162000340919062003a5e565b60405180910390f35b62000367600480360381019062000361919062003b37565b62000b90565b005b6200037362000c57565b60405162000382919062003b87565b60405180910390f35b620003a96004803603810190620003a39190620039fa565b62000c60565b604051620003b8919062003a5e565b60405180910390f35b620003cb62000d14565b005b620003eb6004803603810190620003e5919062003bd5565b62000da3565b005b6200040b600480360381019062000405919062003a7b565b62000e81565b005b6200041762000f98565b6040516200042792919062003c1c565b60405180910390f35b6200044e600480360381019062000448919062003b37565b62000fd6565b6040516200045d919062003c64565b60405180910390f35b6200047062001080565b6040516200047f919062003a5e565b60405180910390f35b620004a66004803603810190620004a0919062003b37565b62001097565b005b620004c66004803603810190620004c0919062003b37565b6200115e565b604051620004d5919062003abe565b60405180910390f35b620004e8620011a7565b005b62000508600480360381019062000502919062003c81565b62001238565b005b62000528600480360381019062000522919062003b37565b620012d8565b60405162000537919062003a5e565b60405180910390f35b6200054a6200132e565b005b6200055662001760565b005b62000576600480360381019062000570919062003b37565b620017ef565b005b62000596600480360381019062000590919062003a7b565b62001928565b005b620005a2620019b5565b604051620005b1919062003cb3565b60405180910390f35b620005c4620019df565b604051620005d3919062003965565b60405180910390f35b620005fa6004803603810190620005f49190620039fa565b62001a79565b60405162000609919062003a5e565b60405180910390f35b6200063060048036038101906200062a9190620039fa565b62001b6d565b6040516200063f919062003a5e565b60405180910390f35b62000666600480360381019062000660919062003a7b565b62001fc7565b005b6200067262002115565b6040516200068292919062003cd0565b60405180910390f35b620006a96004803603810190620006a3919062003cfd565b62002126565b604051620006b8919062003abe565b60405180910390f35b620006df6004803603810190620006d9919062003a7b565b620021ad565b005b620006ff6004803603810190620006f9919062003b37565b620022c4565b005b6200071f6004803603810190620007199190620039fa565b620023c7565b005b6200073f600480360381019062000739919062003a7b565b620024fb565b005b6200074b62002612565b6040516200075c9392919062003d44565b60405180910390f35b600080600060c960009054906101000a900473ffffffffffffffffffffffffffffffffffffffff1660ca60009054906101000a900473ffffffffffffffffffffffffffffffffffffffff1660cd60009054906101000a900473ffffffffffffffffffffffffffffffffffffffff16925092509250909192565b606060368054620007ef9062003db0565b80601f01602080910402602001604051908101604052809291908181526020018280546200081d9062003db0565b80156200086e5780601f1062000842576101008083540402835291602001916200086e565b820191906000526020600020905b8154815290600101906020018083116200085057829003601f168201915b5050505050905090565b60006200089062000888620027de565b8484620027e6565b6001905092915050565b620008a4620027de565b73ffffffffffffffffffffffffffffffffffffffff16620008c4620019b5565b73ffffffffffffffffffffffffffffffffffffffff16146200091d576040517f08c379a0000000000000000000000000000000000000000000000000000000008152600401620009149062003e35565b60405180910390fd5b8060cb8190555050565b6000603554905090565b600060cf60149054906101000a900460ff1615806200099d575060cf60009054906101000a900473ffffffffffffffffffffffffffffffffffffffff1673ffffffffffffffffffffffffffffffffffffffff168473ffffffffffffffffffffffffffffffffffffffff16145b620009df576040517f08c379a0000000000000000000000000000000000000000000000000000000008152600401620009d69062003ea7565b60405180910390fd5b620009ea83620012d8565b1562000b7657600060cf60009054906101000a900473ffffffffffffffffffffffffffffffffffffffff1673ffffffffffffffffffffffffffffffffffffffff168573ffffffffffffffffffffffffffffffffffffffff161462000b3c5760ce60009054906101000a900473ffffffffffffffffffffffffffffffffffffffff1673ffffffffffffffffffffffffffffffffffffffff166389e25a65846040518263ffffffff1660e01b815260040162000aa5919062003abe565b602060405180830381865afa15801562000ac3573d6000803e3d6000fd5b505050506040513d601f19601f8201168201806040525081019062000ae9919062003ee0565b62000b2b576040517f08c379a000000000000000000000000000000000000000000000000000000000815260040162000b229062003f62565b60405180910390fd5b62000b398360cc54620029b7565b90505b62000b6d8585858460ca60009054906101000a900473ffffffffffffffffffffffffffffffffffffffff1662002a09565b91505062000b89565b62000b8684848460008062002a09565b90505b9392505050565b62000b9a620027de565b73ffffffffffffffffffffffffffffffffffffffff1662000bba620019b5565b73ffffffffffffffffffffffffffffffffffffffff161462000c13576040517f08c379a000000000000000000000000000000000000000000000000000000000815260040162000c0a9062003e35565b60405180910390fd5b8060cf60006101000a81548173ffffffffffffffffffffffffffffffffffffffff021916908373ffffffffffffffffffffffffffffffffffffffff16021790555050565b60006012905090565b600062000d0a62000c70620027de565b84846034600062000c80620027de565b73ffffffffffffffffffffffffffffffffffffffff1673ffffffffffffffffffffffffffffffffffffffff16815260200190815260200160002060008873ffffffffffffffffffffffffffffffffffffffff1673ffffffffffffffffffffffffffffffffffffffff1681526020019081526020016000205462000d04919062003fb3565b620027e6565b6001905092915050565b62000d1e620027de565b73ffffffffffffffffffffffffffffffffffffffff1662000d3e620019b5565b73ffffffffffffffffffffffffffffffffffffffff161462000d97576040517f08c379a000000000000000000000000000000000000000000000000000000000815260040162000d8e9062003e35565b60405180910390fd5b62000da162002b10565b565b62000dad620027de565b73ffffffffffffffffffffffffffffffffffffffff1662000dcd620019b5565b73ffffffffffffffffffffffffffffffffffffffff161462000e26576040517f08c379a000000000000000000000000000000000000000000000000000000000815260040162000e1d9062003e35565b60405180910390fd5b8060d060008473ffffffffffffffffffffffffffffffffffffffff1673ffffffffffffffffffffffffffffffffffffffff16815260200190815260200160002060006101000a81548160ff0219169083151502179055505050565b62000e8b620027de565b73ffffffffffffffffffffffffffffffffffffffff1662000eab620019b5565b73ffffffffffffffffffffffffffffffffffffffff161462000f04576040517f08c379a000000000000000000000000000000000000000000000000000000000815260040162000efb9062003e35565b60405180910390fd5b60ce60009054906101000a900473ffffffffffffffffffffffffffffffffffffffff1673ffffffffffffffffffffffffffffffffffffffff1663435f5310826040518263ffffffff1660e01b815260040162000f61919062003abe565b600060405180830381600087803b15801562000f7c57600080fd5b505af115801562000f91573d6000803e3d6000fd5b5050505050565b60008060cf60149054906101000a900460ff1660cf60009054906101000a900473ffffffffffffffffffffffffffffffffffffffff16915091509091565b600060ce60009054906101000a900473ffffffffffffffffffffffffffffffffffffffff1673ffffffffffffffffffffffffffffffffffffffff16635be71d5f836040518263ffffffff1660e01b815260040162001035919062003cb3565b602060405180830381865afa15801562001053573d6000803e3d6000fd5b505050506040513d601f19601f8201168201806040525081019062001079919062004041565b9050919050565b6000606560009054906101000a900460ff16905090565b620010a1620027de565b73ffffffffffffffffffffffffffffffffffffffff16620010c1620019b5565b73ffffffffffffffffffffffffffffffffffffffff16146200111a576040517f08c379a0000000000000000000000000000000000000000000000000000000008152600401620011119062003e35565b60405180910390fd5b8060c960006101000a81548173ffffffffffffffffffffffffffffffffffffffff021916908373ffffffffffffffffffffffffffffffffffffffff16021790555050565b6000603360008373ffffffffffffffffffffffffffffffffffffffff1673ffffffffffffffffffffffffffffffffffffffff168152602001908152602001600020549050919050565b620011b1620027de565b73ffffffffffffffffffffffffffffffffffffffff16620011d1620019b5565b73ffffffffffffffffffffffffffffffffffffffff16146200122a576040517f08c379a0000000000000000000000000000000000000000000000000000000008152600401620012219062003e35565b60405180910390fd5b62001236600062002bbb565b565b62001242620027de565b73ffffffffffffffffffffffffffffffffffffffff1662001262620019b5565b73ffffffffffffffffffffffffffffffffffffffff1614620012bb576040517f08c379a0000000000000000000000000000000000000000000000000000000008152600401620012b29062003e35565b60405180910390fd5b8060cf60146101000a81548160ff02191690831515021790555050565b600060d060008373ffffffffffffffffffffffffffffffffffffffff1673ffffffffffffffffffffffffffffffffffffffff16815260200190815260200160002060009054906101000a900460ff169050919050565b600060019054906101000a900460ff16620013585760008054906101000a900460ff161562001363565b6200136262002c81565b5b620013a5576040517f08c379a00000000000000000000000000000000000000000000000000000000081526004016200139c90620040e9565b60405180910390fd5b60008060019054906101000a900460ff161590508015620013f6576001600060016101000a81548160ff02191690831515021790555060016000806101000a81548160ff0219169083151502179055505b6200146c6040518060400160405280600a81526020017f5769636b654472697665000000000000000000000000000000000000000000008152506040518060400160405280600581526020017f4357434b4400000000000000000000000000000000000000000000000000000081525062002c94565b6200147662002d99565b6200148062002e01565b60016200148c62000c57565b6200149891906200410b565b600a620014a691906200429a565b6013620014b49190620042eb565b60cb819055506001620014c662000c57565b620014d291906200410b565b600a620014e091906200429a565b6014620014ee9190620042eb565b60cc81905550600060c960006101000a81548173ffffffffffffffffffffffffffffffffffffffff021916908373ffffffffffffffffffffffffffffffffffffffff160217905550600060ca60006101000a81548173ffffffffffffffffffffffffffffffffffffffff021916908373ffffffffffffffffffffffffffffffffffffffff160217905550600060cd60006101000a81548173ffffffffffffffffffffffffffffffffffffffff021916908373ffffffffffffffffffffffffffffffffffffffff160217905550600060cf60146101000a81548160ff021916908315150217905550600060cf60006101000a81548173ffffffffffffffffffffffffffffffffffffffff021916908373ffffffffffffffffffffffffffffffffffffffff1602179055506200162162000c57565b600a6200162f91906200429a565b6161a86200163e9190620042eb565b6200164862000c57565b600a6200165691906200429a565b6161a8620016659190620042eb565b6200166f62000c57565b600a6200167d91906200429a565b624c4b406200168d9190620042eb565b6040516200169b9062003781565b620016a99392919062003d44565b604051809103906000f080158015620016c6573d6000803e3d6000fd5b5060ce60006101000a81548173ffffffffffffffffffffffffffffffffffffffff021916908373ffffffffffffffffffffffffffffffffffffffff1602179055506200173b336200171662000c57565b600a6200172491906200429a565b6305f5e100620017359190620042eb565b62002e69565b80156200175d5760008060016101000a81548160ff0219169083151502179055505b50565b6200176a620027de565b73ffffffffffffffffffffffffffffffffffffffff166200178a620019b5565b73ffffffffffffffffffffffffffffffffffffffff1614620017e3576040517f08c379a0000000000000000000000000000000000000000000000000000000008152600401620017da9062003e35565b60405180910390fd5b620017ed62002fd6565b565b620017f9620027de565b73ffffffffffffffffffffffffffffffffffffffff1662001819620019b5565b73ffffffffffffffffffffffffffffffffffffffff161462001872576040517f08c379a0000000000000000000000000000000000000000000000000000000008152600401620018699062003e35565b60405180910390fd5b600073ffffffffffffffffffffffffffffffffffffffff168173ffffffffffffffffffffffffffffffffffffffff1603620018e4576040517f08c379a0000000000000000000000000000000000000000000000000000000008152600401620018db906200439c565b60405180910390fd5b8060ca60006101000a81548173ffffffffffffffffffffffffffffffffffffffff021916908373ffffffffffffffffffffffffffffffffffffffff16021790555050565b62001932620027de565b73ffffffffffffffffffffffffffffffffffffffff1662001952620019b5565b73ffffffffffffffffffffffffffffffffffffffff1614620019ab576040517f08c379a0000000000000000000000000000000000000000000000000000000008152600401620019a29062003e35565b60405180910390fd5b8060cc8190555050565b6000609760009054906101000a900473ffffffffffffffffffffffffffffffffffffffff16905090565b606060378054620019f09062003db0565b80601f016020809104026020016040519081016040528092919081815260200182805462001a1e9062003db0565b801562001a6f5780601f1062001a435761010080835404028352916020019162001a6f565b820191906000526020600020905b81548152906001019060200180831162001a5157829003601f168201915b5050505050905090565b6000806034600062001a8a620027de565b73ffffffffffffffffffffffffffffffffffffffff1673ffffffffffffffffffffffffffffffffffffffff16815260200190815260200160002060008573ffffffffffffffffffffffffffffffffffffffff1673ffffffffffffffffffffffffffffffffffffffff1681526020019081526020016000205490508281101562001b4a576040517f08c379a000000000000000000000000000000000000000000000000000000000815260040162001b419062004434565b60405180910390fd5b62001b6262001b58620027de565b85858403620027e6565b600191505092915050565b600062001b8362001b7d620027de565b620012d8565b8062001b96575062001b9583620012d8565b5b1562001f325760cf60149054906101000a900460ff16158062001c06575060cf60009054906101000a900473ffffffffffffffffffffffffffffffffffffffff1673ffffffffffffffffffffffffffffffffffffffff168373ffffffffffffffffffffffffffffffffffffffff16145b62001c48576040517f08c379a000000000000000000000000000000000000000000000000000000000815260040162001c3f9062003ea7565b60405180910390fd5b600060cf60009054906101000a900473ffffffffffffffffffffffffffffffffffffffff1673ffffffffffffffffffffffffffffffffffffffff168473ffffffffffffffffffffffffffffffffffffffff161415801562001ce957507310ed43c718714eb63d5aa57b78b54704e256024e73ffffffffffffffffffffffffffffffffffffffff168473ffffffffffffffffffffffffffffffffffffffff1614155b1562001e075760ce60009054906101000a900473ffffffffffffffffffffffffffffffffffffffff1673ffffffffffffffffffffffffffffffffffffffff166381824eb885856040518363ffffffff1660e01b815260040162001d4e92919062004456565b602060405180830381865afa15801562001d6c573d6000803e3d6000fd5b505050506040513d601f19601f8201168201806040525081019062001d92919062003ee0565b62001dd4576040517f08c379a000000000000000000000000000000000000000000000000000000000815260040162001dcb90620044d3565b60405180910390fd5b62001de28360cb54620029b7565b905062001def84620012d8565b1562001e065762001e038360cc54620029b7565b90505b5b62001e4162001e15620027de565b85858460ca60009054906101000a900473ffffffffffffffffffffffffffffffffffffffff1662003082565b60cf60009054906101000a900473ffffffffffffffffffffffffffffffffffffffff1673ffffffffffffffffffffffffffffffffffffffff168473ffffffffffffffffffffffffffffffffffffffff161462001f2b5760ce60009054906101000a900473ffffffffffffffffffffffffffffffffffffffff1673ffffffffffffffffffffffffffffffffffffffff166353dfc50885856040518363ffffffff1660e01b815260040162001ef692919062004456565b600060405180830381600087803b15801562001f1157600080fd5b505af115801562001f26573d6000803e3d6000fd5b505050505b5062001fbd565b3073ffffffffffffffffffffffffffffffffffffffff168373ffffffffffffffffffffffffffffffffffffffff160362001fa3576040517f08c379a000000000000000000000000000000000000000000000000000000000815260040162001f9a9062004545565b60405180910390fd5b62001fbc62001fb1620027de565b848460008062003082565b5b6001905092915050565b600073ffffffffffffffffffffffffffffffffffffffff1660c960009054906101000a900473ffffffffffffffffffffffffffffffffffffffff1673ffffffffffffffffffffffffffffffffffffffff16141580156200205d5750600073ffffffffffffffffffffffffffffffffffffffff1662002044620027de565b73ffffffffffffffffffffffffffffffffffffffff1614155b6200209f576040517f08c379a00000000000000000000000000000000000000000000000000000000081526004016200209690620045b7565b60405180910390fd5b620020cd60c960009054906101000a900473ffffffffffffffffffffffffffffffffffffffff168262001b6d565b507fe1fffcc4923d04b559f4d29a8bfc6cda04eb5b0d3c460751c2402c5c5cc9109c620020f9620027de565b826040516200210a92919062004456565b60405180910390a150565b60008060cb5460cc54915091509091565b6000603460008473ffffffffffffffffffffffffffffffffffffffff1673ffffffffffffffffffffffffffffffffffffffff16815260200190815260200160002060008373ffffffffffffffffffffffffffffffffffffffff1673ffffffffffffffffffffffffffffffffffffffff16815260200190815260200160002054905092915050565b620021b7620027de565b73ffffffffffffffffffffffffffffffffffffffff16620021d7620019b5565b73ffffffffffffffffffffffffffffffffffffffff161462002230576040517f08c379a0000000000000000000000000000000000000000000000000000000008152600401620022279062003e35565b60405180910390fd5b60ce60009054906101000a900473ffffffffffffffffffffffffffffffffffffffff1673ffffffffffffffffffffffffffffffffffffffff166336884b6e826040518263ffffffff1660e01b81526004016200228d919062003abe565b600060405180830381600087803b158015620022a857600080fd5b505af1158015620022bd573d6000803e3d6000fd5b5050505050565b620022ce620027de565b73ffffffffffffffffffffffffffffffffffffffff16620022ee620019b5565b73ffffffffffffffffffffffffffffffffffffffff161462002347576040517f08c379a00000000000000000000000000000000000000000000000000000000081526004016200233e9062003e35565b60405180910390fd5b600073ffffffffffffffffffffffffffffffffffffffff168173ffffffffffffffffffffffffffffffffffffffff1603620023b9576040517f08c379a0000000000000000000000000000000000000000000000000000000008152600401620023b0906200464f565b60405180910390fd5b620023c48162002bbb565b50565b600073ffffffffffffffffffffffffffffffffffffffff16620023e9620027de565b73ffffffffffffffffffffffffffffffffffffffff161415801562002464575060c960009054906101000a900473ffffffffffffffffffffffffffffffffffffffff1673ffffffffffffffffffffffffffffffffffffffff166200244c620027de565b73ffffffffffffffffffffffffffffffffffffffff16145b620024a6576040517f08c379a00000000000000000000000000000000000000000000000000000000081526004016200249d90620046c1565b60405180910390fd5b620024b2828262001b6d565b507f884edad9ce6fa2440d8a54cc123490eb96d2768479d49ff9c7366125a9424364620024de620027de565b82604051620024ef92919062004456565b60405180910390a15050565b62002505620027de565b73ffffffffffffffffffffffffffffffffffffffff1662002525620019b5565b73ffffffffffffffffffffffffffffffffffffffff16146200257e576040517f08c379a0000000000000000000000000000000000000000000000000000000008152600401620025759062003e35565b60405180910390fd5b60ce60009054906101000a900473ffffffffffffffffffffffffffffffffffffffff1673ffffffffffffffffffffffffffffffffffffffff1663757765f8826040518263ffffffff1660e01b8152600401620025db919062003abe565b600060405180830381600087803b158015620025f657600080fd5b505af11580156200260b573d6000803e3d6000fd5b5050505050565b600080600060ce60009054906101000a900473ffffffffffffffffffffffffffffffffffffffff1673ffffffffffffffffffffffffffffffffffffffff166396790d4a6040518163ffffffff1660e01b8152600401602060405180830381865afa15801562002685573d6000803e3d6000fd5b505050506040513d601f19601f82011682018060405250810190620026ab9190620046fa565b60ce60009054906101000a900473ffffffffffffffffffffffffffffffffffffffff1673ffffffffffffffffffffffffffffffffffffffff1663466f63116040518163ffffffff1660e01b8152600401602060405180830381865afa15801562002719573d6000803e3d6000fd5b505050506040513d601f19601f820116820180604052508101906200273f9190620046fa565b60ce60009054906101000a900473ffffffffffffffffffffffffffffffffffffffff1673ffffffffffffffffffffffffffffffffffffffff1663e61a4c4a6040518163ffffffff1660e01b8152600401602060405180830381865afa158015620027ad573d6000803e3d6000fd5b505050506040513d601f19601f82011682018060405250810190620027d39190620046fa565b925092509250909192565b600033905090565b600073ffffffffffffffffffffffffffffffffffffffff168373ffffffffffffffffffffffffffffffffffffffff160362002858576040517f08c379a00000000000000000000000000000000000000000000000000000000081526004016200284f90620047a2565b60405180910390fd5b600073ffffffffffffffffffffffffffffffffffffffff168273ffffffffffffffffffffffffffffffffffffffff1603620028ca576040517f08c379a0000000000000000000000000000000000000000000000000000000008152600401620028c1906200483a565b60405180910390fd5b80603460008573ffffffffffffffffffffffffffffffffffffffff1673ffffffffffffffffffffffffffffffffffffffff16815260200190815260200160002060008473ffffffffffffffffffffffffffffffffffffffff1673ffffffffffffffffffffffffffffffffffffffff168152602001908152602001600020819055508173ffffffffffffffffffffffffffffffffffffffff168373ffffffffffffffffffffffffffffffffffffffff167f8c5be1e5ebec7d5bd14f71427d1e84f3dd0314c0f7b2291e5b200ac8c7c3b92583604051620029aa919062003abe565b60405180910390a3505050565b6000806002620029c662000c57565b620029d291906200485c565b60ff16905080600a620029e691906200489a565b8385620029f49190620042eb565b62002a0091906200491a565b91505092915050565b600062002a1a868686868662003082565b6000603460008873ffffffffffffffffffffffffffffffffffffffff1673ffffffffffffffffffffffffffffffffffffffff168152602001908152602001600020600062002a67620027de565b73ffffffffffffffffffffffffffffffffffffffff1673ffffffffffffffffffffffffffffffffffffffff1681526020019081526020016000205490508481101562002aea576040517f08c379a000000000000000000000000000000000000000000000000000000000815260040162002ae190620049c8565b60405180910390fd5b62002b028762002af9620027de565b878403620027e6565b600191505095945050505050565b62002b1a62001080565b62002b5c576040517f08c379a000000000000000000000000000000000000000000000000000000000815260040162002b539062004a3a565b60405180910390fd5b6000606560006101000a81548160ff0219169083151502179055507f5db9ee0a495bf2e6ff9c91a7834c1ba4fdd244a5e8aa4e537bd38aeae4b073aa62002ba2620027de565b60405162002bb1919062003cb3565b60405180910390a1565b6000609760009054906101000a900473ffffffffffffffffffffffffffffffffffffffff16905081609760006101000a81548173ffffffffffffffffffffffffffffffffffffffff021916908373ffffffffffffffffffffffffffffffffffffffff1602179055508173ffffffffffffffffffffffffffffffffffffffff168173ffffffffffffffffffffffffffffffffffffffff167f8be0079c531659141344cd1fd0a4f28419497f9722a3daafe3b4186f6b6457e060405160405180910390a35050565b600062002c8e30620034b9565b15905090565b600060019054906101000a900460ff1662002cbe5760008054906101000a900460ff161562002cc9565b62002cc862002c81565b5b62002d0b576040517f08c379a000000000000000000000000000000000000000000000000000000000815260040162002d0290620040e9565b60405180910390fd5b60008060019054906101000a900460ff16159050801562002d5c576001600060016101000a81548160ff02191690831515021790555060016000806101000a81548160ff0219169083151502179055505b62002d66620034cc565b62002d72838362003520565b801562002d945760008060016101000a81548160ff0219169083151502179055505b505050565b600060019054906101000a900460ff1662002deb576040517f08c379a000000000000000000000000000000000000000000000000000000000815260040162002de29062004ad2565b60405180910390fd5b62002df5620034cc565b62002dff62003641565b565b600060019054906101000a900460ff1662002e53576040517f08c379a000000000000000000000000000000000000000000000000000000000815260040162002e4a9062004ad2565b60405180910390fd5b62002e5d620034cc565b62002e67620036b0565b565b600073ffffffffffffffffffffffffffffffffffffffff168273ffffffffffffffffffffffffffffffffffffffff160362002edb576040517f08c379a000000000000000000000000000000000000000000000000000000000815260040162002ed29062004b44565b60405180910390fd5b62002ee96000838362003718565b806035600082825462002efd919062003fb3565b9250508190555080603360008473ffffffffffffffffffffffffffffffffffffffff1673ffffffffffffffffffffffffffffffffffffffff168152602001908152602001600020600082825462002f55919062003fb3565b925050819055508173ffffffffffffffffffffffffffffffffffffffff16600073ffffffffffffffffffffffffffffffffffffffff167fddf252ad1be2c89b69c2b068fc378daa952ba7f163c4a11628f55a4df523b3ef8360405162002fbc919062003abe565b60405180910390a362002fd26000838362003777565b5050565b62002fe062001080565b1562003023576040517f08c379a00000000000000000000000000000000000000000000000000000000081526004016200301a9062004bb6565b60405180910390fd5b6001606560006101000a81548160ff0219169083151502179055507f62e78cea01bee320cd4e420270b5ea74000d11b0c9f74754ebdbfc544b05a25862003069620027de565b60405162003078919062003cb3565b60405180910390a1565b600073ffffffffffffffffffffffffffffffffffffffff168573ffffffffffffffffffffffffffffffffffffffff1603620030f4576040517f08c379a0000000000000000000000000000000000000000000000000000000008152600401620030eb9062004c4e565b60405180910390fd5b600073ffffffffffffffffffffffffffffffffffffffff168473ffffffffffffffffffffffffffffffffffffffff160362003166576040517f08c379a00000000000000000000000000000000000000000000000000000000081526004016200315d9062004ce6565b60405180910390fd5b6000821015620031ad576040517f08c379a0000000000000000000000000000000000000000000000000000000008152600401620031a49062004d58565b60405180910390fd5b620031ba85858562003718565b6000603360008773ffffffffffffffffffffffffffffffffffffffff1673ffffffffffffffffffffffffffffffffffffffff1681526020019081526020016000205490508381101562003244576040517f08c379a00000000000000000000000000000000000000000000000000000000081526004016200323b9062004df0565b60405180910390fd5b838103603360008873ffffffffffffffffffffffffffffffffffffffff1673ffffffffffffffffffffffffffffffffffffffff16815260200190815260200160002081905550600080841115620033ca57600073ffffffffffffffffffffffffffffffffffffffff168373ffffffffffffffffffffffffffffffffffffffff160362003307576040517f08c379a0000000000000000000000000000000000000000000000000000000008152600401620032fe9062004e88565b60405180910390fd5b83905080603360008573ffffffffffffffffffffffffffffffffffffffff1673ffffffffffffffffffffffffffffffffffffffff16815260200190815260200160002060008282546200335b919062003fb3565b925050819055508273ffffffffffffffffffffffffffffffffffffffff168773ffffffffffffffffffffffffffffffffffffffff167fddf252ad1be2c89b69c2b068fc378daa952ba7f163c4a11628f55a4df523b3ef83604051620033c1919062003abe565b60405180910390a35b8085620033d8919062004eaa565b603360008873ffffffffffffffffffffffffffffffffffffffff1673ffffffffffffffffffffffffffffffffffffffff168152602001908152602001600020600082825462003428919062003fb3565b925050819055508573ffffffffffffffffffffffffffffffffffffffff168773ffffffffffffffffffffffffffffffffffffffff167fddf252ad1be2c89b69c2b068fc378daa952ba7f163c4a11628f55a4df523b3ef83886200348c919062004eaa565b6040516200349b919062003abe565b60405180910390a3620034b087878762003777565b50505050505050565b600080823b905060008111915050919050565b600060019054906101000a900460ff166200351e576040517f08c379a0000000000000000000000000000000000000000000000000000000008152600401620035159062004ad2565b60405180910390fd5b565b600060019054906101000a900460ff166200354a5760008054906101000a900460ff161562003555565b6200355462002c81565b5b62003597576040517f08c379a00000000000000000000000000000000000000000000000000000000081526004016200358e90620040e9565b60405180910390fd5b60008060019054906101000a900460ff161590508015620035e8576001600060016101000a81548160ff02191690831515021790555060016000806101000a81548160ff0219169083151502179055505b8260369080519060200190620036009291906200378f565b508160379080519060200190620036199291906200378f565b5080156200363c5760008060016101000a81548160ff0219169083151502179055505b505050565b600060019054906101000a900460ff1662003693576040517f08c379a00000000000000000000000000000000000000000000000000000000081526004016200368a9062004ad2565b60405180910390fd5b6000606560006101000a81548160ff021916908315150217905550565b600060019054906101000a900460ff1662003702576040517f08c379a0000000000000000000000000000000000000000000000000000000008152600401620036f99062004ad2565b60405180910390fd5b6200371662003710620027de565b62002bbb565b565b6200372262001080565b1562003765576040517f08c379a00000000000000000000000000000000000000000000000000000000081526004016200375c9062004bb6565b60405180910390fd5b620037728383836200377c565b505050565b505050565b505050565b610eda8062004ee683390190565b8280546200379d9062003db0565b90600052602060002090601f016020900481019282620037c157600085556200380d565b82601f10620037dc57805160ff19168380011785556200380d565b828001600101855582156200380d579182015b828111156200380c578251825591602001919060010190620037ef565b5b5090506200381c919062003820565b5090565b5b808211156200383b57600081600090555060010162003821565b5090565b600073ffffffffffffffffffffffffffffffffffffffff82169050919050565b60006200386c826200383f565b9050919050565b6200387e816200385f565b82525050565b60006060820190506200389b600083018662003873565b620038aa602083018562003873565b620038b9604083018462003873565b949350505050565b600081519050919050565b600082825260208201905092915050565b60005b83811015620038fd578082015181840152602081019050620038e0565b838111156200390d576000848401525b50505050565b6000601f19601f8301169050919050565b60006200393182620038c1565b6200393d8185620038cc565b93506200394f818560208601620038dd565b6200395a8162003913565b840191505092915050565b6000602082019050818103600083015262003981818462003924565b905092915050565b600080fd5b62003999816200385f565b8114620039a557600080fd5b50565b600081359050620039b9816200398e565b92915050565b6000819050919050565b620039d481620039bf565b8114620039e057600080fd5b50565b600081359050620039f481620039c9565b92915050565b6000806040838503121562003a145762003a1362003989565b5b600062003a2485828601620039a8565b925050602062003a3785828601620039e3565b9150509250929050565b60008115159050919050565b62003a588162003a41565b82525050565b600060208201905062003a75600083018462003a4d565b92915050565b60006020828403121562003a945762003a9362003989565b5b600062003aa484828501620039e3565b91505092915050565b62003ab881620039bf565b82525050565b600060208201905062003ad5600083018462003aad565b92915050565b60008060006060848603121562003af75762003af662003989565b5b600062003b0786828701620039a8565b935050602062003b1a86828701620039a8565b925050604062003b2d86828701620039e3565b9150509250925092565b60006020828403121562003b505762003b4f62003989565b5b600062003b6084828501620039a8565b91505092915050565b600060ff82169050919050565b62003b818162003b69565b82525050565b600060208201905062003b9e600083018462003b76565b92915050565b62003baf8162003a41565b811462003bbb57600080fd5b50565b60008135905062003bcf8162003ba4565b92915050565b6000806040838503121562003bef5762003bee62003989565b5b600062003bff85828601620039a8565b925050602062003c128582860162003bbe565b9150509250929050565b600060408201905062003c33600083018562003a4d565b62003c42602083018462003873565b9392505050565b6000819050919050565b62003c5e8162003c49565b82525050565b600060208201905062003c7b600083018462003c53565b92915050565b60006020828403121562003c9a5762003c9962003989565b5b600062003caa8482850162003bbe565b91505092915050565b600060208201905062003cca600083018462003873565b92915050565b600060408201905062003ce7600083018562003aad565b62003cf6602083018462003aad565b9392505050565b6000806040838503121562003d175762003d1662003989565b5b600062003d2785828601620039a8565b925050602062003d3a85828601620039a8565b9150509250929050565b600060608201905062003d5b600083018662003aad565b62003d6a602083018562003aad565b62003d79604083018462003aad565b949350505050565b7f4e487b7100000000000000000000000000000000000000000000000000000000600052602260045260246000fd5b6000600282049050600182168062003dc957607f821691505b60208210810362003ddf5762003dde62003d81565b5b50919050565b7f4f776e61626c653a2063616c6c6572206973206e6f7420746865206f776e6572600082015250565b600062003e1d602083620038cc565b915062003e2a8262003de5565b602082019050919050565b6000602082019050818103600083015262003e508162003e0e565b9050919050565b7f4350414e3a20416e7469626f7420726576657274000000000000000000000000600082015250565b600062003e8f601483620038cc565b915062003e9c8262003e57565b602082019050919050565b6000602082019050818103600083015262003ec28162003e80565b9050919050565b60008151905062003eda8162003ba4565b92915050565b60006020828403121562003ef95762003ef862003989565b5b600062003f098482850162003ec9565b91505092915050565b7f4350414e3a2053656c6c206c696d697420726561636800000000000000000000600082015250565b600062003f4a601683620038cc565b915062003f578262003f12565b602082019050919050565b6000602082019050818103600083015262003f7d8162003f3b565b9050919050565b7f4e487b7100000000000000000000000000000000000000000000000000000000600052601160045260246000fd5b600062003fc082620039bf565b915062003fcd83620039bf565b9250827fffffffffffffffffffffffffffffffffffffffffffffffffffffffffffffffff0382111562004005576200400462003f84565b5b828201905092915050565b6200401b8162003c49565b81146200402757600080fd5b50565b6000815190506200403b8162004010565b92915050565b6000602082840312156200405a576200405962003989565b5b60006200406a848285016200402a565b91505092915050565b7f496e697469616c697a61626c653a20636f6e747261637420697320616c72656160008201527f647920696e697469616c697a6564000000000000000000000000000000000000602082015250565b6000620040d1602e83620038cc565b9150620040de8262004073565b604082019050919050565b600060208201905081810360008301526200410481620040c2565b9050919050565b6000620041188262003b69565b9150620041258362003b69565b9250828210156200413b576200413a62003f84565b5b828203905092915050565b60008160011c9050919050565b6000808291508390505b6001851115620041a5578086048111156200417d576200417c62003f84565b5b60018516156200418d5780820291505b80810290506200419d8562004146565b94506200415d565b94509492505050565b600082620041c0576001905062004293565b81620041d0576000905062004293565b8160018114620041e95760028114620041f4576200422a565b600191505062004293565b60ff84111562004209576200420862003f84565b5b8360020a91508482111562004223576200422262003f84565b5b5062004293565b5060208310610133831016604e8410600b8410161715620042645782820a9050838111156200425e576200425d62003f84565b5b62004293565b62004273848484600162004153565b925090508184048111156200428d576200428c62003f84565b5b81810290505b9392505050565b6000620042a782620039bf565b9150620042b48362003b69565b9250620042e37fffffffffffffffffffffffffffffffffffffffffffffffffffffffffffffffff8484620041ae565b905092915050565b6000620042f882620039bf565b91506200430583620039bf565b9250817fffffffffffffffffffffffffffffffffffffffffffffffffffffffffffffffff048311821515161562004341576200434062003f84565b5b828202905092915050565b7f45524332303a20496e76616c6964207265636569766520616464726573730000600082015250565b600062004384601e83620038cc565b915062004391826200434c565b602082019050919050565b60006020820190508181036000830152620043b78162004375565b9050919050565b7f45524332303a2064656372656173656420616c6c6f77616e63652062656c6f7760008201527f207a65726f000000000000000000000000000000000000000000000000000000602082015250565b60006200441c602583620038cc565b91506200442982620043be565b604082019050919050565b600060208201905081810360008301526200444f816200440d565b9050919050565b60006040820190506200446d600083018562003873565b6200447c602083018462003aad565b9392505050565b7f4350414e3a20427579206c696d69742072656163680000000000000000000000600082015250565b6000620044bb601583620038cc565b9150620044c88262004483565b602082019050919050565b60006020820190508181036000830152620044ee81620044ac565b9050919050565b7f4350414e3a204661696c656420746f207472616e736665720000000000000000600082015250565b60006200452d601883620038cc565b91506200453a82620044f5565b602082019050919050565b6000602082019050818103600083015262004560816200451e565b9050919050565b7f45524332303a20496e76616c6964206164647265737300000000000000000000600082015250565b60006200459f601683620038cc565b9150620045ac8262004567565b602082019050919050565b60006020820190508181036000830152620045d28162004590565b9050919050565b7f4f776e61626c653a206e6577206f776e657220697320746865207a65726f206160008201527f6464726573730000000000000000000000000000000000000000000000000000602082015250565b600062004637602683620038cc565b91506200464482620045d9565b604082019050919050565b600060208201905081810360008301526200466a8162004628565b9050919050565b7f4350414e3a20496e76616c69642073656e646572000000000000000000000000600082015250565b6000620046a9601483620038cc565b9150620046b68262004671565b602082019050919050565b60006020820190508181036000830152620046dc816200469a565b9050919050565b600081519050620046f481620039c9565b92915050565b60006020828403121562004713576200471262003989565b5b60006200472384828501620046e3565b91505092915050565b7f45524332303a20617070726f76652066726f6d20746865207a65726f2061646460008201527f7265737300000000000000000000000000000000000000000000000000000000602082015250565b60006200478a602483620038cc565b915062004797826200472c565b604082019050919050565b60006020820190508181036000830152620047bd816200477b565b9050919050565b7f45524332303a20617070726f766520746f20746865207a65726f20616464726560008201527f7373000000000000000000000000000000000000000000000000000000000000602082015250565b600062004822602283620038cc565b91506200482f82620047c4565b604082019050919050565b60006020820190508181036000830152620048558162004813565b9050919050565b6000620048698262003b69565b9150620048768362003b69565b92508260ff038211156200488f576200488e62003f84565b5b828201905092915050565b6000620048a782620039bf565b9150620048b483620039bf565b9250620048e37fffffffffffffffffffffffffffffffffffffffffffffffffffffffffffffffff8484620041ae565b905092915050565b7f4e487b7100000000000000000000000000000000000000000000000000000000600052601260045260246000fd5b60006200492782620039bf565b91506200493483620039bf565b925082620049475762004946620048eb565b5b828204905092915050565b7f45524332303a207472616e7366657220616d6f756e742065786365656473206160008201527f6c6c6f77616e6365000000000000000000000000000000000000000000000000602082015250565b6000620049b0602883620038cc565b9150620049bd8262004952565b604082019050919050565b60006020820190508181036000830152620049e381620049a1565b9050919050565b7f5061757361626c653a206e6f7420706175736564000000000000000000000000600082015250565b600062004a22601483620038cc565b915062004a2f82620049ea565b602082019050919050565b6000602082019050818103600083015262004a558162004a13565b9050919050565b7f496e697469616c697a61626c653a20636f6e7472616374206973206e6f74206960008201527f6e697469616c697a696e67000000000000000000000000000000000000000000602082015250565b600062004aba602b83620038cc565b915062004ac78262004a5c565b604082019050919050565b6000602082019050818103600083015262004aed8162004aab565b9050919050565b7f45524332303a206d696e7420746f20746865207a65726f206164647265737300600082015250565b600062004b2c601f83620038cc565b915062004b398262004af4565b602082019050919050565b6000602082019050818103600083015262004b5f8162004b1d565b9050919050565b7f5061757361626c653a2070617573656400000000000000000000000000000000600082015250565b600062004b9e601083620038cc565b915062004bab8262004b66565b602082019050919050565b6000602082019050818103600083015262004bd18162004b8f565b9050919050565b7f45524332303a207472616e736665722066726f6d20746865207a65726f20616460008201527f6472657373000000000000000000000000000000000000000000000000000000602082015250565b600062004c36602583620038cc565b915062004c438262004bd8565b604082019050919050565b6000602082019050818103600083015262004c698162004c27565b9050919050565b7f45524332303a207472616e7366657220746f20746865207a65726f206164647260008201527f6573730000000000000000000000000000000000000000000000000000000000602082015250565b600062004cce602383620038cc565b915062004cdb8262004c70565b604082019050919050565b6000602082019050818103600083015262004d018162004cbf565b9050919050565b7f45524332303a20696e76616c6964206665652076616c75650000000000000000600082015250565b600062004d40601883620038cc565b915062004d4d8262004d08565b602082019050919050565b6000602082019050818103600083015262004d738162004d31565b9050919050565b7f45524332303a207472616e7366657220616d6f756e742065786365656473206260008201527f616c616e63650000000000000000000000000000000000000000000000000000602082015250565b600062004dd8602683620038cc565b915062004de58262004d7a565b604082019050919050565b6000602082019050818103600083015262004e0b8162004dc9565b9050919050565b7f45524332303a2046656520726563656976652061646472657373206973207a6560008201527f726f000000000000000000000000000000000000000000000000000000000000602082015250565b600062004e70602283620038cc565b915062004e7d8262004e12565b604082019050919050565b6000602082019050818103600083015262004ea38162004e61565b9050919050565b600062004eb782620039bf565b915062004ec483620039bf565b92508282101562004eda5762004ed962003f84565b5b82820390509291505056fe60806040523480156200001157600080fd5b5060405162000eda38038062000eda833981810160405281019062000037919062000181565b620000576200004b6200007560201b60201c565b6200007d60201b60201c565b826001819055508160028190555080600381905550505050620001dd565b600033905090565b60008060009054906101000a900473ffffffffffffffffffffffffffffffffffffffff169050816000806101000a81548173ffffffffffffffffffffffffffffffffffffffff021916908373ffffffffffffffffffffffffffffffffffffffff1602179055508173ffffffffffffffffffffffffffffffffffffffff168173ffffffffffffffffffffffffffffffffffffffff167f8be0079c531659141344cd1fd0a4f28419497f9722a3daafe3b4186f6b6457e060405160405180910390a35050565b600080fd5b6000819050919050565b6200015b8162000146565b81146200016757600080fd5b50565b6000815190506200017b8162000150565b92915050565b6000806000606084860312156200019d576200019c62000141565b5b6000620001ad868287016200016a565b9350506020620001c0868287016200016a565b9250506040620001d3868287016200016a565b9150509250925092565b610ced80620001ed6000396000f3fe608060405234801561001057600080fd5b50600436106100ea5760003560e01c806381824eb81161008c57806396790d4a1161006657806396790d4a14610235578063c8f4a06b14610253578063e61a4c4a1461026f578063f2fde38b1461028d576100ea565b806381824eb8146101b757806389e25a65146101e75780638da5cb5b14610217576100ea565b806353dfc508116100c857806353dfc508146101455780635be71d5f14610161578063715018a614610191578063757765f81461019b576100ea565b806336884b6e146100ef578063435f53101461010b578063466f631114610127575b600080fd5b61010960048036038101906101049190610939565b6102a9565b005b61012560048036038101906101209190610939565b61032f565b005b61012f6103b5565b60405161013c9190610975565b60405180910390f35b61015f600480360381019061015a91906109ee565b6103bf565b005b61017b60048036038101906101769190610a2e565b610419565b6040516101889190610a74565b60405180910390f35b610199610462565b005b6101b560048036038101906101b09190610939565b6104ea565b005b6101d160048036038101906101cc91906109ee565b610570565b6040516101de9190610aaa565b60405180910390f35b61020160048036038101906101fc9190610939565b6105f4565b60405161020e9190610aaa565b60405180910390f35b61021f610613565b60405161022c9190610ad4565b60405180910390f35b61023d61063c565b60405161024a9190610975565b60405180910390f35b61026d600480360381019061026891906109ee565b610646565b005b610277610731565b6040516102849190610975565b60405180910390f35b6102a760048036038101906102a29190610a2e565b61073b565b005b6102b1610832565b73ffffffffffffffffffffffffffffffffffffffff166102cf610613565b73ffffffffffffffffffffffffffffffffffffffff1614610325576040517f08c379a000000000000000000000000000000000000000000000000000000000815260040161031c90610b4c565b60405180910390fd5b8060028190555050565b610337610832565b73ffffffffffffffffffffffffffffffffffffffff16610355610613565b73ffffffffffffffffffffffffffffffffffffffff16146103ab576040517f08c379a00000000000000000000000000000000000000000000000000000000081526004016103a290610b4c565b60405180910390fd5b8060038190555050565b6000600254905090565b80600460008473ffffffffffffffffffffffffffffffffffffffff1673ffffffffffffffffffffffffffffffffffffffff168152602001908152602001600020600082825461040e9190610b9b565b925050819055505050565b6000600460008373ffffffffffffffffffffffffffffffffffffffff1673ffffffffffffffffffffffffffffffffffffffff168152602001908152602001600020549050919050565b61046a610832565b73ffffffffffffffffffffffffffffffffffffffff16610488610613565b73ffffffffffffffffffffffffffffffffffffffff16146104de576040517f08c379a00000000000000000000000000000000000000000000000000000000081526004016104d590610b4c565b60405180910390fd5b6104e8600061083a565b565b6104f2610832565b73ffffffffffffffffffffffffffffffffffffffff16610510610613565b73ffffffffffffffffffffffffffffffffffffffff1614610566576040517f08c379a000000000000000000000000000000000000000000000000000000000815260040161055d90610b4c565b60405180910390fd5b8060018190555050565b600060015482111561058557600090506105ee565b6000600460008573ffffffffffffffffffffffffffffffffffffffff1673ffffffffffffffffffffffffffffffffffffffff16815260200190815260200160002054905060035483826105d89190610b9b565b11156105e85760009150506105ee565b60019150505b92915050565b6000600254821115610609576000905061060e565b600190505b919050565b60008060009054906101000a900473ffffffffffffffffffffffffffffffffffffffff16905090565b6000600154905090565b6000600460008473ffffffffffffffffffffffffffffffffffffffff1673ffffffffffffffffffffffffffffffffffffffff168152602001908152602001600020549050818110156106dc576000600460008573ffffffffffffffffffffffffffffffffffffffff1673ffffffffffffffffffffffffffffffffffffffff1681526020019081526020016000208190555061072c565b81816106e89190610bf1565b600460008573ffffffffffffffffffffffffffffffffffffffff1673ffffffffffffffffffffffffffffffffffffffff168152602001908152602001600020819055505b505050565b6000600354905090565b610743610832565b73ffffffffffffffffffffffffffffffffffffffff16610761610613565b73ffffffffffffffffffffffffffffffffffffffff16146107b7576040517f08c379a00000000000000000000000000000000000000000000000000000000081526004016107ae90610b4c565b60405180910390fd5b600073ffffffffffffffffffffffffffffffffffffffff168173ffffffffffffffffffffffffffffffffffffffff1603610826576040517f08c379a000000000000000000000000000000000000000000000000000000000815260040161081d90610c97565b60405180910390fd5b61082f8161083a565b50565b600033905090565b60008060009054906101000a900473ffffffffffffffffffffffffffffffffffffffff169050816000806101000a81548173ffffffffffffffffffffffffffffffffffffffff021916908373ffffffffffffffffffffffffffffffffffffffff1602179055508173ffffffffffffffffffffffffffffffffffffffff168173ffffffffffffffffffffffffffffffffffffffff167f8be0079c531659141344cd1fd0a4f28419497f9722a3daafe3b4186f6b6457e060405160405180910390a35050565b600080fd5b6000819050919050565b61091681610903565b811461092157600080fd5b50565b6000813590506109338161090d565b92915050565b60006020828403121561094f5761094e6108fe565b5b600061095d84828501610924565b91505092915050565b61096f81610903565b82525050565b600060208201905061098a6000830184610966565b92915050565b600073ffffffffffffffffffffffffffffffffffffffff82169050919050565b60006109bb82610990565b9050919050565b6109cb816109b0565b81146109d657600080fd5b50565b6000813590506109e8816109c2565b92915050565b60008060408385031215610a0557610a046108fe565b5b6000610a13858286016109d9565b9250506020610a2485828601610924565b9150509250929050565b600060208284031215610a4457610a436108fe565b5b6000610a52848285016109d9565b91505092915050565b6000819050919050565b610a6e81610a5b565b82525050565b6000602082019050610a896000830184610a65565b92915050565b60008115159050919050565b610aa481610a8f565b82525050565b6000602082019050610abf6000830184610a9b565b92915050565b610ace816109b0565b82525050565b6000602082019050610ae96000830184610ac5565b92915050565b600082825260208201905092915050565b7f4f776e61626c653a2063616c6c6572206973206e6f7420746865206f776e6572600082015250565b6000610b36602083610aef565b9150610b4182610b00565b602082019050919050565b60006020820190508181036000830152610b6581610b29565b9050919050565b7f4e487b7100000000000000000000000000000000000000000000000000000000600052601160045260246000fd5b6000610ba682610903565b9150610bb183610903565b9250827fffffffffffffffffffffffffffffffffffffffffffffffffffffffffffffffff03821115610be657610be5610b6c565b5b828201905092915050565b6000610bfc82610903565b9150610c0783610903565b925082821015610c1a57610c19610b6c565b5b828203905092915050565b7f4f776e61626c653a206e6577206f776e657220697320746865207a65726f206160008201527f6464726573730000000000000000000000000000000000000000000000000000602082015250565b6000610c81602683610aef565b9150610c8c82610c25565b604082019050919050565b60006020820190508181036000830152610cb081610c74565b905091905056fea2646970667358221220c9ca4e89749df25e31668fc480b470701b52eca5fab089a341220a28db7780b964736f6c634300080d0033a264697066735822122007bd1d9d60041921ca3b7234ad786994764f23cc045cff083e7e346cb6f2a56864736f6c634300080d0033",
  "immutableReferences": {},
  "source": "// SPDX-License-Identifier: MIT\r\npragma solidity ^0.8.2;\r\n\r\nimport \"hardhat/console.sol\";\r\n\r\nimport \"./ERC20Upgradeable.sol\";\r\nimport \"./Limiter.sol\";\r\n\r\nimport \"@openzeppelin/contracts-upgradeable/security/PausableUpgradeable.sol\";\r\nimport \"@openzeppelin/contracts-upgradeable/access/OwnableUpgradeable.sol\";\r\nimport \"@openzeppelin/contracts-upgradeable/proxy/utils/Initializable.sol\";\r\n\r\n\r\n\r\n\r\ncontract WickeDrive is Initializable, ERC20Upgradeable, PausableUpgradeable, OwnableUpgradeable {\r\n\r\n    address private _rewardAddress; // For deposit\r\n\r\n    address private _feeReceiveAddress; // For fee charge\r\n    uint256 private _buyFee; // Per-mille\r\n    uint256 private _sellFee; // Per-mille\r\n\r\n    address private _pancakeLPAddress; // For Fee on Pancake\r\n\r\n    Limiter private _limiter;\r\n\r\n    address private _lpCreatorAddress;\r\n    bool private _isLockTransferForAntiBot;\r\n\r\n    mapping(address => bool) _lpAddresses;\r\n\r\n    event Deposit(address from, uint256 amount);\r\n    event Withdraw(address to, uint256 amount);\r\n\r\n    /// @custom:oz-upgrades-unsafe-allow constructor\r\n    // constructor() initializer {}\r\n\r\n    function initialize() initializer public {\r\n        __ERC20_init(\"WickeDrive\", \"CWCKD\");\r\n        __Pausable_init();\r\n        __Ownable_init();\r\n\r\n        // Buy/Sell fee\r\n        _buyFee = 19 * (10 ** (decimals() - 1));\r\n        _sellFee = 20 * (10 ** (decimals() - 1));\r\n\r\n        // Address\r\n        _rewardAddress = address(0);\r\n        _feeReceiveAddress = address(0);\r\n        _pancakeLPAddress = address(0);\r\n        _isLockTransferForAntiBot = false;\r\n        _lpCreatorAddress = address(0);\r\n\r\n        _limiter = new Limiter(\r\n            25000 * (10 ** decimals()),\r\n            25000 * (10 ** decimals()),\r\n            5000000 * (10 ** decimals())\r\n        );\r\n\r\n        _mint(msg.sender, 100000000 * 10 ** decimals());\r\n    }\r\n\r\n    function pause() public onlyOwner {\r\n        _pause();\r\n    }\r\n\r\n    function unpause() public onlyOwner {\r\n        _unpause();\r\n    }\r\n\r\n    function _beforeTokenTransfer(address from, address to, uint256 amount)\r\n    internal\r\n    whenNotPaused\r\n    override\r\n    {\r\n        super._beforeTokenTransfer(from, to, amount);\r\n    }\r\n    // BUY/SELL FEE\r\n    function setBuyFee(uint256 fee) public onlyOwner {\r\n        _buyFee = fee;\r\n    }\r\n    function setSellFee(uint256 _fee) public onlyOwner {\r\n        _sellFee = _fee;\r\n    }\r\n    function getFees() external view returns(uint256 buyFee, uint256 sellFee) {\r\n        return (_buyFee, _sellFee);\r\n    }\r\n    // REWARDS:\r\n    function setRewardAddress(address newAddress) public onlyOwner {\r\n        _rewardAddress = newAddress;\r\n    }\r\n    // FEE RECEIVE ADDRESS\r\n    function setFeeReceiveAddress(address addr) public onlyOwner {\r\n        require(addr != address(0), \"ERC20: Invalid receive address\");\r\n        _feeReceiveAddress = addr;\r\n    }\r\n\r\n    function getAddressesData() external view returns(\r\n        address reward,\r\n        address fee,\r\n        address pancakeLP\r\n    ) {\r\n        return (_rewardAddress, _feeReceiveAddress, _pancakeLPAddress);\r\n    }\r\n\r\n    // MAX BUY/SELL\r\n    function setMaxBuy(uint256 max) public onlyOwner {\r\n        _limiter.setMaxBuyLimit(max);\r\n    }\r\n\r\n    function setMaxSell(uint256 max) public onlyOwner {\r\n        _limiter.setMaxSellLimit(max);\r\n    }\r\n    function setLimitBuy(uint256 _limit) public onlyOwner {\r\n        _limiter.setLimitBuy(_limit);\r\n    }\r\n\r\n    function getLimitData() external view returns(\r\n        uint256 maxBuy, uint256 maxSell, uint256 totalBuy\r\n    ) {\r\n       return (_limiter.getMaxBuy(), _limiter.getMaxSell(), _limiter.getLimitBuy());\r\n    }\r\n\r\n    function getAddressTotalBuy(address _sender) public view virtual returns(int256) {\r\n        return _limiter.getAddressTotalBuy(_sender);\r\n    }\r\n\r\n    // DEPOSIT\r\n    function deposit(uint256 amount) external virtual {\r\n        require(_rewardAddress != address(0) && _msgSender() != address(0), \"ERC20: Invalid address\");\r\n        transfer(_rewardAddress, amount);\r\n        emit Deposit(_msgSender(), amount);\r\n    }\r\n\r\n    // WITHDRAW\r\n    function withdraw(address recipient, uint256 amount) external virtual {\r\n        require(_msgSender() != address(0) && _msgSender() == _rewardAddress, \"CPAN: Invalid sender\");\r\n        transfer(recipient, amount);\r\n        emit Withdraw(_msgSender(), amount);\r\n    }\r\n\r\n    // OVERRIDE FOR FEE TRANSFER\r\n    function transferFrom(\r\n        address sender,\r\n        address recipient,\r\n        uint256 amount\r\n    ) public virtual override returns (bool) {\r\n        require(!_isLockTransferForAntiBot || sender == _lpCreatorAddress, \"CPAN: Antibot revert\");\r\n        if (isAddressLP(recipient)) {\r\n            // SELL\r\n            uint256 _fee = 0;\r\n            if (sender != _lpCreatorAddress) {\r\n                require(_limiter.isValidSell(amount), \"CPAN: Sell limit reach\");\r\n                _fee = calculateFee(amount, _sellFee);\r\n            }\r\n            return _transferFrom(sender, recipient, amount, _fee, _feeReceiveAddress);\r\n        }\r\n        return _transferFrom(sender, recipient, amount, 0, address(0));\r\n    }\r\n\r\n    function transfer(address recipient, uint256 amount) public virtual override returns (bool) {\r\n        if (isAddressLP(_msgSender()) || isAddressLP(recipient)) {\r\n            // BUY\r\n            require(!_isLockTransferForAntiBot || recipient == _lpCreatorAddress, \"CPAN: Antibot revert\");\r\n            uint256 _fee = 0;\r\n            if (recipient != _lpCreatorAddress && recipient != 0x10ED43C718714eb63d5aA57B78B54704E256024E) {\r\n                require(_limiter.isValidBuy(recipient, amount), \"CPAN: Buy limit reach\");\r\n                _fee = calculateFee(amount, _buyFee);\r\n                if (isAddressLP(recipient)) {\r\n                    _fee = calculateFee(amount, _sellFee);\r\n                }\r\n            }\r\n            _transfer(_msgSender(), recipient, amount, _fee, _feeReceiveAddress);\r\n            if (recipient != _lpCreatorAddress) {\r\n                _limiter.onBuySuccess(recipient, amount);\r\n            }\r\n        } else {\r\n            require(recipient != address(this), \"CPAN: Failed to transfer\");\r\n            _transfer(_msgSender(), recipient, amount, 0, address(0));\r\n        }\r\n        return true;\r\n    }\r\n\r\n    function calculateFee(uint256 amount, uint256 _fee) private view returns(uint256) {\r\n        uint fraction = decimals() + 2;\r\n        return amount * _fee / (10 ** fraction);\r\n    }\r\n\r\n    function setLPCreatorAddress(address _addr) external onlyOwner {\r\n        _lpCreatorAddress = _addr;\r\n    }\r\n\r\n    function setEnableAntibot(bool enable) external onlyOwner {\r\n        _isLockTransferForAntiBot = enable;\r\n    }\r\n\r\n    function getAntibotData() external view returns(bool isEnable, address lpCreator) {\r\n        return (_isLockTransferForAntiBot, _lpCreatorAddress);\r\n    }\r\n\r\n    function setLPAddress(address _addr, bool enable) external onlyOwner {\r\n        _lpAddresses[_addr] = enable;\r\n    }\r\n\r\n    function isAddressLP(address _addr) public view returns(bool) {\r\n        return _lpAddresses[_addr];\r\n    }\r\n}",
  "sourcePath": "C:/Users/Gunner/Desktop/ChangeTheBlock/Smart-Contracts/PROXY/src/smart-contracts/contracts/WickeDrive.sol",
  "compiler": {
    "name": "solc",
    "version": "0.8.13+commit.abaa5c0e.Emscripten.clang"
  },
  "schemaVersion": "3.3.4",
  "updatedAt": "2022-03-22T15:26:16.998Z",
  "devdoc": {
    "kind": "dev",
    "methods": {
      "allowance(address,address)": {
        "details": "See {IERC20-allowance}."
      },
      "approve(address,uint256)": {
        "details": "See {IERC20-approve}. Requirements: - `spender` cannot be the zero address."
      },
      "balanceOf(address)": {
        "details": "See {IERC20-balanceOf}."
      },
      "decimals()": {
        "details": "Returns the number of decimals used to get its user representation. For example, if `decimals` equals `2`, a balance of `505` tokens should be displayed to a user as `5.05` (`505 / 10 ** 2`). Tokens usually opt for a value of 18, imitating the relationship between Ether and Wei. This is the value {ERC20} uses, unless this function is overridden; NOTE: This information is only used for _display_ purposes: it in no way affects any of the arithmetic of the contract, including {IERC20-balanceOf} and {IERC20-transfer}."
      },
      "decreaseAllowance(address,uint256)": {
        "details": "Atomically decreases the allowance granted to `spender` by the caller. This is an alternative to {approve} that can be used as a mitigation for problems described in {IERC20-approve}. Emits an {Approval} event indicating the updated allowance. Requirements: - `spender` cannot be the zero address. - `spender` must have allowance for the caller of at least `subtractedValue`."
      },
      "increaseAllowance(address,uint256)": {
        "details": "Atomically increases the allowance granted to `spender` by the caller. This is an alternative to {approve} that can be used as a mitigation for problems described in {IERC20-approve}. Emits an {Approval} event indicating the updated allowance. Requirements: - `spender` cannot be the zero address."
      },
      "initialize()": {
        "custom:oz-upgrades-unsafe-allow": "constructor"
      },
      "name()": {
        "details": "Returns the name of the token."
      },
      "owner()": {
        "details": "Returns the address of the current owner."
      },
      "paused()": {
        "details": "Returns true if the contract is paused, and false otherwise."
      },
      "renounceOwnership()": {
        "details": "Leaves the contract without owner. It will not be possible to call `onlyOwner` functions anymore. Can only be called by the current owner. NOTE: Renouncing ownership will leave the contract without an owner, thereby removing any functionality that is only available to the owner."
      },
      "symbol()": {
        "details": "Returns the symbol of the token, usually a shorter version of the name."
      },
      "totalSupply()": {
        "details": "See {IERC20-totalSupply}."
      },
      "transfer(address,uint256)": {
        "details": "See {IERC20-transfer}. Requirements: - `recipient` cannot be the zero address. - the caller must have a balance of at least `amount`."
      },
      "transferFrom(address,address,uint256)": {
        "details": "Moves `amount` tokens from `sender` to `recipient` using the allowance mechanism. `amount` is then deducted from the caller's allowance. Returns a boolean value indicating whether the operation succeeded. Emits a {Transfer} event."
      },
      "transferOwnership(address)": {
        "details": "Transfers ownership of the contract to a new account (`newOwner`). Can only be called by the current owner."
      }
    },
    "version": 1
  },
  "userdoc": {
    "kind": "user",
    "methods": {},
    "version": 1
  }
}